{
  "transactions": [
    {
      "hash": "0xabd1c00f35317d407dee5c7b311049f81b9f969384551dfa9af5370ece3ff9e7",
      "transactionType": "CALL",
      "contractName": null,
      "contractAddress": "0x5fbdb2315678afecb367f032d93f642f64180aa3",
      "function": "emitOperatorDeregistered(address,address)",
      "arguments": [
        "0xCf593639B34CaE0ea3217dA27014ab5FbBAc8342",
        "0x840F3800136e6a8BCAC3A7FE22f60543A06b6c6a"
      ],
      "transaction": {
        "from": "0xf39fd6e51aad88f6f4ce6ab8827279cfffb92266",
        "to": "0x5fbdb2315678afecb367f032d93f642f64180aa3",
        "gas": "0x8299",
        "value": "0x0",
        "input": "0x5e314887000000000000000000000000cf593639b34cae0ea3217da27014ab5fbbac8342000000000000000000000000840f3800136e6a8bcac3a7fe22f60543a06b6c6a",
        "nonce": "0x12",
        "chainId": "0x7a69"
      },
      "additionalContracts": [],
      "isFixedGasLimit": false
    },
    {
      "hash": "0x7097fccc2170bea144cd396ff1aa33bacd455dc192a5c972c3c851e28958aecb",
      "transactionType": "CALL",
      "contractName": null,
      "contractAddress": "0x5fbdb2315678afecb367f032d93f642f64180aa3",
      "function": "emitOperatorDeregistered(address,address)",
      "arguments": [
        "0xFE6B5379E861C79dB03eb3a01F3F1892FC4141D5",
        "0x840F3800136e6a8BCAC3A7FE22f60543A06b6c6a"
      ],
      "transaction": {
        "from": "0xf39fd6e51aad88f6f4ce6ab8827279cfffb92266",
        "to": "0x5fbdb2315678afecb367f032d93f642f64180aa3",
        "gas": "0x8299",
        "value": "0x0",
        "input": "0x5e314887000000000000000000000000fe6b5379e861c79db03eb3a01f3f1892fc4141d5000000000000000000000000840f3800136e6a8bcac3a7fe22f60543a06b6c6a",
        "nonce": "0x13",
        "chainId": "0x7a69"
      },
      "additionalContracts": [],
      "isFixedGasLimit": false
    },
    {
      "hash": "0x88a3f55b7801e0d617d262df7bf174911b8f5697ee4e1a89af9c61dfc3b43d4b",
      "transactionType": "CALL",
      "contractName": null,
      "contractAddress": "0x5fbdb2315678afecb367f032d93f642f64180aa3",
      "function": "emitOperatorDeregistered(address,address)",
      "arguments": [
        "0xCCE3B4EC7681B4EcF5fD5b50e562A88a33E5137B",
        "0x840F3800136e6a8BCAC3A7FE22f60543A06b6c6a"
      ],
      "transaction": {
        "from": "0xf39fd6e51aad88f6f4ce6ab8827279cfffb92266",
        "to": "0x5fbdb2315678afecb367f032d93f642f64180aa3",
        "gas": "0x8299",
        "value": "0x0",
        "input": "0x5e314887000000000000000000000000cce3b4ec7681b4ecf5fd5b50e562a88a33e5137b000000000000000000000000840f3800136e6a8bcac3a7fe22f60543a06b6c6a",
        "nonce": "0x14",
        "chainId": "0x7a69"
      },
      "additionalContracts": [],
      "isFixedGasLimit": false
    }
  ],
  "receipts": [
    {
      "status": "0x1",
      "cumulativeGasUsed": "0x5e8e",
      "logs": [
        {
          "address": "0x5fbdb2315678afecb367f032d93f642f64180aa3",
          "topics": [
            "0xed218afd65e8eaf426500b12bc170cf79b3b2496d94468127f79d95fb45ccae9",
            "0x000000000000000000000000cf593639b34cae0ea3217da27014ab5fbbac8342",
            "0x0000000000000000000000000000000000000000000000000000000000000010",
            "0x000000000000000000000000840f3800136e6a8bcac3a7fe22f60543a06b6c6a"
          ],
          "data": "0x",
          "blockHash": "0xfcd7f4039ee6df05f7bfbb32d5528982be7a6148b7c2b59c67ec08b0a759aeaa",
          "blockNumber": "0x10",
          "blockTimestamp": "0x6791a624",
          "transactionHash": "0xabd1c00f35317d407dee5c7b311049f81b9f969384551dfa9af5370ece3ff9e7",
          "transactionIndex": "0x0",
          "logIndex": "0x0",
          "removed": false
        }
      ],
      "logsBloom": "0x00000000100000000000000000000000008000000000000000000000210000000000000000000000000000000000000000000000000000000000000000000000000000000000000000000000000000000000000000000000000000000000000000000040000000000000000000000000000000000000000010000000444000000000000000000000000000000000000000000100000000000000000200000000000000000000000000000000000000000000000000000000000000000000000000000040000000000000000000000000000000000000000000000000000000000000000000000800000000000000000000000000000000080000000000000004",
      "type": "0x2",
      "transactionHash": "0xabd1c00f35317d407dee5c7b311049f81b9f969384551dfa9af5370ece3ff9e7",
      "transactionIndex": "0x0",
      "blockHash": "0xfcd7f4039ee6df05f7bfbb32d5528982be7a6148b7c2b59c67ec08b0a759aeaa",
      "blockNumber": "0x10",
      "gasUsed": "0x5e8e",
      "effectiveGasPrice": "0x85c83bc",
      "blobGasPrice": "0x1",
      "from": "0xf39fd6e51aad88f6f4ce6ab8827279cfffb92266",
      "to": "0x5fbdb2315678afecb367f032d93f642f64180aa3",
      "contractAddress": null
    },
    {
      "status": "0x1",
      "cumulativeGasUsed": "0x5e8e",
      "logs": [
        {
          "address": "0x5fbdb2315678afecb367f032d93f642f64180aa3",
          "topics": [
            "0xed218afd65e8eaf426500b12bc170cf79b3b2496d94468127f79d95fb45ccae9",
            "0x000000000000000000000000fe6b5379e861c79db03eb3a01f3f1892fc4141d5",
            "0x0000000000000000000000000000000000000000000000000000000000000011",
            "0x000000000000000000000000840f3800136e6a8bcac3a7fe22f60543a06b6c6a"
          ],
          "data": "0x",
          "blockHash": "0x53f85df8ad7b0234168b9bde10a37b8a21b346f64c21cbb0e6e3751bcaa2a2a0",
          "blockNumber": "0x11",
          "blockTimestamp": "0x6791a624",
          "transactionHash": "0x7097fccc2170bea144cd396ff1aa33bacd455dc192a5c972c3c851e28958aecb",
          "transactionIndex": "0x0",
          "logIndex": "0x0",
          "removed": false
        }
      ],
      "logsBloom": "0x00000000000000000000000000000000008000000000000000000000000000000000000000000000000000000000000000000000000000000000000000000000000000000000000000000000000000000000000000000000000000000000000000000040000000000000000000000000000000004000000010000000400000000000000000000000000000000000000000000000000000000000000200000000000000000100000000000000000000000000000000000000000000000400000000001040000000004000000000000000000000000000000000000000000000000000000000000800000000000000000000000000000000080000080000000004",
      "type": "0x2",
      "transactionHash": "0x7097fccc2170bea144cd396ff1aa33bacd455dc192a5c972c3c851e28958aecb",
      "transactionIndex": "0x0",
      "blockHash": "0x53f85df8ad7b0234168b9bde10a37b8a21b346f64c21cbb0e6e3751bcaa2a2a0",
      "blockNumber": "0x11",
      "gasUsed": "0x5e8e",
      "effectiveGasPrice": "0x75161ce",
      "blobGasPrice": "0x1",
      "from": "0xf39fd6e51aad88f6f4ce6ab8827279cfffb92266",
      "to": "0x5fbdb2315678afecb367f032d93f642f64180aa3",
      "contractAddress": null
    },
    {
      "status": "0x1",
      "cumulativeGasUsed": "0x5e8e",
      "logs": [
        {
          "address": "0x5fbdb2315678afecb367f032d93f642f64180aa3",
          "topics": [
            "0xed218afd65e8eaf426500b12bc170cf79b3b2496d94468127f79d95fb45ccae9",
            "0x000000000000000000000000cce3b4ec7681b4ecf5fd5b50e562a88a33e5137b",
            "0x0000000000000000000000000000000000000000000000000000000000000012",
            "0x000000000000000000000000840f3800136e6a8bcac3a7fe22f60543a06b6c6a"
          ],
          "data": "0x",
          "blockHash": "0x72409e41bea2e8275e13f79dd73750a172890a799b0cb1a0fb9414436d9ed29f",
          "blockNumber": "0x12",
          "blockTimestamp": "0x6791a624",
          "transactionHash": "0x88a3f55b7801e0d617d262df7bf174911b8f5697ee4e1a89af9c61dfc3b43d4b",
          "transactionIndex": "0x0",
          "logIndex": "0x0",
          "removed": false
        }
      ],
      "logsBloom": "0x00000000000000000000000000000000008000000000000000000000000000000020000000000000000000000000000000000000000000000000000000000000000000000000000000000000000000000000000000000000000000000000000000000040000000000000000000000000000000000000000010000000400000000000000000000000000000000000040004000000000000000000000200000000000000000000000000000000000000000000000000000040000000000000000000000040000000000400000000000000000000000000000000000000000000000000000000000800000000000080000000000000000000080000000000000004",
      "type": "0x2",
      "transactionHash": "0x88a3f55b7801e0d617d262df7bf174911b8f5697ee4e1a89af9c61dfc3b43d4b",
      "transactionIndex": "0x0",
      "blockHash": "0x72409e41bea2e8275e13f79dd73750a172890a799b0cb1a0fb9414436d9ed29f",
      "blockNumber": "0x12",
      "gasUsed": "0x5e8e",
      "effectiveGasPrice": "0x6679652",
      "blobGasPrice": "0x1",
      "from": "0xf39fd6e51aad88f6f4ce6ab8827279cfffb92266",
      "to": "0x5fbdb2315678afecb367f032d93f642f64180aa3",
      "contractAddress": null
    }
  ],
  "libraries": [],
  "pending": [],
  "returns": {},
  "timestamp": 1737598500,
  "chain": 31337,
  "commit": "1aabbcb"
}