{
  "transactions": [
    {
      "hash": "0x07b3a5375e92e3f85f4d46fc0f380387b156f83467f5c4ea78fea30291175528",
      "transactionType": "CALL",
      "contractName": null,
      "contractAddress": "0x5fbdb2315678afecb367f032d93f642f64180aa3",
      "function": "emitOperatorDeregistered(address,address)",
      "arguments": [
        "0xCf593639B34CaE0ea3217dA27014ab5FbBAc8342",
        "0x840F3800136e6a8BCAC3A7FE22f60543A06b6c6a"
      ],
      "transaction": {
        "from": "0xf39fd6e51aad88f6f4ce6ab8827279cfffb92266",
        "to": "0x5fbdb2315678afecb367f032d93f642f64180aa3",
        "gas": "0x8299",
        "value": "0x0",
        "input": "0x5e314887000000000000000000000000cf593639b34cae0ea3217da27014ab5fbbac8342000000000000000000000000840f3800136e6a8bcac3a7fe22f60543a06b6c6a",
        "nonce": "0x12",
        "chainId": "0x7a69"
      },
      "additionalContracts": [],
      "isFixedGasLimit": false
    },
    {
      "hash": "0x5e504c3c9880d6ed77187da1dd2bf61ed7724385150e0e1dccf5f940af885449",
      "transactionType": "CALL",
      "contractName": null,
      "contractAddress": "0x5fbdb2315678afecb367f032d93f642f64180aa3",
      "function": "emitOperatorDeregistered(address,address)",
      "arguments": [
        "0xFE6B5379E861C79dB03eb3a01F3F1892FC4141D5",
        "0x840F3800136e6a8BCAC3A7FE22f60543A06b6c6a"
      ],
      "transaction": {
        "from": "0xf39fd6e51aad88f6f4ce6ab8827279cfffb92266",
        "to": "0x5fbdb2315678afecb367f032d93f642f64180aa3",
        "gas": "0x8299",
        "value": "0x0",
        "input": "0x5e314887000000000000000000000000fe6b5379e861c79db03eb3a01f3f1892fc4141d5000000000000000000000000840f3800136e6a8bcac3a7fe22f60543a06b6c6a",
        "nonce": "0x13",
        "chainId": "0x7a69"
      },
      "additionalContracts": [],
      "isFixedGasLimit": false
    },
    {
      "hash": "0x540fa6b450ec7c223af8eff719cacdbabaf941ea40d41eaee6ca75329e601ffa",
      "transactionType": "CALL",
      "contractName": null,
      "contractAddress": "0x5fbdb2315678afecb367f032d93f642f64180aa3",
      "function": "emitOperatorDeregistered(address,address)",
      "arguments": [
        "0xCCE3B4EC7681B4EcF5fD5b50e562A88a33E5137B",
        "0x840F3800136e6a8BCAC3A7FE22f60543A06b6c6a"
      ],
      "transaction": {
        "from": "0xf39fd6e51aad88f6f4ce6ab8827279cfffb92266",
        "to": "0x5fbdb2315678afecb367f032d93f642f64180aa3",
        "gas": "0x8299",
        "value": "0x0",
        "input": "0x5e314887000000000000000000000000cce3b4ec7681b4ecf5fd5b50e562a88a33e5137b000000000000000000000000840f3800136e6a8bcac3a7fe22f60543a06b6c6a",
        "nonce": "0x14",
        "chainId": "0x7a69"
      },
      "additionalContracts": [],
      "isFixedGasLimit": false
    }
  ],
  "receipts": [
    {
      "status": "0x1",
      "cumulativeGasUsed": "0x5e8e",
      "logs": [
        {
          "address": "0x5fbdb2315678afecb367f032d93f642f64180aa3",
          "topics": [
            "0xed218afd65e8eaf426500b12bc170cf79b3b2496d94468127f79d95fb45ccae9",
            "0x000000000000000000000000cf593639b34cae0ea3217da27014ab5fbbac8342",
            "0x0000000000000000000000000000000000000000000000000000000000000011",
            "0x000000000000000000000000840f3800136e6a8bcac3a7fe22f60543a06b6c6a"
          ],
          "data": "0x",
          "blockHash": "0x195dd524533dd1f21112a729e901636c018e266c374c591279103beacae0922f",
          "blockNumber": "0x11",
          "blockTimestamp": "0x6791a4ed",
          "transactionHash": "0x07b3a5375e92e3f85f4d46fc0f380387b156f83467f5c4ea78fea30291175528",
          "transactionIndex": "0x0",
          "logIndex": "0x0",
          "removed": false
        }
      ],
      "logsBloom": "0x00000000000000000000000000000000008000000000000000000000210000000000000000000000000000000000000000000000000000000000000000000000000000000000000000000000000000000000000000000000000000000000000000000040000000000000000000000000000000004000000010000000404000000000000000000000000000000000000000000000000000000000000200000000000000000000000000000000000000000000000000000000000000000400000000001040000000000000000000000000000000000000000000000000000000000000000000000800000000000000000000000000000000080000000000000004",
      "type": "0x2",
      "transactionHash": "0x07b3a5375e92e3f85f4d46fc0f380387b156f83467f5c4ea78fea30291175528",
      "transactionIndex": "0x0",
      "blockHash": "0x195dd524533dd1f21112a729e901636c018e266c374c591279103beacae0922f",
      "blockNumber": "0x11",
      "gasUsed": "0x5e8e",
      "effectiveGasPrice": "0x750f370",
      "blobGasPrice": "0x1",
      "from": "0xf39fd6e51aad88f6f4ce6ab8827279cfffb92266",
      "to": "0x5fbdb2315678afecb367f032d93f642f64180aa3",
      "contractAddress": null
    },
    {
      "status": "0x1",
      "cumulativeGasUsed": "0x5e8e",
      "logs": [
        {
          "address": "0x5fbdb2315678afecb367f032d93f642f64180aa3",
          "topics": [
            "0xed218afd65e8eaf426500b12bc170cf79b3b2496d94468127f79d95fb45ccae9",
            "0x000000000000000000000000fe6b5379e861c79db03eb3a01f3f1892fc4141d5",
            "0x0000000000000000000000000000000000000000000000000000000000000012",
            "0x000000000000000000000000840f3800136e6a8bcac3a7fe22f60543a06b6c6a"
          ],
          "data": "0x",
          "blockHash": "0x59189d01df28817805fef89a894443e0226e482b9f9f328eaec386a25f066a9d",
          "blockNumber": "0x12",
          "blockTimestamp": "0x6791a4ed",
          "transactionHash": "0x5e504c3c9880d6ed77187da1dd2bf61ed7724385150e0e1dccf5f940af885449",
          "transactionIndex": "0x0",
          "logIndex": "0x0",
          "removed": false
        }
      ],
      "logsBloom": "0x00000000000000000000000000000000008000000000000000000000000000000000000000000000000000000000000000000000000000000000000000000000000000000000000000000000000000000000000000000000000000000000000000000040000000000000000000000000000000000000000010000000400000000000000000000000000000000000040000000000000000000000000200000000000000000100000000000000000000000000000000000040000000000000000000000040000000004400000000000000000000000000000000000000000000000000000000000800000000000000000000000000000000080000080000000004",
      "type": "0x2",
      "transactionHash": "0x5e504c3c9880d6ed77187da1dd2bf61ed7724385150e0e1dccf5f940af885449",
      "transactionIndex": "0x0",
      "blockHash": "0x59189d01df28817805fef89a894443e0226e482b9f9f328eaec386a25f066a9d",
      "blockNumber": "0x12",
      "gasUsed": "0x5e8e",
      "effectiveGasPrice": "0x66735ba",
      "blobGasPrice": "0x1",
      "from": "0xf39fd6e51aad88f6f4ce6ab8827279cfffb92266",
      "to": "0x5fbdb2315678afecb367f032d93f642f64180aa3",
      "contractAddress": null
    },
    {
      "status": "0x1",
      "cumulativeGasUsed": "0x5e8e",
      "logs": [
        {
          "address": "0x5fbdb2315678afecb367f032d93f642f64180aa3",
          "topics": [
            "0xed218afd65e8eaf426500b12bc170cf79b3b2496d94468127f79d95fb45ccae9",
            "0x000000000000000000000000cce3b4ec7681b4ecf5fd5b50e562a88a33e5137b",
            "0x0000000000000000000000000000000000000000000000000000000000000013",
            "0x000000000000000000000000840f3800136e6a8bcac3a7fe22f60543a06b6c6a"
          ],
          "data": "0x",
          "blockHash": "0xf583d0701f5219c4456ba078350431fe93574d8ee3c90b68f2e4ef5e6b4a13ce",
          "blockNumber": "0x13",
          "blockTimestamp": "0x6791a4ed",
          "transactionHash": "0x540fa6b450ec7c223af8eff719cacdbabaf941ea40d41eaee6ca75329e601ffa",
          "transactionIndex": "0x0",
          "logIndex": "0x0",
          "removed": false
        }
      ],
      "logsBloom": "0x20000000000000000000000000800000008000000000000000000000000000000020000040000000000000000000000000000000000000000000000000000000000000000000000000000000000000000000000000000000000000000000000000000040000000000000000000000000000000000000000010000000400000000000000000000000000000000000000004000000000000000000000200000000000000000000000000000000000000000000000000000000000000000000000000000040000000000000000000000000000000000000000000000000000000000000000000000800000000000080000000000000000000080000000000000004",
      "type": "0x2",
      "transactionHash": "0x540fa6b450ec7c223af8eff719cacdbabaf941ea40d41eaee6ca75329e601ffa",
      "transactionIndex": "0x0",
      "blockHash": "0xf583d0701f5219c4456ba078350431fe93574d8ee3c90b68f2e4ef5e6b4a13ce",
      "blockNumber": "0x13",
      "gasUsed": "0x5e8e",
      "effectiveGasPrice": "0x59aa3a9",
      "blobGasPrice": "0x1",
      "from": "0xf39fd6e51aad88f6f4ce6ab8827279cfffb92266",
      "to": "0x5fbdb2315678afecb367f032d93f642f64180aa3",
      "contractAddress": null
    }
  ],
  "libraries": [],
  "pending": [],
  "returns": {},
  "timestamp": 1737598189,
  "chain": 31337,
  "commit": "1aabbcb"
}