{
  "transactions": [
    {
      "hash": "0xefb71200c421486fb93260f07d5cf875615f8be323d36c7c3ecb4cc52172d00b",
      "transactionType": "CALL",
      "contractName": null,
      "contractAddress": "0x5fbdb2315678afecb367f032d93f642f64180aa3",
      "function": "emitOperatorDeregistered(address,address)",
      "arguments": [
        "0xCf593639B34CaE0ea3217dA27014ab5FbBAc8342",
        "0x840F3800136e6a8BCAC3A7FE22f60543A06b6c6a"
      ],
      "transaction": {
        "from": "0xf39fd6e51aad88f6f4ce6ab8827279cfffb92266",
        "to": "0x5fbdb2315678afecb367f032d93f642f64180aa3",
        "gas": "0x8299",
        "value": "0x0",
        "input": "0x5e314887000000000000000000000000cf593639b34cae0ea3217da27014ab5fbbac8342000000000000000000000000840f3800136e6a8bcac3a7fe22f60543a06b6c6a",
        "nonce": "0x12",
        "chainId": "0x7a69"
      },
      "additionalContracts": [],
      "isFixedGasLimit": false
    },
    {
      "hash": "0x6aa9acb00a3de2c4c29ca9081def73cf22c288eebf1d6f67d013ed6c099915f9",
      "transactionType": "CALL",
      "contractName": null,
      "contractAddress": "0x5fbdb2315678afecb367f032d93f642f64180aa3",
      "function": "emitOperatorDeregistered(address,address)",
      "arguments": [
        "0xFE6B5379E861C79dB03eb3a01F3F1892FC4141D5",
        "0x840F3800136e6a8BCAC3A7FE22f60543A06b6c6a"
      ],
      "transaction": {
        "from": "0xf39fd6e51aad88f6f4ce6ab8827279cfffb92266",
        "to": "0x5fbdb2315678afecb367f032d93f642f64180aa3",
        "gas": "0x8299",
        "value": "0x0",
        "input": "0x5e314887000000000000000000000000fe6b5379e861c79db03eb3a01f3f1892fc4141d5000000000000000000000000840f3800136e6a8bcac3a7fe22f60543a06b6c6a",
        "nonce": "0x13",
        "chainId": "0x7a69"
      },
      "additionalContracts": [],
      "isFixedGasLimit": false
    },
    {
      "hash": "0x4d1250eb10741b2dfb15352eb76ff3a93b6a15fa6f5f93d5f2998dd7a5470dfb",
      "transactionType": "CALL",
      "contractName": null,
      "contractAddress": "0x5fbdb2315678afecb367f032d93f642f64180aa3",
      "function": "emitOperatorDeregistered(address,address)",
      "arguments": [
        "0xCCE3B4EC7681B4EcF5fD5b50e562A88a33E5137B",
        "0x840F3800136e6a8BCAC3A7FE22f60543A06b6c6a"
      ],
      "transaction": {
        "from": "0xf39fd6e51aad88f6f4ce6ab8827279cfffb92266",
        "to": "0x5fbdb2315678afecb367f032d93f642f64180aa3",
        "gas": "0x8299",
        "value": "0x0",
        "input": "0x5e314887000000000000000000000000cce3b4ec7681b4ecf5fd5b50e562a88a33e5137b000000000000000000000000840f3800136e6a8bcac3a7fe22f60543a06b6c6a",
        "nonce": "0x14",
        "chainId": "0x7a69"
      },
      "additionalContracts": [],
      "isFixedGasLimit": false
    }
  ],
  "receipts": [
    {
      "status": "0x1",
      "cumulativeGasUsed": "0x5e8e",
      "logs": [
        {
          "address": "0x5fbdb2315678afecb367f032d93f642f64180aa3",
          "topics": [
            "0xed218afd65e8eaf426500b12bc170cf79b3b2496d94468127f79d95fb45ccae9",
            "0x000000000000000000000000cf593639b34cae0ea3217da27014ab5fbbac8342",
            "0x000000000000000000000000000000000000000000000000000000000000000f",
            "0x000000000000000000000000840f3800136e6a8bcac3a7fe22f60543a06b6c6a"
          ],
          "data": "0x",
          "blockHash": "0x23c4b796c66f3630eee84cf061db25c7f67f2480ecc3b91fbc42e0b00824712c",
          "blockNumber": "0xf",
          "blockTimestamp": "0x6791a260",
          "transactionHash": "0xefb71200c421486fb93260f07d5cf875615f8be323d36c7c3ecb4cc52172d00b",
          "transactionIndex": "0x0",
          "logIndex": "0x0",
          "removed": false
        }
      ],
      "logsBloom": "0x00000000000000000000000000000000008000000000000000000000210000000000000000000000000000000000000000000000000000000000000000000000000000000000000000000000000000000000000000000000000000000002000000000040000000000000000000000000000000000000000010000000404000000000000000000800000000000000000000000000000000000000000200000000000000000000000000000000000000000000000000000000000000000000000000000040000000000000000000000000000000000000000000000000000000000000000200000800000000000000000000000000000000080000000000000004",
      "type": "0x2",
      "transactionHash": "0xefb71200c421486fb93260f07d5cf875615f8be323d36c7c3ecb4cc52172d00b",
      "transactionIndex": "0x0",
      "blockHash": "0x23c4b796c66f3630eee84cf061db25c7f67f2480ecc3b91fbc42e0b00824712c",
      "blockNumber": "0xf",
      "gasUsed": "0x5e8e",
      "effectiveGasPrice": "0x98e4bdf",
      "blobGasPrice": "0x1",
      "from": "0xf39fd6e51aad88f6f4ce6ab8827279cfffb92266",
      "to": "0x5fbdb2315678afecb367f032d93f642f64180aa3",
      "contractAddress": null
    },
    {
      "status": "0x1",
      "cumulativeGasUsed": "0x5e8e",
      "logs": [
        {
          "address": "0x5fbdb2315678afecb367f032d93f642f64180aa3",
          "topics": [
            "0xed218afd65e8eaf426500b12bc170cf79b3b2496d94468127f79d95fb45ccae9",
            "0x000000000000000000000000fe6b5379e861c79db03eb3a01f3f1892fc4141d5",
            "0x0000000000000000000000000000000000000000000000000000000000000010",
            "0x000000000000000000000000840f3800136e6a8bcac3a7fe22f60543a06b6c6a"
          ],
          "data": "0x",
          "blockHash": "0x05dbb4f0b52ccb23f2c52d1391a69cab53baad199ca0b58162c13b71faf4e7dc",
          "blockNumber": "0x10",
          "blockTimestamp": "0x6791a260",
          "transactionHash": "0x6aa9acb00a3de2c4c29ca9081def73cf22c288eebf1d6f67d013ed6c099915f9",
          "transactionIndex": "0x0",
          "logIndex": "0x0",
          "removed": false
        }
      ],
      "logsBloom": "0x00000000100000000000000000000000008000000000000000000000000000000000000000000000000000000000000000000000000000000000000000000000000000000000000000000000000000000000000000000000000000000000000000000040000000000000000000000000000000000000000010000000440000000000000000000000000000000000000000000100000000000000000200000000000000000100000000000000000000000000000000000000000000000000000000000040000000004000000000000000000000000000000000000000000000000000000000000800000000000000000000000000000000080000080000000004",
      "type": "0x2",
      "transactionHash": "0x6aa9acb00a3de2c4c29ca9081def73cf22c288eebf1d6f67d013ed6c099915f9",
      "transactionIndex": "0x0",
      "blockHash": "0x05dbb4f0b52ccb23f2c52d1391a69cab53baad199ca0b58162c13b71faf4e7dc",
      "blockNumber": "0x10",
      "gasUsed": "0x5e8e",
      "effectiveGasPrice": "0x85d00b7",
      "blobGasPrice": "0x1",
      "from": "0xf39fd6e51aad88f6f4ce6ab8827279cfffb92266",
      "to": "0x5fbdb2315678afecb367f032d93f642f64180aa3",
      "contractAddress": null
    },
    {
      "status": "0x1",
      "cumulativeGasUsed": "0x5e8e",
      "logs": [
        {
          "address": "0x5fbdb2315678afecb367f032d93f642f64180aa3",
          "topics": [
            "0xed218afd65e8eaf426500b12bc170cf79b3b2496d94468127f79d95fb45ccae9",
            "0x000000000000000000000000cce3b4ec7681b4ecf5fd5b50e562a88a33e5137b",
            "0x0000000000000000000000000000000000000000000000000000000000000011",
            "0x000000000000000000000000840f3800136e6a8bcac3a7fe22f60543a06b6c6a"
          ],
          "data": "0x",
          "blockHash": "0xfeeb7c9f5564eef89f88741c0fa67bc6f2bc2e8c34f2e367ee500e925a920521",
          "blockNumber": "0x11",
          "blockTimestamp": "0x6791a260",
          "transactionHash": "0x4d1250eb10741b2dfb15352eb76ff3a93b6a15fa6f5f93d5f2998dd7a5470dfb",
          "transactionIndex": "0x0",
          "logIndex": "0x0",
          "removed": false
        }
      ],
      "logsBloom": "0x00000000000000000000000000000000008000000000000000000000000000000020000000000000000000000000000000000000000000000000000000000000000000000000000000000000000000000000000000000000000000000000000000000040000000000000000000000000000000004000000010000000400000000000000000000000000000000000000004000000000000000000000200000000000000000000000000000000000000000000000000000000000000000400000000001040000000000000000000000000000000000000000000000000000000000000000000000800000000000080000000000000000000080000000000000004",
      "type": "0x2",
      "transactionHash": "0x4d1250eb10741b2dfb15352eb76ff3a93b6a15fa6f5f93d5f2998dd7a5470dfb",
      "transactionIndex": "0x0",
      "blockHash": "0xfeeb7c9f5564eef89f88741c0fa67bc6f2bc2e8c34f2e367ee500e925a920521",
      "blockNumber": "0x11",
      "gasUsed": "0x5e8e",
      "effectiveGasPrice": "0x751cf30",
      "blobGasPrice": "0x1",
      "from": "0xf39fd6e51aad88f6f4ce6ab8827279cfffb92266",
      "to": "0x5fbdb2315678afecb367f032d93f642f64180aa3",
      "contractAddress": null
    }
  ],
  "libraries": [],
  "pending": [],
  "returns": {},
  "timestamp": 1737597536,
  "chain": 31337,
  "commit": "1aabbcb"
}