{
  "transactions": [
    {
      "hash": "0x62c3bb29a01e8d18e44c966324c5571a5c5e2efcc72c0399c2ed6aee6df7ae1d",
      "transactionType": "CALL",
      "contractName": null,
      "contractAddress": "0x5fbdb2315678afecb367f032d93f642f64180aa3",
      "function": "emitOperatorRegistered(address,address,address)",
      "arguments": [
        "0xCf593639B34CaE0ea3217dA27014ab5FbBAc8342",
        "0xCf593639B34CaE0ea3217dA27014ab5FbBAc8342",
        "0x840F3800136e6a8BCAC3A7FE22f60543A06b6c6a"
      ],
      "transaction": {
        "from": "0xf39fd6e51aad88f6f4ce6ab8827279cfffb92266",
        "to": "0x5fbdb2315678afecb367f032d93f642f64180aa3",
        "gas": "0x87f7",
        "value": "0x0",
        "input": "0x1f76bdd8000000000000000000000000cf593639b34cae0ea3217da27014ab5fbbac8342000000000000000000000000cf593639b34cae0ea3217da27014ab5fbbac8342000000000000000000000000840f3800136e6a8bcac3a7fe22f60543a06b6c6a",
        "nonce": "0x2",
        "chainId": "0x7a69"
      },
      "additionalContracts": [],
      "isFixedGasLimit": false
    },
    {
      "hash": "0x327de01069c5fa8a3dd3371fce0c9cc2b8a6608c4a198557939ccd417d239092",
      "transactionType": "CALL",
      "contractName": null,
      "contractAddress": "0x5fbdb2315678afecb367f032d93f642f64180aa3",
      "function": "emitOperatorRegistered(address,address,address)",
      "arguments": [
        "0xFE6B5379E861C79dB03eb3a01F3F1892FC4141D5",
        "0xFE6B5379E861C79dB03eb3a01F3F1892FC4141D5",
        "0x840F3800136e6a8BCAC3A7FE22f60543A06b6c6a"
      ],
      "transaction": {
        "from": "0xf39fd6e51aad88f6f4ce6ab8827279cfffb92266",
        "to": "0x5fbdb2315678afecb367f032d93f642f64180aa3",
        "gas": "0x87f7",
        "value": "0x0",
        "input": "0x1f76bdd8000000000000000000000000fe6b5379e861c79db03eb3a01f3f1892fc4141d5000000000000000000000000fe6b5379e861c79db03eb3a01f3f1892fc4141d5000000000000000000000000840f3800136e6a8bcac3a7fe22f60543a06b6c6a",
        "nonce": "0x3",
        "chainId": "0x7a69"
      },
      "additionalContracts": [],
      "isFixedGasLimit": false
    },
    {
      "hash": "0x9f22f7c323266aaee1cc85eb527343ce8226a8bf7f296e2b80b236ac0400debf",
      "transactionType": "CALL",
      "contractName": null,
      "contractAddress": "0x5fbdb2315678afecb367f032d93f642f64180aa3",
      "function": "emitOperatorRegistered(address,address,address)",
      "arguments": [
        "0xCCE3B4EC7681B4EcF5fD5b50e562A88a33E5137B",
        "0xCCE3B4EC7681B4EcF5fD5b50e562A88a33E5137B",
        "0x840F3800136e6a8BCAC3A7FE22f60543A06b6c6a"
      ],
      "transaction": {
        "from": "0xf39fd6e51aad88f6f4ce6ab8827279cfffb92266",
        "to": "0x5fbdb2315678afecb367f032d93f642f64180aa3",
        "gas": "0x87f7",
        "value": "0x0",
        "input": "0x1f76bdd8000000000000000000000000cce3b4ec7681b4ecf5fd5b50e562a88a33e5137b000000000000000000000000cce3b4ec7681b4ecf5fd5b50e562a88a33e5137b000000000000000000000000840f3800136e6a8bcac3a7fe22f60543a06b6c6a",
        "nonce": "0x4",
        "chainId": "0x7a69"
      },
      "additionalContracts": [],
      "isFixedGasLimit": false
    }
  ],
  "receipts": [
    {
      "status": "0x1",
      "cumulativeGasUsed": "0x6270",
      "logs": [
        {
          "address": "0x5fbdb2315678afecb367f032d93f642f64180aa3",
          "topics": [
            "0x2cc12af15d607deb355aaef5caeae8ce4ee3e0e82b5730cf3af743ed51c51c89",
            "0x000000000000000000000000cf593639b34cae0ea3217da27014ab5fbbac8342",
            "0x0000000000000000000000000000000000000000000000000000000000000003",
            "0x000000000000000000000000cf593639b34cae0ea3217da27014ab5fbbac8342"
          ],
          "data": "0x0000000000000000000000000000000000000000000000000000000067905418000000000000000000000000840f3800136e6a8bcac3a7fe22f60543a06b6c6a",
          "blockHash": "0xf8d2da06cac13ac2698654d92e50e8e7e51bb573e077c568f34d6d76ad41cc31",
          "blockNumber": "0x3",
          "blockTimestamp": "0x67905418",
          "transactionHash": "0x62c3bb29a01e8d18e44c966324c5571a5c5e2efcc72c0399c2ed6aee6df7ae1d",
          "transactionIndex": "0x0",
          "logIndex": "0x0",
          "removed": false
        }
      ],
      "logsBloom": "0x00000000000000000000000000000000000000000000000000000000290000000000000004000000000000000000000000000000020000000000000000000000000000000000000000000000000000000000000000000000000000000000000000000040000000000000000000000000000000000000000000000000004000000000000000000000000000000000000000000000000000000000000200000000000000000000000000000000000000000000000000800000000000000000400000000040000000000000000000000000000000000000002000000000000000000000000000000000000000000000000000000000000000000000000000000000",
      "type": "0x2",
      "transactionHash": "0x62c3bb29a01e8d18e44c966324c5571a5c5e2efcc72c0399c2ed6aee6df7ae1d",
      "transactionIndex": "0x0",
      "blockHash": "0xf8d2da06cac13ac2698654d92e50e8e7e51bb573e077c568f34d6d76ad41cc31",
      "blockNumber": "0x3",
      "gasUsed": "0x6270",
      "effectiveGasPrice": "0x2df4b99a",
      "blobGasPrice": "0x1",
      "from": "0xf39fd6e51aad88f6f4ce6ab8827279cfffb92266",
      "to": "0x5fbdb2315678afecb367f032d93f642f64180aa3",
      "contractAddress": null
    },
    {
      "status": "0x1",
      "cumulativeGasUsed": "0x6270",
      "logs": [
        {
          "address": "0x5fbdb2315678afecb367f032d93f642f64180aa3",
          "topics": [
            "0x2cc12af15d607deb355aaef5caeae8ce4ee3e0e82b5730cf3af743ed51c51c89",
            "0x000000000000000000000000fe6b5379e861c79db03eb3a01f3f1892fc4141d5",
            "0x0000000000000000000000000000000000000000000000000000000000000004",
            "0x000000000000000000000000fe6b5379e861c79db03eb3a01f3f1892fc4141d5"
          ],
          "data": "0x0000000000000000000000000000000000000000000000000000000067905418000000000000000000000000840f3800136e6a8bcac3a7fe22f60543a06b6c6a",
          "blockHash": "0x3467a6e918d8511f83ac90720a20cf1971270ba0fdd62b55b8687ff9b9567b7a",
          "blockNumber": "0x4",
          "blockTimestamp": "0x67905418",
          "transactionHash": "0x327de01069c5fa8a3dd3371fce0c9cc2b8a6608c4a198557939ccd417d239092",
          "transactionIndex": "0x0",
          "logIndex": "0x0",
          "removed": false
        }
      ],
      "logsBloom": "0x00000000000000000000000000000000000000000000000000000000080000000000000004000000000000000000000000000000000000000000000000000000000000000000000000000000000000000000000000000000000000000000000008000040000000000000000000000000000000000000000000000000000000000000000000000000000000000000000000000000000000000000000200000000000000000100000000000000000000000000000000000000002000000000000000000040000000004000000000000000000000008000002000000000000000000000000000000000000000000000000000000000000000000000080000000000",
      "type": "0x2",
      "transactionHash": "0x327de01069c5fa8a3dd3371fce0c9cc2b8a6608c4a198557939ccd417d239092",
      "transactionIndex": "0x0",
      "blockHash": "0x3467a6e918d8511f83ac90720a20cf1971270ba0fdd62b55b8687ff9b9567b7a",
      "blockNumber": "0x4",
      "gasUsed": "0x6270",
      "effectiveGasPrice": "0x28389ae0",
      "blobGasPrice": "0x1",
      "from": "0xf39fd6e51aad88f6f4ce6ab8827279cfffb92266",
      "to": "0x5fbdb2315678afecb367f032d93f642f64180aa3",
      "contractAddress": null
    },
    {
      "status": "0x1",
      "cumulativeGasUsed": "0x6270",
      "logs": [
        {
          "address": "0x5fbdb2315678afecb367f032d93f642f64180aa3",
          "topics": [
            "0x2cc12af15d607deb355aaef5caeae8ce4ee3e0e82b5730cf3af743ed51c51c89",
            "0x000000000000000000000000cce3b4ec7681b4ecf5fd5b50e562a88a33e5137b",
            "0x0000000000000000000000000000000000000000000000000000000000000005",
            "0x000000000000000000000000cce3b4ec7681b4ecf5fd5b50e562a88a33e5137b"
          ],
          "data": "0x0000000000000000000000000000000000000000000000000000000067905418000000000000000000000000840f3800136e6a8bcac3a7fe22f60543a06b6c6a",
          "blockHash": "0x7c364d287aaaa4dbbaefa87e78f42ee8bcd7358829d5beaf477294d8d34df1b1",
          "blockNumber": "0x5",
          "blockTimestamp": "0x67905418",
          "transactionHash": "0x9f22f7c323266aaee1cc85eb527343ce8226a8bf7f296e2b80b236ac0400debf",
          "transactionIndex": "0x0",
          "logIndex": "0x0",
          "removed": false
        }
      ],
      "logsBloom": "0x00000000000000000000000000000000000000000000000000000000080000000020000004000000000000000000000000000000000000000000000000000000000010000000000000000000000000000000000000000000000000000000000000000040000000000000000000000000000000000000000000000000000000000000000000000000000000000000001004000800000000000000000200000000000000000000000000000000000000000000000000000000000000000000000000000040000000000000000000000000000000000000002000000000000000000000000000000000000000000080000000000000000000000000000000000000",
      "type": "0x2",
      "transactionHash": "0x9f22f7c323266aaee1cc85eb527343ce8226a8bf7f296e2b80b236ac0400debf",
      "transactionIndex": "0x0",
      "blockHash": "0x7c364d287aaaa4dbbaefa87e78f42ee8bcd7358829d5beaf477294d8d34df1b1",
      "blockNumber": "0x5",
      "gasUsed": "0x6270",
      "effectiveGasPrice": "0x2333b110",
      "blobGasPrice": "0x1",
      "from": "0xf39fd6e51aad88f6f4ce6ab8827279cfffb92266",
      "to": "0x5fbdb2315678afecb367f032d93f642f64180aa3",
      "contractAddress": null
    }
  ],
  "libraries": [],
  "pending": [],
  "returns": {},
  "timestamp": 1737511960,
  "chain": 31337,
  "commit": "5f0c01e"
}