{
  "transactions": [
    {
      "hash": "0x8c4d5b348b35884d019653abff54a4ab86fb0ba3d79022b0f86b919cae24a522",
      "transactionType": "CALL",
      "contractName": null,
      "contractAddress": "0x5fbdb2315678afecb367f032d93f642f64180aa3",
      "function": "emitOperatorRegistered(address,address,address)",
      "arguments": [
        "0xCf593639B34CaE0ea3217dA27014ab5FbBAc8342",
        "0xCf593639B34CaE0ea3217dA27014ab5FbBAc8342",
        "0x840F3800136e6a8BCAC3A7FE22f60543A06b6c6a"
      ],
      "transaction": {
        "from": "0xf39fd6e51aad88f6f4ce6ab8827279cfffb92266",
        "to": "0x5fbdb2315678afecb367f032d93f642f64180aa3",
        "gas": "0x87f4",
        "value": "0x0",
        "input": "0x1f76bdd8000000000000000000000000cf593639b34cae0ea3217da27014ab5fbbac8342000000000000000000000000cf593639b34cae0ea3217da27014ab5fbbac8342000000000000000000000000840f3800136e6a8bcac3a7fe22f60543a06b6c6a",
        "nonce": "0x2",
        "chainId": "0x7a69"
      },
      "additionalContracts": [],
      "isFixedGasLimit": false
    },
    {
      "hash": "0x7a21fd0bef87e950ab503f7894306d8dee2bd4f49f4ca4740bab897c2df2b2f0",
      "transactionType": "CALL",
      "contractName": null,
      "contractAddress": "0x5fbdb2315678afecb367f032d93f642f64180aa3",
      "function": "emitOperatorRegistered(address,address,address)",
      "arguments": [
        "0xFE6B5379E861C79dB03eb3a01F3F1892FC4141D5",
        "0xFE6B5379E861C79dB03eb3a01F3F1892FC4141D5",
        "0x840F3800136e6a8BCAC3A7FE22f60543A06b6c6a"
      ],
      "transaction": {
        "from": "0xf39fd6e51aad88f6f4ce6ab8827279cfffb92266",
        "to": "0x5fbdb2315678afecb367f032d93f642f64180aa3",
        "gas": "0x87f4",
        "value": "0x0",
        "input": "0x1f76bdd8000000000000000000000000fe6b5379e861c79db03eb3a01f3f1892fc4141d5000000000000000000000000fe6b5379e861c79db03eb3a01f3f1892fc4141d5000000000000000000000000840f3800136e6a8bcac3a7fe22f60543a06b6c6a",
        "nonce": "0x3",
        "chainId": "0x7a69"
      },
      "additionalContracts": [],
      "isFixedGasLimit": false
    },
    {
      "hash": "0x45788a52fa863607f24df4b0dfa3f0e185f362e0800d3961a63ec27694018c24",
      "transactionType": "CALL",
      "contractName": null,
      "contractAddress": "0x5fbdb2315678afecb367f032d93f642f64180aa3",
      "function": "emitOperatorRegistered(address,address,address)",
      "arguments": [
        "0xCCE3B4EC7681B4EcF5fD5b50e562A88a33E5137B",
        "0xCCE3B4EC7681B4EcF5fD5b50e562A88a33E5137B",
        "0x840F3800136e6a8BCAC3A7FE22f60543A06b6c6a"
      ],
      "transaction": {
        "from": "0xf39fd6e51aad88f6f4ce6ab8827279cfffb92266",
        "to": "0x5fbdb2315678afecb367f032d93f642f64180aa3",
        "gas": "0x87f4",
        "value": "0x0",
        "input": "0x1f76bdd8000000000000000000000000cce3b4ec7681b4ecf5fd5b50e562a88a33e5137b000000000000000000000000cce3b4ec7681b4ecf5fd5b50e562a88a33e5137b000000000000000000000000840f3800136e6a8bcac3a7fe22f60543a06b6c6a",
        "nonce": "0x4",
        "chainId": "0x7a69"
      },
      "additionalContracts": [],
      "isFixedGasLimit": false
    }
  ],
  "receipts": [
    {
      "status": "0x1",
      "cumulativeGasUsed": "0x626f",
      "logs": [
        {
          "address": "0x5fbdb2315678afecb367f032d93f642f64180aa3",
          "topics": [
            "0x2cc12af15d607deb355aaef5caeae8ce4ee3e0e82b5730cf3af743ed51c51c89",
            "0x000000000000000000000000cf593639b34cae0ea3217da27014ab5fbbac8342",
            "0x0000000000000000000000000000000000000000000000000000000000000003",
            "0x000000000000000000000000cf593639b34cae0ea3217da27014ab5fbbac8342"
          ],
          "data": "0x00000000000000000000000000000000000000000000000000000000678b605a000000000000000000000000840f3800136e6a8bcac3a7fe22f60543a06b6c6a",
          "blockHash": "0x39b95e15fbe39043ace706db440ff4f803014d0d3d3e7ddeb364e87f51cecab0",
          "blockNumber": "0x3",
          "blockTimestamp": "0x678b605a",
          "transactionHash": "0x8c4d5b348b35884d019653abff54a4ab86fb0ba3d79022b0f86b919cae24a522",
          "transactionIndex": "0x0",
          "logIndex": "0x0",
          "removed": false
        }
      ],
      "logsBloom": "0x00000000000000000000000000000000000000000000000000000000290000000000000004000000000000000000000000000000020000000000000000000000000000000000000000000000000000000000000000000000000000000000000000000040000000000000000000000000000000000000000000000000004000000000000000000000000000000000000000000000000000000000000200000000000000000000000000000000000000000000000000800000000000000000400000000040000000000000000000000000000000000000002000000000000000000000000000000000000000000000000000000000000000000000000000000000",
      "type": "0x2",
      "transactionHash": "0x8c4d5b348b35884d019653abff54a4ab86fb0ba3d79022b0f86b919cae24a522",
      "transactionIndex": "0x0",
      "blockHash": "0x39b95e15fbe39043ace706db440ff4f803014d0d3d3e7ddeb364e87f51cecab0",
      "blockNumber": "0x3",
      "gasUsed": "0x626f",
      "effectiveGasPrice": "0x2de32554",
      "blobGasPrice": "0x1",
      "from": "0xf39fd6e51aad88f6f4ce6ab8827279cfffb92266",
      "to": "0x5fbdb2315678afecb367f032d93f642f64180aa3",
      "contractAddress": null
    },
    {
      "status": "0x1",
      "cumulativeGasUsed": "0x626f",
      "logs": [
        {
          "address": "0x5fbdb2315678afecb367f032d93f642f64180aa3",
          "topics": [
            "0x2cc12af15d607deb355aaef5caeae8ce4ee3e0e82b5730cf3af743ed51c51c89",
            "0x000000000000000000000000fe6b5379e861c79db03eb3a01f3f1892fc4141d5",
            "0x0000000000000000000000000000000000000000000000000000000000000004",
            "0x000000000000000000000000fe6b5379e861c79db03eb3a01f3f1892fc4141d5"
          ],
          "data": "0x00000000000000000000000000000000000000000000000000000000678b605a000000000000000000000000840f3800136e6a8bcac3a7fe22f60543a06b6c6a",
          "blockHash": "0xcbeceab6b164c63e375eb3bbad198f6d7127cca3aa13af902291994152495ba0",
          "blockNumber": "0x4",
          "blockTimestamp": "0x678b605a",
          "transactionHash": "0x7a21fd0bef87e950ab503f7894306d8dee2bd4f49f4ca4740bab897c2df2b2f0",
          "transactionIndex": "0x0",
          "logIndex": "0x0",
          "removed": false
        }
      ],
      "logsBloom": "0x00000000000000000000000000000000000000000000000000000000080000000000000004000000000000000000000000000000000000000000000000000000000000000000000000000000000000000000000000000000000000000000000008000040000000000000000000000000000000000000000000000000000000000000000000000000000000000000000000000000000000000000000200000000000000000100000000000000000000000000000000000000002000000000000000000040000000004000000000000000000000008000002000000000000000000000000000000000000000000000000000000000000000000000080000000000",
      "type": "0x2",
      "transactionHash": "0x7a21fd0bef87e950ab503f7894306d8dee2bd4f49f4ca4740bab897c2df2b2f0",
      "transactionIndex": "0x0",
      "blockHash": "0xcbeceab6b164c63e375eb3bbad198f6d7127cca3aa13af902291994152495ba0",
      "blockNumber": "0x4",
      "gasUsed": "0x626f",
      "effectiveGasPrice": "0x2829382b",
      "blobGasPrice": "0x1",
      "from": "0xf39fd6e51aad88f6f4ce6ab8827279cfffb92266",
      "to": "0x5fbdb2315678afecb367f032d93f642f64180aa3",
      "contractAddress": null
    },
    {
      "status": "0x1",
      "cumulativeGasUsed": "0x626f",
      "logs": [
        {
          "address": "0x5fbdb2315678afecb367f032d93f642f64180aa3",
          "topics": [
            "0x2cc12af15d607deb355aaef5caeae8ce4ee3e0e82b5730cf3af743ed51c51c89",
            "0x000000000000000000000000cce3b4ec7681b4ecf5fd5b50e562a88a33e5137b",
            "0x0000000000000000000000000000000000000000000000000000000000000005",
            "0x000000000000000000000000cce3b4ec7681b4ecf5fd5b50e562a88a33e5137b"
          ],
          "data": "0x00000000000000000000000000000000000000000000000000000000678b605a000000000000000000000000840f3800136e6a8bcac3a7fe22f60543a06b6c6a",
          "blockHash": "0x09ff235176128b407e4c65021c7708c272e81fb4034436d72d765b8502a66ea2",
          "blockNumber": "0x5",
          "blockTimestamp": "0x678b605a",
          "transactionHash": "0x45788a52fa863607f24df4b0dfa3f0e185f362e0800d3961a63ec27694018c24",
          "transactionIndex": "0x0",
          "logIndex": "0x0",
          "removed": false
        }
      ],
      "logsBloom": "0x00000000000000000000000000000000000000000000000000000000080000000020000004000000000000000000000000000000000000000000000000000000000010000000000000000000000000000000000000000000000000000000000000000040000000000000000000000000000000000000000000000000000000000000000000000000000000000000001004000800000000000000000200000000000000000000000000000000000000000000000000000000000000000000000000000040000000000000000000000000000000000000002000000000000000000000000000000000000000000080000000000000000000000000000000000000",
      "type": "0x2",
      "transactionHash": "0x45788a52fa863607f24df4b0dfa3f0e185f362e0800d3961a63ec27694018c24",
      "transactionIndex": "0x0",
      "blockHash": "0x09ff235176128b407e4c65021c7708c272e81fb4034436d72d765b8502a66ea2",
      "blockNumber": "0x5",
      "gasUsed": "0x626f",
      "effectiveGasPrice": "0x232639d9",
      "blobGasPrice": "0x1",
      "from": "0xf39fd6e51aad88f6f4ce6ab8827279cfffb92266",
      "to": "0x5fbdb2315678afecb367f032d93f642f64180aa3",
      "contractAddress": null
    }
  ],
  "libraries": [],
  "pending": [],
  "returns": {},
  "timestamp": 1737187418,
  "chain": 31337,
  "commit": "eb746d6"
}