{
  "transactions": [
    {
      "hash": "0x421723a3d35c737e80450d4720e6e9a7279115160bb0619a3e019f9aa1881226",
      "transactionType": "CALL",
      "contractName": null,
      "contractAddress": "0x5fbdb2315678afecb367f032d93f642f64180aa3",
      "function": "emitOperatorRegistered(address,address,address)",
      "arguments": [
        "0x961DD7fb2CFF646Fd8958405B050559c94BC01DF",
        "0xBf0a67B5F55eBCF49273F5a59991450AE54EeA82",
        "0x840F3800136e6a8BCAC3A7FE22f60543A06b6c6a"
      ],
      "transaction": {
        "from": "0xf39fd6e51aad88f6f4ce6ab8827279cfffb92266",
        "to": "0x5fbdb2315678afecb367f032d93f642f64180aa3",
        "gas": "0x8ffa",
        "value": "0x0",
        "input": "0x1f76bdd8000000000000000000000000961dd7fb2cff646fd8958405b050559c94bc01df000000000000000000000000bf0a67b5f55ebcf49273f5a59991450ae54eea82000000000000000000000000840f3800136e6a8bcac3a7fe22f60543a06b6c6a",
        "nonce": "0x2",
        "chainId": "0x7a69"
      },
      "additionalContracts": [],
      "isFixedGasLimit": false
    },
    {
      "hash": "0x5c20c82ecb671e50abaee71b16dc6b0a47e95c0d49973860b3056c2e2a5a14ed",
      "transactionType": "CALL",
      "contractName": null,
      "contractAddress": "0x5fbdb2315678afecb367f032d93f642f64180aa3",
      "function": "emitOperatorRegistered(address,address,address)",
      "arguments": [
        "0x204c495D35F172f9c22ACb5B8E340805DAF9482e",
        "0xE0E2533cdc5E827d6e2f0c67e43f7020bFba143b",
        "0x840F3800136e6a8BCAC3A7FE22f60543A06b6c6a"
      ],
      "transaction": {
        "from": "0xf39fd6e51aad88f6f4ce6ab8827279cfffb92266",
        "to": "0x5fbdb2315678afecb367f032d93f642f64180aa3",
        "gas": "0x8ffa",
        "value": "0x0",
        "input": "0x1f76bdd8000000000000000000000000204c495d35f172f9c22acb5b8e340805daf9482e000000000000000000000000e0e2533cdc5e827d6e2f0c67e43f7020bfba143b000000000000000000000000840f3800136e6a8bcac3a7fe22f60543a06b6c6a",
        "nonce": "0x3",
        "chainId": "0x7a69"
      },
      "additionalContracts": [],
      "isFixedGasLimit": false
    },
    {
      "hash": "0x893c4d4f653a7473632c2526f7446136d3ba44824293b797d7c28830223c290f",
      "transactionType": "CALL",
      "contractName": null,
      "contractAddress": "0x5fbdb2315678afecb367f032d93f642f64180aa3",
      "function": "emitOperatorRegistered(address,address,address)",
      "arguments": [
        "0x3A7A6Cf81Ab1167da3411b4e16DFa6B9836Ac99D",
        "0x4D3abdaa2B14343A2D2CAdF5635b8CF268c12776",
        "0x840F3800136e6a8BCAC3A7FE22f60543A06b6c6a"
      ],
      "transaction": {
        "from": "0xf39fd6e51aad88f6f4ce6ab8827279cfffb92266",
        "to": "0x5fbdb2315678afecb367f032d93f642f64180aa3",
        "gas": "0x8ffa",
        "value": "0x0",
        "input": "0x1f76bdd80000000000000000000000003a7a6cf81ab1167da3411b4e16dfa6b9836ac99d0000000000000000000000004d3abdaa2b14343a2d2cadf5635b8cf268c12776000000000000000000000000840f3800136e6a8bcac3a7fe22f60543a06b6c6a",
        "nonce": "0x4",
        "chainId": "0x7a69"
      },
      "additionalContracts": [],
      "isFixedGasLimit": false
    },
    {
      "hash": "0xabe83ecbd17ced83eb0c3ba0f9541a46756e57c83dbc8300011ba23b31708931",
      "transactionType": "CALL",
      "contractName": null,
      "contractAddress": "0x5fbdb2315678afecb367f032d93f642f64180aa3",
      "function": "emitOperatorRegistered(address,address,address)",
      "arguments": [
        "0xbA7cAa435012d85f52ec8c806afc483397e9F84e",
        "0x2De43EFCbD2740D4caE1f2789E028ea0d84B3169",
        "0x840F3800136e6a8BCAC3A7FE22f60543A06b6c6a"
      ],
      "transaction": {
        "from": "0xf39fd6e51aad88f6f4ce6ab8827279cfffb92266",
        "to": "0x5fbdb2315678afecb367f032d93f642f64180aa3",
        "gas": "0x8ffa",
        "value": "0x0",
        "input": "0x1f76bdd8000000000000000000000000ba7caa435012d85f52ec8c806afc483397e9f84e0000000000000000000000002de43efcbd2740d4cae1f2789e028ea0d84b3169000000000000000000000000840f3800136e6a8bcac3a7fe22f60543a06b6c6a",
        "nonce": "0x5",
        "chainId": "0x7a69"
      },
      "additionalContracts": [],
      "isFixedGasLimit": false
    },
    {
      "hash": "0x810a18ce1af5ba805b92233f611dc5c0df31251d8ae3a67d51d9723e6dd70701",
      "transactionType": "CALL",
      "contractName": null,
      "contractAddress": "0x5fbdb2315678afecb367f032d93f642f64180aa3",
      "function": "emitOperatorRegistered(address,address,address)",
      "arguments": [
        "0x8A00C467EaBAB817479D96cF917A9633f0aE18A3",
        "0x239EFA362bbb82CeF72781f16544822a259A6d55",
        "0x840F3800136e6a8BCAC3A7FE22f60543A06b6c6a"
      ],
      "transaction": {
        "from": "0xf39fd6e51aad88f6f4ce6ab8827279cfffb92266",
        "to": "0x5fbdb2315678afecb367f032d93f642f64180aa3",
        "gas": "0x87ea",
        "value": "0x0",
        "input": "0x1f76bdd80000000000000000000000008a00c467eabab817479d96cf917a9633f0ae18a3000000000000000000000000239efa362bbb82cef72781f16544822a259a6d55000000000000000000000000840f3800136e6a8bcac3a7fe22f60543a06b6c6a",
        "nonce": "0x6",
        "chainId": "0x7a69"
      },
      "additionalContracts": [],
      "isFixedGasLimit": false
    }
  ],
  "receipts": [
    {
      "status": "0x1",
      "cumulativeGasUsed": "0x6273",
      "logs": [
        {
          "address": "0x5fbdb2315678afecb367f032d93f642f64180aa3",
          "topics": [
            "0x2cc12af15d607deb355aaef5caeae8ce4ee3e0e82b5730cf3af743ed51c51c89",
            "0x000000000000000000000000961dd7fb2cff646fd8958405b050559c94bc01df",
            "0x0000000000000000000000000000000000000000000000000000000000000003",
            "0x000000000000000000000000bf0a67b5f55ebcf49273f5a59991450ae54eea82"
          ],
          "data": "0x000000000000000000000000000000000000000000000000000000006785fcbd000000000000000000000000840f3800136e6a8bcac3a7fe22f60543a06b6c6a",
          "blockHash": "0xc23a136d5d874384daf48d707a22058151db5e4696b1b855ae60e4382a01f502",
          "blockNumber": "0x3",
          "blockTimestamp": "0x6785fcbd",
          "transactionHash": "0x421723a3d35c737e80450d4720e6e9a7279115160bb0619a3e019f9aa1881226",
          "transactionIndex": "0x0",
          "logIndex": "0x0",
          "removed": false
        }
      ],
      "logsBloom": "0x00000000000000004000000000000000000000000000000000000000080000000000000004000000000000000000000000000000020000000000000000000000000000000000200000000000000000000000000000000000000000000000000000000040000000000000000000000000000000000000000000800000000000000000000000000000000000000000000000000000000000000000000200000000000000000000000000000000000000000000000000800000000000000020400000000040000000080000000000000000000000000000002000000000000000000000000000000000000000000000000000000000000000000000000000000000",
      "type": "0x2",
      "transactionHash": "0x421723a3d35c737e80450d4720e6e9a7279115160bb0619a3e019f9aa1881226",
      "transactionIndex": "0x0",
      "blockHash": "0xc23a136d5d874384daf48d707a22058151db5e4696b1b855ae60e4382a01f502",
      "blockNumber": "0x3",
      "gasUsed": "0x6273",
      "effectiveGasPrice": "0x2de4bcd0",
      "blobGasPrice": "0x1",
      "from": "0xf39fd6e51aad88f6f4ce6ab8827279cfffb92266",
      "to": "0x5fbdb2315678afecb367f032d93f642f64180aa3",
      "contractAddress": null
    },
    {
      "status": "0x1",
      "cumulativeGasUsed": "0x6273",
      "logs": [
        {
          "address": "0x5fbdb2315678afecb367f032d93f642f64180aa3",
          "topics": [
            "0x2cc12af15d607deb355aaef5caeae8ce4ee3e0e82b5730cf3af743ed51c51c89",
            "0x000000000000000000000000204c495d35f172f9c22acb5b8e340805daf9482e",
            "0x0000000000000000000000000000000000000000000000000000000000000004",
            "0x000000000000000000000000e0e2533cdc5e827d6e2f0c67e43f7020bfba143b"
          ],
          "data": "0x000000000000000000000000000000000000000000000000000000006785fcbd000000000000000000000000840f3800136e6a8bcac3a7fe22f60543a06b6c6a",
          "blockHash": "0xb6b1a1c46852339fe352daff8900f6de129cbd1c60b073e4fd7d1bcc518e3954",
          "blockNumber": "0x4",
          "blockTimestamp": "0x6785fcbd",
          "transactionHash": "0x5c20c82ecb671e50abaee71b16dc6b0a47e95c0d49973860b3056c2e2a5a14ed",
          "transactionIndex": "0x0",
          "logIndex": "0x0",
          "removed": false
        }
      ],
      "logsBloom": "0x00000000000000000000100000000000020000000000000000000000080000000000000004000000000000000000000000000000000000000000000000000000000000000000000000000000000000080000000000000000000000000000000008000040000000000000000000000000000000000000000000000000000000000000000000000000000000000000000000000000000000000000000200001000000000000000000000000000000200000000000000004000002000000000000000000040000000000000000000000000000000008000002000000000000000000000000000000000000000000000000000000000000000000000000000000000",
      "type": "0x2",
      "transactionHash": "0x5c20c82ecb671e50abaee71b16dc6b0a47e95c0d49973860b3056c2e2a5a14ed",
      "transactionIndex": "0x0",
      "blockHash": "0xb6b1a1c46852339fe352daff8900f6de129cbd1c60b073e4fd7d1bcc518e3954",
      "blockNumber": "0x4",
      "gasUsed": "0x6273",
      "effectiveGasPrice": "0x282a9ce7",
      "blobGasPrice": "0x1",
      "from": "0xf39fd6e51aad88f6f4ce6ab8827279cfffb92266",
      "to": "0x5fbdb2315678afecb367f032d93f642f64180aa3",
      "contractAddress": null
    },
    {
      "status": "0x1",
      "cumulativeGasUsed": "0x6273",
      "logs": [
        {
          "address": "0x5fbdb2315678afecb367f032d93f642f64180aa3",
          "topics": [
            "0x2cc12af15d607deb355aaef5caeae8ce4ee3e0e82b5730cf3af743ed51c51c89",
            "0x0000000000000000000000003a7a6cf81ab1167da3411b4e16dfa6b9836ac99d",
            "0x0000000000000000000000000000000000000000000000000000000000000005",
            "0x0000000000000000000000004d3abdaa2b14343a2d2cadf5635b8cf268c12776"
          ],
          "data": "0x000000000000000000000000000000000000000000000000000000006785fcbd000000000000000000000000840f3800136e6a8bcac3a7fe22f60543a06b6c6a",
          "blockHash": "0xe9a0f44a5e67c678c97c648aa8d01e6b33777aa4d391fdcd8cd884ecf91ba4b0",
          "blockNumber": "0x5",
          "blockTimestamp": "0x6785fcbd",
          "transactionHash": "0x893c4d4f653a7473632c2526f7446136d3ba44824293b797d7c28830223c290f",
          "transactionIndex": "0x0",
          "logIndex": "0x0",
          "removed": false
        }
      ],
      "logsBloom": "0x00000000000000000000000000001000000000000000000010000000080000000000000004000000000000000000000000000000000000000000000000000000000030000000000000000000000000000000000000000000000000000000000000000040000000000000000000000000000000000000000000000000000000000000000000000000000000000000001000000800000000000000000200000000000000000000000000000000000000100000000000000000000000000000000002000040000000000000000000000000000000000000002000000000000000000000800000000000000000000000000000000000000000000000000000000000",
      "type": "0x2",
      "transactionHash": "0x893c4d4f653a7473632c2526f7446136d3ba44824293b797d7c28830223c290f",
      "transactionIndex": "0x0",
      "blockHash": "0xe9a0f44a5e67c678c97c648aa8d01e6b33777aa4d391fdcd8cd884ecf91ba4b0",
      "blockNumber": "0x5",
      "gasUsed": "0x6273",
      "effectiveGasPrice": "0x23277227",
      "blobGasPrice": "0x1",
      "from": "0xf39fd6e51aad88f6f4ce6ab8827279cfffb92266",
      "to": "0x5fbdb2315678afecb367f032d93f642f64180aa3",
      "contractAddress": null
    },
    {
      "status": "0x1",
      "cumulativeGasUsed": "0x6273",
      "logs": [
        {
          "address": "0x5fbdb2315678afecb367f032d93f642f64180aa3",
          "topics": [
            "0x2cc12af15d607deb355aaef5caeae8ce4ee3e0e82b5730cf3af743ed51c51c89",
            "0x000000000000000000000000ba7caa435012d85f52ec8c806afc483397e9f84e",
            "0x0000000000000000000000000000000000000000000000000000000000000006",
            "0x0000000000000000000000002de43efcbd2740d4cae1f2789e028ea0d84b3169"
          ],
          "data": "0x000000000000000000000000000000000000000000000000000000006785fcbd000000000000000000000000840f3800136e6a8bcac3a7fe22f60543a06b6c6a",
          "blockHash": "0xfba3aa1285b33f6739d7e627091441c9ab84f6db6240d130ab6fd430f0d6bf9c",
          "blockNumber": "0x6",
          "blockTimestamp": "0x6785fcbd",
          "transactionHash": "0xabe83ecbd17ced83eb0c3ba0f9541a46756e57c83dbc8300011ba23b31708931",
          "transactionIndex": "0x0",
          "logIndex": "0x0",
          "removed": false
        }
      ],
      "logsBloom": "0x00000000000000000000000000000000000000000000000000000020080000000000002004000000000000000000000000000000000400000000000000000000000000000000000000000000000000000000000000000000000000000000000000000040000000000000000000000000000400000000000000000000000000000000000400000000000000000008000000000000800000000000800200000000000000000000000000000000000000000000000000000000000000080000000000000040000000000000000000000000000000000000002000000000000000000000000000000000000000000000000000000000000000000000000000000000",
      "type": "0x2",
      "transactionHash": "0xabe83ecbd17ced83eb0c3ba0f9541a46756e57c83dbc8300011ba23b31708931",
      "transactionIndex": "0x0",
      "blockHash": "0xfba3aa1285b33f6739d7e627091441c9ab84f6db6240d130ab6fd430f0d6bf9c",
      "blockNumber": "0x6",
      "gasUsed": "0x6273",
      "effectiveGasPrice": "0x1ec467c1",
      "blobGasPrice": "0x1",
      "from": "0xf39fd6e51aad88f6f4ce6ab8827279cfffb92266",
      "to": "0x5fbdb2315678afecb367f032d93f642f64180aa3",
      "contractAddress": null
    },
    {
      "status": "0x1",
      "cumulativeGasUsed": "0x6267",
      "logs": [
        {
          "address": "0x5fbdb2315678afecb367f032d93f642f64180aa3",
          "topics": [
            "0x2cc12af15d607deb355aaef5caeae8ce4ee3e0e82b5730cf3af743ed51c51c89",
            "0x0000000000000000000000008a00c467eabab817479d96cf917a9633f0ae18a3",
            "0x0000000000000000000000000000000000000000000000000000000000000007",
            "0x000000000000000000000000239efa362bbb82cef72781f16544822a259a6d55"
          ],
          "data": "0x000000000000000000000000000000000000000000000000000000006785fcbd000000000000000000000000840f3800136e6a8bcac3a7fe22f60543a06b6c6a",
          "blockHash": "0x50d5dbf0fbd57a15d6b3568730ebfb3f4f9a2d41d3360cb5cb0b976f9962041d",
          "blockNumber": "0x7",
          "blockTimestamp": "0x6785fcbd",
          "transactionHash": "0x810a18ce1af5ba805b92233f611dc5c0df31251d8ae3a67d51d9723e6dd70701",
          "transactionIndex": "0x0",
          "logIndex": "0x0",
          "removed": false
        }
      ],
      "logsBloom": "0x00000000000000000000000000000000000000000000000000000000080000000000000004000000000000000000000000001000000000000000000000000000000420000000000000000000000000000000000000000000000000000000000000000040000000000000000000000000000000000000000000000000000000000000000000000000000000000000000000000000000000000000000200000000000000000000000000000000000000000000000000000000040000000000000000000840000000000000000000000000000000000000002000000100000020000000800000000000000000000000000000002000000000000000000000000000",
      "type": "0x2",
      "transactionHash": "0x810a18ce1af5ba805b92233f611dc5c0df31251d8ae3a67d51d9723e6dd70701",
      "transactionIndex": "0x0",
      "blockHash": "0x50d5dbf0fbd57a15d6b3568730ebfb3f4f9a2d41d3360cb5cb0b976f9962041d",
      "blockNumber": "0x7",
      "gasUsed": "0x6267",
      "effectiveGasPrice": "0x1aed8246",
      "blobGasPrice": "0x1",
      "from": "0xf39fd6e51aad88f6f4ce6ab8827279cfffb92266",
      "to": "0x5fbdb2315678afecb367f032d93f642f64180aa3",
      "contractAddress": null
    }
  ],
  "libraries": [],
  "pending": [],
  "returns": {},
  "timestamp": 1736834237,
  "chain": 31337,
  "commit": "de43dca"
}