{
  "transactions": [
    {
      "hash": "0xfc49b23174361f9384ccd66a2b68137aca742fc531c5519f7a5e2995d69eb1f6",
      "transactionType": "CALL",
      "contractName": null,
      "contractAddress": "0x5fbdb2315678afecb367f032d93f642f64180aa3",
      "function": "emitOperatorRegistered(address,address,address)",
      "arguments": [
        "0x961DD7fb2CFF646Fd8958405B050559c94BC01DF",
        "0xBf0a67B5F55eBCF49273F5a59991450AE54EeA82",
        "0x840F3800136e6a8BCAC3A7FE22f60543A06b6c6a"
      ],
      "transaction": {
        "from": "0xf39fd6e51aad88f6f4ce6ab8827279cfffb92266",
        "to": "0x5fbdb2315678afecb367f032d93f642f64180aa3",
        "gas": "0x8ffa",
        "value": "0x0",
        "input": "0x1f76bdd8000000000000000000000000961dd7fb2cff646fd8958405b050559c94bc01df000000000000000000000000bf0a67b5f55ebcf49273f5a59991450ae54eea82000000000000000000000000840f3800136e6a8bcac3a7fe22f60543a06b6c6a",
        "nonce": "0x1",
        "chainId": "0x7a69"
      },
      "additionalContracts": [],
      "isFixedGasLimit": false
    },
    {
      "hash": "0xf1c2e38f0856612d4b71e645c34e190f84c121b131d52456649d12fefc485158",
      "transactionType": "CALL",
      "contractName": null,
      "contractAddress": "0x5fbdb2315678afecb367f032d93f642f64180aa3",
      "function": "emitOperatorRegistered(address,address,address)",
      "arguments": [
        "0x204c495D35F172f9c22ACb5B8E340805DAF9482e",
        "0xE0E2533cdc5E827d6e2f0c67e43f7020bFba143b",
        "0x840F3800136e6a8BCAC3A7FE22f60543A06b6c6a"
      ],
      "transaction": {
        "from": "0xf39fd6e51aad88f6f4ce6ab8827279cfffb92266",
        "to": "0x5fbdb2315678afecb367f032d93f642f64180aa3",
        "gas": "0x8ffa",
        "value": "0x0",
        "input": "0x1f76bdd8000000000000000000000000204c495d35f172f9c22acb5b8e340805daf9482e000000000000000000000000e0e2533cdc5e827d6e2f0c67e43f7020bfba143b000000000000000000000000840f3800136e6a8bcac3a7fe22f60543a06b6c6a",
        "nonce": "0x2",
        "chainId": "0x7a69"
      },
      "additionalContracts": [],
      "isFixedGasLimit": false
    },
    {
      "hash": "0x10ed7a7e0dc84edf3322f9bcb449b9901d37017e49d40339a939e4cbf91ff88b",
      "transactionType": "CALL",
      "contractName": null,
      "contractAddress": "0x5fbdb2315678afecb367f032d93f642f64180aa3",
      "function": "emitOperatorRegistered(address,address,address)",
      "arguments": [
        "0x3A7A6Cf81Ab1167da3411b4e16DFa6B9836Ac99D",
        "0x4D3abdaa2B14343A2D2CAdF5635b8CF268c12776",
        "0x840F3800136e6a8BCAC3A7FE22f60543A06b6c6a"
      ],
      "transaction": {
        "from": "0xf39fd6e51aad88f6f4ce6ab8827279cfffb92266",
        "to": "0x5fbdb2315678afecb367f032d93f642f64180aa3",
        "gas": "0x8ffa",
        "value": "0x0",
        "input": "0x1f76bdd80000000000000000000000003a7a6cf81ab1167da3411b4e16dfa6b9836ac99d0000000000000000000000004d3abdaa2b14343a2d2cadf5635b8cf268c12776000000000000000000000000840f3800136e6a8bcac3a7fe22f60543a06b6c6a",
        "nonce": "0x3",
        "chainId": "0x7a69"
      },
      "additionalContracts": [],
      "isFixedGasLimit": false
    },
    {
      "hash": "0xa2a116999d2c282fda1730747bf8f270b32f1b486e829c5e3eacf85e74c7eb15",
      "transactionType": "CALL",
      "contractName": null,
      "contractAddress": "0x5fbdb2315678afecb367f032d93f642f64180aa3",
      "function": "emitOperatorRegistered(address,address,address)",
      "arguments": [
        "0xbA7cAa435012d85f52ec8c806afc483397e9F84e",
        "0x2De43EFCbD2740D4caE1f2789E028ea0d84B3169",
        "0x840F3800136e6a8BCAC3A7FE22f60543A06b6c6a"
      ],
      "transaction": {
        "from": "0xf39fd6e51aad88f6f4ce6ab8827279cfffb92266",
        "to": "0x5fbdb2315678afecb367f032d93f642f64180aa3",
        "gas": "0x8ffa",
        "value": "0x0",
        "input": "0x1f76bdd8000000000000000000000000ba7caa435012d85f52ec8c806afc483397e9f84e0000000000000000000000002de43efcbd2740d4cae1f2789e028ea0d84b3169000000000000000000000000840f3800136e6a8bcac3a7fe22f60543a06b6c6a",
        "nonce": "0x4",
        "chainId": "0x7a69"
      },
      "additionalContracts": [],
      "isFixedGasLimit": false
    },
    {
      "hash": "0x3c18c190b588a8c572ab66c092666bf34759eaf8dfe16f6bf8a5e20dd40d71f0",
      "transactionType": "CALL",
      "contractName": null,
      "contractAddress": "0x5fbdb2315678afecb367f032d93f642f64180aa3",
      "function": "emitOperatorRegistered(address,address,address)",
      "arguments": [
        "0x8A00C467EaBAB817479D96cF917A9633f0aE18A3",
        "0x239EFA362bbb82CeF72781f16544822a259A6d55",
        "0x840F3800136e6a8BCAC3A7FE22f60543A06b6c6a"
      ],
      "transaction": {
        "from": "0xf39fd6e51aad88f6f4ce6ab8827279cfffb92266",
        "to": "0x5fbdb2315678afecb367f032d93f642f64180aa3",
        "gas": "0x87ea",
        "value": "0x0",
        "input": "0x1f76bdd80000000000000000000000008a00c467eabab817479d96cf917a9633f0ae18a3000000000000000000000000239efa362bbb82cef72781f16544822a259a6d55000000000000000000000000840f3800136e6a8bcac3a7fe22f60543a06b6c6a",
        "nonce": "0x5",
        "chainId": "0x7a69"
      },
      "additionalContracts": [],
      "isFixedGasLimit": false
    }
  ],
  "receipts": [
    {
      "status": "0x1",
      "cumulativeGasUsed": "0x6273",
      "logs": [
        {
          "address": "0x5fbdb2315678afecb367f032d93f642f64180aa3",
          "topics": [
            "0x2cc12af15d607deb355aaef5caeae8ce4ee3e0e82b5730cf3af743ed51c51c89",
            "0x000000000000000000000000961dd7fb2cff646fd8958405b050559c94bc01df",
            "0x0000000000000000000000000000000000000000000000000000000000000006",
            "0x000000000000000000000000bf0a67b5f55ebcf49273f5a59991450ae54eea82"
          ],
          "data": "0x000000000000000000000000000000000000000000000000000000006785a169000000000000000000000000840f3800136e6a8bcac3a7fe22f60543a06b6c6a",
          "blockHash": "0x50e2057f307dba1c44e255779cabb3cf6492a150d81ae033a8a931fa428ad1f4",
          "blockNumber": "0x6",
          "blockTimestamp": "0x6785a169",
          "transactionHash": "0xfc49b23174361f9384ccd66a2b68137aca742fc531c5519f7a5e2995d69eb1f6",
          "transactionIndex": "0x0",
          "logIndex": "0x0",
          "removed": false
        }
      ],
      "logsBloom": "0x00000000000000004000000000000000000000000000000000000000080000000000000004000000000000000000000000000000000400000000000000000000000000000000200000000000000000000000000000000000000000000000000000000040000000000000000000000000000000000000000000800000000000000000000400000000000000000000000000000000000000000000000200000000000000000000000000000000000000000000000000000000000000080020400000000040000000080000000000000000000000000000002000000000000000000000000000000000000000000000000000000000000000000000000000000000",
      "type": "0x2",
      "transactionHash": "0xfc49b23174361f9384ccd66a2b68137aca742fc531c5519f7a5e2995d69eb1f6",
      "transactionIndex": "0x0",
      "blockHash": "0x50e2057f307dba1c44e255779cabb3cf6492a150d81ae033a8a931fa428ad1f4",
      "blockNumber": "0x6",
      "gasUsed": "0x6273",
      "effectiveGasPrice": "0x1e9e1e3f",
      "blobGasPrice": "0x1",
      "from": "0xf39fd6e51aad88f6f4ce6ab8827279cfffb92266",
      "to": "0x5fbdb2315678afecb367f032d93f642f64180aa3",
      "contractAddress": null
    },
    {
      "status": "0x1",
      "cumulativeGasUsed": "0xc4e6",
      "logs": [
        {
          "address": "0x5fbdb2315678afecb367f032d93f642f64180aa3",
          "topics": [
            "0x2cc12af15d607deb355aaef5caeae8ce4ee3e0e82b5730cf3af743ed51c51c89",
            "0x000000000000000000000000204c495d35f172f9c22acb5b8e340805daf9482e",
            "0x0000000000000000000000000000000000000000000000000000000000000006",
            "0x000000000000000000000000e0e2533cdc5e827d6e2f0c67e43f7020bfba143b"
          ],
          "data": "0x000000000000000000000000000000000000000000000000000000006785a169000000000000000000000000840f3800136e6a8bcac3a7fe22f60543a06b6c6a",
          "blockHash": "0x50e2057f307dba1c44e255779cabb3cf6492a150d81ae033a8a931fa428ad1f4",
          "blockNumber": "0x6",
          "blockTimestamp": "0x6785a169",
          "transactionHash": "0xf1c2e38f0856612d4b71e645c34e190f84c121b131d52456649d12fefc485158",
          "transactionIndex": "0x1",
          "logIndex": "0x1",
          "removed": false
        }
      ],
      "logsBloom": "0x00000000000000000000100000000000020000000000000000000000080000000000000004000000000000000000000000000000000400000000000000000000000000000000000000000000000000080000000000000000000000000000000000000040000000000000000000000000000000000000000000000000000000000000000400000000000000000000000000000000000000000000000200001000000000000000000000000000000200000000000000004000000000080000000000000040000000000000000000000000000000000000002000000000000000000000000000000000000000000000000000000000000000000000000000000000",
      "type": "0x2",
      "transactionHash": "0xf1c2e38f0856612d4b71e645c34e190f84c121b131d52456649d12fefc485158",
      "transactionIndex": "0x1",
      "blockHash": "0x50e2057f307dba1c44e255779cabb3cf6492a150d81ae033a8a931fa428ad1f4",
      "blockNumber": "0x6",
      "gasUsed": "0x6273",
      "effectiveGasPrice": "0x1e9e1e3f",
      "blobGasPrice": "0x1",
      "from": "0xf39fd6e51aad88f6f4ce6ab8827279cfffb92266",
      "to": "0x5fbdb2315678afecb367f032d93f642f64180aa3",
      "contractAddress": null
    },
    {
      "status": "0x1",
      "cumulativeGasUsed": "0x12759",
      "logs": [
        {
          "address": "0x5fbdb2315678afecb367f032d93f642f64180aa3",
          "topics": [
            "0x2cc12af15d607deb355aaef5caeae8ce4ee3e0e82b5730cf3af743ed51c51c89",
            "0x0000000000000000000000003a7a6cf81ab1167da3411b4e16dfa6b9836ac99d",
            "0x0000000000000000000000000000000000000000000000000000000000000006",
            "0x0000000000000000000000004d3abdaa2b14343a2d2cadf5635b8cf268c12776"
          ],
          "data": "0x000000000000000000000000000000000000000000000000000000006785a169000000000000000000000000840f3800136e6a8bcac3a7fe22f60543a06b6c6a",
          "blockHash": "0x50e2057f307dba1c44e255779cabb3cf6492a150d81ae033a8a931fa428ad1f4",
          "blockNumber": "0x6",
          "blockTimestamp": "0x6785a169",
          "transactionHash": "0x10ed7a7e0dc84edf3322f9bcb449b9901d37017e49d40339a939e4cbf91ff88b",
          "transactionIndex": "0x2",
          "logIndex": "0x2",
          "removed": false
        }
      ],
      "logsBloom": "0x00000000000000000000000000001000000000000000000010000000080000000000000004000000000000000000000000000000000400000000000000000000000020000000000000000000000000000000000000000000000000000000000000000040000000000000000000000000000000000000000000000000000000000000000400000000000000000000000000000000000000000000000200000000000000000000000000000000000000100000000000000000000000080000000002000040000000000000000000000000000000000000002000000000000000000000800000000000000000000000000000000000000000000000000000000000",
      "type": "0x2",
      "transactionHash": "0x10ed7a7e0dc84edf3322f9bcb449b9901d37017e49d40339a939e4cbf91ff88b",
      "transactionIndex": "0x2",
      "blockHash": "0x50e2057f307dba1c44e255779cabb3cf6492a150d81ae033a8a931fa428ad1f4",
      "blockNumber": "0x6",
      "gasUsed": "0x6273",
      "effectiveGasPrice": "0x1e9e1e3f",
      "blobGasPrice": "0x1",
      "from": "0xf39fd6e51aad88f6f4ce6ab8827279cfffb92266",
      "to": "0x5fbdb2315678afecb367f032d93f642f64180aa3",
      "contractAddress": null
    },
    {
      "status": "0x1",
      "cumulativeGasUsed": "0x189cc",
      "logs": [
        {
          "address": "0x5fbdb2315678afecb367f032d93f642f64180aa3",
          "topics": [
            "0x2cc12af15d607deb355aaef5caeae8ce4ee3e0e82b5730cf3af743ed51c51c89",
            "0x000000000000000000000000ba7caa435012d85f52ec8c806afc483397e9f84e",
            "0x0000000000000000000000000000000000000000000000000000000000000006",
            "0x0000000000000000000000002de43efcbd2740d4cae1f2789e028ea0d84b3169"
          ],
          "data": "0x000000000000000000000000000000000000000000000000000000006785a169000000000000000000000000840f3800136e6a8bcac3a7fe22f60543a06b6c6a",
          "blockHash": "0x50e2057f307dba1c44e255779cabb3cf6492a150d81ae033a8a931fa428ad1f4",
          "blockNumber": "0x6",
          "blockTimestamp": "0x6785a169",
          "transactionHash": "0xa2a116999d2c282fda1730747bf8f270b32f1b486e829c5e3eacf85e74c7eb15",
          "transactionIndex": "0x3",
          "logIndex": "0x3",
          "removed": false
        }
      ],
      "logsBloom": "0x00000000000000000000000000000000000000000000000000000020080000000000002004000000000000000000000000000000000400000000000000000000000000000000000000000000000000000000000000000000000000000000000000000040000000000000000000000000000400000000000000000000000000000000000400000000000000000008000000000000800000000000800200000000000000000000000000000000000000000000000000000000000000080000000000000040000000000000000000000000000000000000002000000000000000000000000000000000000000000000000000000000000000000000000000000000",
      "type": "0x2",
      "transactionHash": "0xa2a116999d2c282fda1730747bf8f270b32f1b486e829c5e3eacf85e74c7eb15",
      "transactionIndex": "0x3",
      "blockHash": "0x50e2057f307dba1c44e255779cabb3cf6492a150d81ae033a8a931fa428ad1f4",
      "blockNumber": "0x6",
      "gasUsed": "0x6273",
      "effectiveGasPrice": "0x1e9e1e3f",
      "blobGasPrice": "0x1",
      "from": "0xf39fd6e51aad88f6f4ce6ab8827279cfffb92266",
      "to": "0x5fbdb2315678afecb367f032d93f642f64180aa3",
      "contractAddress": null
    },
    {
      "status": "0x1",
      "cumulativeGasUsed": "0x1ec33",
      "logs": [
        {
          "address": "0x5fbdb2315678afecb367f032d93f642f64180aa3",
          "topics": [
            "0x2cc12af15d607deb355aaef5caeae8ce4ee3e0e82b5730cf3af743ed51c51c89",
            "0x0000000000000000000000008a00c467eabab817479d96cf917a9633f0ae18a3",
            "0x0000000000000000000000000000000000000000000000000000000000000006",
            "0x000000000000000000000000239efa362bbb82cef72781f16544822a259a6d55"
          ],
          "data": "0x000000000000000000000000000000000000000000000000000000006785a169000000000000000000000000840f3800136e6a8bcac3a7fe22f60543a06b6c6a",
          "blockHash": "0x50e2057f307dba1c44e255779cabb3cf6492a150d81ae033a8a931fa428ad1f4",
          "blockNumber": "0x6",
          "blockTimestamp": "0x6785a169",
          "transactionHash": "0x3c18c190b588a8c572ab66c092666bf34759eaf8dfe16f6bf8a5e20dd40d71f0",
          "transactionIndex": "0x4",
          "logIndex": "0x4",
          "removed": false
        }
      ],
      "logsBloom": "0x00000000000000000000000000000000000000000000000000000000080000000000000004000000000000000000000000000000000400000000000000000000000400000000000000000000000000000000000000000000000000000000000000000040000000000000000000000000000000000000000000000000000000000000000400000000000000000000000000000000000000000000000200000000000000000000000000000000000000000000000000000000040000080000000000000840000000000000000000000000000000000000002000000000000020000000800000000000000000000000000000002000000000000000000000000000",
      "type": "0x2",
      "transactionHash": "0x3c18c190b588a8c572ab66c092666bf34759eaf8dfe16f6bf8a5e20dd40d71f0",
      "transactionIndex": "0x4",
      "blockHash": "0x50e2057f307dba1c44e255779cabb3cf6492a150d81ae033a8a931fa428ad1f4",
      "blockNumber": "0x6",
      "gasUsed": "0x6267",
      "effectiveGasPrice": "0x1e9e1e3f",
      "blobGasPrice": "0x1",
      "from": "0xf39fd6e51aad88f6f4ce6ab8827279cfffb92266",
      "to": "0x5fbdb2315678afecb367f032d93f642f64180aa3",
      "contractAddress": null
    }
  ],
  "libraries": [],
  "pending": [],
  "returns": {},
  "timestamp": 1736810857,
  "chain": 31337,
  "commit": "de43dca"
}