{
  "transactions": [
    {
      "hash": "0x9f02115d2363b07c5873244b6203052419c157617d768a408256442b4153615e",
      "transactionType": "CALL",
      "contractName": null,
      "contractAddress": "0x5fbdb2315678afecb367f032d93f642f64180aa3",
      "function": "emitOperatorRegistered(address,address,address)",
      "arguments": [
        "0xCf593639B34CaE0ea3217dA27014ab5FbBAc8342",
        "0xCf593639B34CaE0ea3217dA27014ab5FbBAc8342",
        "0x840F3800136e6a8BCAC3A7FE22f60543A06b6c6a"
      ],
      "transaction": {
        "from": "0xf39fd6e51aad88f6f4ce6ab8827279cfffb92266",
        "to": "0x5fbdb2315678afecb367f032d93f642f64180aa3",
        "gas": "0x8ffa",
        "value": "0x0",
        "input": "0x1f76bdd8000000000000000000000000cf593639b34cae0ea3217da27014ab5fbbac8342000000000000000000000000cf593639b34cae0ea3217da27014ab5fbbac8342000000000000000000000000840f3800136e6a8bcac3a7fe22f60543a06b6c6a",
        "nonce": "0x2",
        "chainId": "0x7a69"
      },
      "additionalContracts": [],
      "isFixedGasLimit": false
    },
    {
      "hash": "0x84dbd2135123339747a84176870e64f533ff3f4a1d221c7447c1fd2fc68b47b7",
      "transactionType": "CALL",
      "contractName": null,
      "contractAddress": "0x5fbdb2315678afecb367f032d93f642f64180aa3",
      "function": "emitOperatorRegistered(address,address,address)",
      "arguments": [
        "0xFE6B5379E861C79dB03eb3a01F3F1892FC4141D5",
        "0xFE6B5379E861C79dB03eb3a01F3F1892FC4141D5",
        "0x840F3800136e6a8BCAC3A7FE22f60543A06b6c6a"
      ],
      "transaction": {
        "from": "0xf39fd6e51aad88f6f4ce6ab8827279cfffb92266",
        "to": "0x5fbdb2315678afecb367f032d93f642f64180aa3",
        "gas": "0x8ffa",
        "value": "0x0",
        "input": "0x1f76bdd8000000000000000000000000fe6b5379e861c79db03eb3a01f3f1892fc4141d5000000000000000000000000fe6b5379e861c79db03eb3a01f3f1892fc4141d5000000000000000000000000840f3800136e6a8bcac3a7fe22f60543a06b6c6a",
        "nonce": "0x3",
        "chainId": "0x7a69"
      },
      "additionalContracts": [],
      "isFixedGasLimit": false
    },
    {
      "hash": "0x92a20121fdcfdf2dfc2287a9022237be29c18e433070c79af778ff634c867deb",
      "transactionType": "CALL",
      "contractName": null,
      "contractAddress": "0x5fbdb2315678afecb367f032d93f642f64180aa3",
      "function": "emitOperatorRegistered(address,address,address)",
      "arguments": [
        "0xCCE3B4EC7681B4EcF5fD5b50e562A88a33E5137B",
        "0xCCE3B4EC7681B4EcF5fD5b50e562A88a33E5137B",
        "0x840F3800136e6a8BCAC3A7FE22f60543A06b6c6a"
      ],
      "transaction": {
        "from": "0xf39fd6e51aad88f6f4ce6ab8827279cfffb92266",
        "to": "0x5fbdb2315678afecb367f032d93f642f64180aa3",
        "gas": "0x8ffa",
        "value": "0x0",
        "input": "0x1f76bdd8000000000000000000000000cce3b4ec7681b4ecf5fd5b50e562a88a33e5137b000000000000000000000000cce3b4ec7681b4ecf5fd5b50e562a88a33e5137b000000000000000000000000840f3800136e6a8bcac3a7fe22f60543a06b6c6a",
        "nonce": "0x4",
        "chainId": "0x7a69"
      },
      "additionalContracts": [],
      "isFixedGasLimit": false
    }
  ],
  "receipts": [
    {
      "status": "0x1",
      "cumulativeGasUsed": "0x6273",
      "logs": [
        {
          "address": "0x5fbdb2315678afecb367f032d93f642f64180aa3",
          "topics": [
            "0x2cc12af15d607deb355aaef5caeae8ce4ee3e0e82b5730cf3af743ed51c51c89",
            "0x000000000000000000000000cf593639b34cae0ea3217da27014ab5fbbac8342",
            "0x0000000000000000000000000000000000000000000000000000000000000003",
            "0x000000000000000000000000cf593639b34cae0ea3217da27014ab5fbbac8342"
          ],
          "data": "0x000000000000000000000000000000000000000000000000000000006787168a000000000000000000000000840f3800136e6a8bcac3a7fe22f60543a06b6c6a",
          "blockHash": "0x725df652cfae85a5463536430c3eb5502d90efc979691593e6889ffd80f8753f",
          "blockNumber": "0x3",
          "blockTimestamp": "0x6787168a",
          "transactionHash": "0x9f02115d2363b07c5873244b6203052419c157617d768a408256442b4153615e",
          "transactionIndex": "0x0",
          "logIndex": "0x0",
          "removed": false
        }
      ],
      "logsBloom": "0x00000000000000000000000000000000000000000000000000000000290000000000000004000000000000000000000000000000020000000000000000000000000000000000000000000000000000000000000000000000000000000000000000000040000000000000000000000000000000000000000000000000004000000000000000000000000000000000000000000000000000000000000200000000000000000000000000000000000000000000000000800000000000000000400000000040000000000000000000000000000000000000002000000000000000000000000000000000000000000000000000000000000000000000000000000000",
      "type": "0x2",
      "transactionHash": "0x9f02115d2363b07c5873244b6203052419c157617d768a408256442b4153615e",
      "transactionIndex": "0x0",
      "blockHash": "0x725df652cfae85a5463536430c3eb5502d90efc979691593e6889ffd80f8753f",
      "blockNumber": "0x3",
      "gasUsed": "0x6273",
      "effectiveGasPrice": "0x2de4bcd0",
      "blobGasPrice": "0x1",
      "from": "0xf39fd6e51aad88f6f4ce6ab8827279cfffb92266",
      "to": "0x5fbdb2315678afecb367f032d93f642f64180aa3",
      "contractAddress": null
    },
    {
      "status": "0x1",
      "cumulativeGasUsed": "0x6273",
      "logs": [
        {
          "address": "0x5fbdb2315678afecb367f032d93f642f64180aa3",
          "topics": [
            "0x2cc12af15d607deb355aaef5caeae8ce4ee3e0e82b5730cf3af743ed51c51c89",
            "0x000000000000000000000000fe6b5379e861c79db03eb3a01f3f1892fc4141d5",
            "0x0000000000000000000000000000000000000000000000000000000000000004",
            "0x000000000000000000000000fe6b5379e861c79db03eb3a01f3f1892fc4141d5"
          ],
          "data": "0x000000000000000000000000000000000000000000000000000000006787168a000000000000000000000000840f3800136e6a8bcac3a7fe22f60543a06b6c6a",
          "blockHash": "0xd4222c2e22f27cd0819dea881d8515f0293c41201f635a9125e8eb9fcd8bf9c8",
          "blockNumber": "0x4",
          "blockTimestamp": "0x6787168a",
          "transactionHash": "0x84dbd2135123339747a84176870e64f533ff3f4a1d221c7447c1fd2fc68b47b7",
          "transactionIndex": "0x0",
          "logIndex": "0x0",
          "removed": false
        }
      ],
      "logsBloom": "0x00000000000000000000000000000000000000000000000000000000080000000000000004000000000000000000000000000000000000000000000000000000000000000000000000000000000000000000000000000000000000000000000008000040000000000000000000000000000000000000000000000000000000000000000000000000000000000000000000000000000000000000000200000000000000000100000000000000000000000000000000000000002000000000000000000040000000004000000000000000000000008000002000000000000000000000000000000000000000000000000000000000000000000000080000000000",
      "type": "0x2",
      "transactionHash": "0x84dbd2135123339747a84176870e64f533ff3f4a1d221c7447c1fd2fc68b47b7",
      "transactionIndex": "0x0",
      "blockHash": "0xd4222c2e22f27cd0819dea881d8515f0293c41201f635a9125e8eb9fcd8bf9c8",
      "blockNumber": "0x4",
      "gasUsed": "0x6273",
      "effectiveGasPrice": "0x282a9ce7",
      "blobGasPrice": "0x1",
      "from": "0xf39fd6e51aad88f6f4ce6ab8827279cfffb92266",
      "to": "0x5fbdb2315678afecb367f032d93f642f64180aa3",
      "contractAddress": null
    },
    {
      "status": "0x1",
      "cumulativeGasUsed": "0x6273",
      "logs": [
        {
          "address": "0x5fbdb2315678afecb367f032d93f642f64180aa3",
          "topics": [
            "0x2cc12af15d607deb355aaef5caeae8ce4ee3e0e82b5730cf3af743ed51c51c89",
            "0x000000000000000000000000cce3b4ec7681b4ecf5fd5b50e562a88a33e5137b",
            "0x0000000000000000000000000000000000000000000000000000000000000005",
            "0x000000000000000000000000cce3b4ec7681b4ecf5fd5b50e562a88a33e5137b"
          ],
          "data": "0x000000000000000000000000000000000000000000000000000000006787168a000000000000000000000000840f3800136e6a8bcac3a7fe22f60543a06b6c6a",
          "blockHash": "0x5501b42feaae2688dcd6f0ef227962eba951b22f4d0454c0afafa3886429fae7",
          "blockNumber": "0x5",
          "blockTimestamp": "0x6787168a",
          "transactionHash": "0x92a20121fdcfdf2dfc2287a9022237be29c18e433070c79af778ff634c867deb",
          "transactionIndex": "0x0",
          "logIndex": "0x0",
          "removed": false
        }
      ],
      "logsBloom": "0x00000000000000000000000000000000000000000000000000000000080000000020000004000000000000000000000000000000000000000000000000000000000010000000000000000000000000000000000000000000000000000000000000000040000000000000000000000000000000000000000000000000000000000000000000000000000000000000001004000800000000000000000200000000000000000000000000000000000000000000000000000000000000000000000000000040000000000000000000000000000000000000002000000000000000000000000000000000000000000080000000000000000000000000000000000000",
      "type": "0x2",
      "transactionHash": "0x92a20121fdcfdf2dfc2287a9022237be29c18e433070c79af778ff634c867deb",
      "transactionIndex": "0x0",
      "blockHash": "0x5501b42feaae2688dcd6f0ef227962eba951b22f4d0454c0afafa3886429fae7",
      "blockNumber": "0x5",
      "gasUsed": "0x6273",
      "effectiveGasPrice": "0x23277227",
      "blobGasPrice": "0x1",
      "from": "0xf39fd6e51aad88f6f4ce6ab8827279cfffb92266",
      "to": "0x5fbdb2315678afecb367f032d93f642f64180aa3",
      "contractAddress": null
    }
  ],
  "libraries": [],
  "pending": [],
  "returns": {},
  "timestamp": 1736906378,
  "chain": 31337,
  "commit": "760b760"
}