{
  "transactions": [
    {
      "hash": "0x542eb440204c794ba8df6aba41f800941ea6ec96dbe318ca2e0c30bc0000e027",
      "transactionType": "CALL",
      "contractName": null,
      "contractAddress": "0xe7f1725e7734ce288f8367e1bb143e90bb3f0512",
      "function": "emitOperatorRegistered(address,address,address)",
      "arguments": [
        "0x961DD7fb2CFF646Fd8958405B050559c94BC01DF",
        "0xBf0a67B5F55eBCF49273F5a59991450AE54EeA82",
        "0x840F3800136e6a8BCAC3A7FE22f60543A06b6c6a"
      ],
      "transaction": {
        "from": "0xf39fd6e51aad88f6f4ce6ab8827279cfffb92266",
        "to": "0xe7f1725e7734ce288f8367e1bb143e90bb3f0512",
        "gas": "0x8ffa",
        "value": "0x0",
        "input": "0x1f76bdd8000000000000000000000000961dd7fb2cff646fd8958405b050559c94bc01df000000000000000000000000bf0a67b5f55ebcf49273f5a59991450ae54eea82000000000000000000000000840f3800136e6a8bcac3a7fe22f60543a06b6c6a",
        "nonce": "0xd",
        "chainId": "0x7a69"
      },
      "additionalContracts": [],
      "isFixedGasLimit": false
    },
    {
      "hash": "0x702da8c5ca2a7c945d72e6e9f0e1cc6d57dcf33d6af1d1a2c571302c06a43c26",
      "transactionType": "CALL",
      "contractName": null,
      "contractAddress": "0xe7f1725e7734ce288f8367e1bb143e90bb3f0512",
      "function": "emitOperatorRegistered(address,address,address)",
      "arguments": [
        "0x204c495D35F172f9c22ACb5B8E340805DAF9482e",
        "0xE0E2533cdc5E827d6e2f0c67e43f7020bFba143b",
        "0x840F3800136e6a8BCAC3A7FE22f60543A06b6c6a"
      ],
      "transaction": {
        "from": "0xf39fd6e51aad88f6f4ce6ab8827279cfffb92266",
        "to": "0xe7f1725e7734ce288f8367e1bb143e90bb3f0512",
        "gas": "0x8ffa",
        "value": "0x0",
        "input": "0x1f76bdd8000000000000000000000000204c495d35f172f9c22acb5b8e340805daf9482e000000000000000000000000e0e2533cdc5e827d6e2f0c67e43f7020bfba143b000000000000000000000000840f3800136e6a8bcac3a7fe22f60543a06b6c6a",
        "nonce": "0xe",
        "chainId": "0x7a69"
      },
      "additionalContracts": [],
      "isFixedGasLimit": false
    },
    {
      "hash": "0x0b76fb86704227c329ce216f4e97e2056e39696479a84cfcb9c4ecc1b7816709",
      "transactionType": "CALL",
      "contractName": null,
      "contractAddress": "0xe7f1725e7734ce288f8367e1bb143e90bb3f0512",
      "function": "emitOperatorRegistered(address,address,address)",
      "arguments": [
        "0x3A7A6Cf81Ab1167da3411b4e16DFa6B9836Ac99D",
        "0x4D3abdaa2B14343A2D2CAdF5635b8CF268c12776",
        "0x840F3800136e6a8BCAC3A7FE22f60543A06b6c6a"
      ],
      "transaction": {
        "from": "0xf39fd6e51aad88f6f4ce6ab8827279cfffb92266",
        "to": "0xe7f1725e7734ce288f8367e1bb143e90bb3f0512",
        "gas": "0x8ffa",
        "value": "0x0",
        "input": "0x1f76bdd80000000000000000000000003a7a6cf81ab1167da3411b4e16dfa6b9836ac99d0000000000000000000000004d3abdaa2b14343a2d2cadf5635b8cf268c12776000000000000000000000000840f3800136e6a8bcac3a7fe22f60543a06b6c6a",
        "nonce": "0xf",
        "chainId": "0x7a69"
      },
      "additionalContracts": [],
      "isFixedGasLimit": false
    },
    {
      "hash": "0x06b2348d5502b97f618e42045cc54de63782cd58540456d4fe037de3b130d53e",
      "transactionType": "CALL",
      "contractName": null,
      "contractAddress": "0xe7f1725e7734ce288f8367e1bb143e90bb3f0512",
      "function": "emitOperatorRegistered(address,address,address)",
      "arguments": [
        "0xbA7cAa435012d85f52ec8c806afc483397e9F84e",
        "0x2De43EFCbD2740D4caE1f2789E028ea0d84B3169",
        "0x840F3800136e6a8BCAC3A7FE22f60543A06b6c6a"
      ],
      "transaction": {
        "from": "0xf39fd6e51aad88f6f4ce6ab8827279cfffb92266",
        "to": "0xe7f1725e7734ce288f8367e1bb143e90bb3f0512",
        "gas": "0x8ffa",
        "value": "0x0",
        "input": "0x1f76bdd8000000000000000000000000ba7caa435012d85f52ec8c806afc483397e9f84e0000000000000000000000002de43efcbd2740d4cae1f2789e028ea0d84b3169000000000000000000000000840f3800136e6a8bcac3a7fe22f60543a06b6c6a",
        "nonce": "0x10",
        "chainId": "0x7a69"
      },
      "additionalContracts": [],
      "isFixedGasLimit": false
    },
    {
      "hash": "0x80780ce3e9916e6294650e09eb14d99446904c673cb6052f94428484f1402849",
      "transactionType": "CALL",
      "contractName": null,
      "contractAddress": "0xe7f1725e7734ce288f8367e1bb143e90bb3f0512",
      "function": "emitOperatorRegistered(address,address,address)",
      "arguments": [
        "0x8A00C467EaBAB817479D96cF917A9633f0aE18A3",
        "0x239EFA362bbb82CeF72781f16544822a259A6d55",
        "0x840F3800136e6a8BCAC3A7FE22f60543A06b6c6a"
      ],
      "transaction": {
        "from": "0xf39fd6e51aad88f6f4ce6ab8827279cfffb92266",
        "to": "0xe7f1725e7734ce288f8367e1bb143e90bb3f0512",
        "gas": "0x87ea",
        "value": "0x0",
        "input": "0x1f76bdd80000000000000000000000008a00c467eabab817479d96cf917a9633f0ae18a3000000000000000000000000239efa362bbb82cef72781f16544822a259a6d55000000000000000000000000840f3800136e6a8bcac3a7fe22f60543a06b6c6a",
        "nonce": "0x11",
        "chainId": "0x7a69"
      },
      "additionalContracts": [],
      "isFixedGasLimit": false
    }
  ],
  "receipts": [
    {
      "status": "0x1",
      "cumulativeGasUsed": "0x6273",
      "logs": [
        {
          "address": "0xe7f1725e7734ce288f8367e1bb143e90bb3f0512",
          "topics": [
            "0x2cc12af15d607deb355aaef5caeae8ce4ee3e0e82b5730cf3af743ed51c51c89",
            "0x000000000000000000000000961dd7fb2cff646fd8958405b050559c94bc01df",
            "0x000000000000000000000000000000000000000000000000000000000000000d",
            "0x000000000000000000000000bf0a67b5f55ebcf49273f5a59991450ae54eea82"
          ],
          "data": "0x000000000000000000000000000000000000000000000000000000006785f85a000000000000000000000000840f3800136e6a8bcac3a7fe22f60543a06b6c6a",
          "blockHash": "0x5bd984cb588741856ef57a018480b5d901a90fe4d743175947938fa30618690c",
          "blockNumber": "0xd",
          "blockTimestamp": "0x6785f85a",
          "transactionHash": "0x542eb440204c794ba8df6aba41f800941ea6ec96dbe318ca2e0c30bc0000e027",
          "transactionIndex": "0x0",
          "logIndex": "0x0",
          "removed": false
        }
      ],
      "logsBloom": "0x00000000000000004040000000000000000000000000000000000000080000000000000004000000000000000000000010000000000000000000000000000000000000000000200000000000000000000002000000000000000000000000000000000000000000000000000000000000000000000000000000800000000000000000000000000000000000000000000000000000000000000000000000000000000000000000000000000000000000000000000000000000000000000020400000000000000000080000000000001000000000000000002000000000000000020000000000000000000000000000000000000000000000800000000000000000",
      "type": "0x2",
      "transactionHash": "0x542eb440204c794ba8df6aba41f800941ea6ec96dbe318ca2e0c30bc0000e027",
      "transactionIndex": "0x0",
      "blockHash": "0x5bd984cb588741856ef57a018480b5d901a90fe4d743175947938fa30618690c",
      "blockNumber": "0xd",
      "gasUsed": "0x6273",
      "effectiveGasPrice": "0xc1ee208",
      "blobGasPrice": "0x1",
      "from": "0xf39fd6e51aad88f6f4ce6ab8827279cfffb92266",
      "to": "0xe7f1725e7734ce288f8367e1bb143e90bb3f0512",
      "contractAddress": null
    },
    {
      "status": "0x1",
      "cumulativeGasUsed": "0x6273",
      "logs": [
        {
          "address": "0xe7f1725e7734ce288f8367e1bb143e90bb3f0512",
          "topics": [
            "0x2cc12af15d607deb355aaef5caeae8ce4ee3e0e82b5730cf3af743ed51c51c89",
            "0x000000000000000000000000204c495d35f172f9c22acb5b8e340805daf9482e",
            "0x000000000000000000000000000000000000000000000000000000000000000e",
            "0x000000000000000000000000e0e2533cdc5e827d6e2f0c67e43f7020bfba143b"
          ],
          "data": "0x000000000000000000000000000000000000000000000000000000006785f85a000000000000000000000000840f3800136e6a8bcac3a7fe22f60543a06b6c6a",
          "blockHash": "0xb1e6b414bedcbaa857b3186b543e3abff96b10c4058838fe848fa745a83f54d7",
          "blockNumber": "0xe",
          "blockTimestamp": "0x6785f85a",
          "transactionHash": "0x702da8c5ca2a7c945d72e6e9f0e1cc6d57dcf33d6af1d1a2c571302c06a43c26",
          "transactionIndex": "0x0",
          "logIndex": "0x0",
          "removed": false
        }
      ],
      "logsBloom": "0x00000000000000000000100000000000020000000000000000000000080000000000000004000000000000000000000010000000000000000000000000000000000000000000000800000000000000080000000000000000000000000000000000000000000000000000000000000000000000000000000000000000000000000000000000000000000000000000000008000000000000000000000000001000000000000000000000000000000200000000000000004020000000000000000000000000000000000000000000001000000000000000002000000000000000000000000000000000000000000000000000000000000000800000000000000000",
      "type": "0x2",
      "transactionHash": "0x702da8c5ca2a7c945d72e6e9f0e1cc6d57dcf33d6af1d1a2c571302c06a43c26",
      "transactionIndex": "0x0",
      "blockHash": "0xb1e6b414bedcbaa857b3186b543e3abff96b10c4058838fe848fa745a83f54d7",
      "blockNumber": "0xe",
      "gasUsed": "0x6273",
      "effectiveGasPrice": "0xa9bac9c",
      "blobGasPrice": "0x1",
      "from": "0xf39fd6e51aad88f6f4ce6ab8827279cfffb92266",
      "to": "0xe7f1725e7734ce288f8367e1bb143e90bb3f0512",
      "contractAddress": null
    },
    {
      "status": "0x1",
      "cumulativeGasUsed": "0x6273",
      "logs": [
        {
          "address": "0xe7f1725e7734ce288f8367e1bb143e90bb3f0512",
          "topics": [
            "0x2cc12af15d607deb355aaef5caeae8ce4ee3e0e82b5730cf3af743ed51c51c89",
            "0x0000000000000000000000003a7a6cf81ab1167da3411b4e16dfa6b9836ac99d",
            "0x000000000000000000000000000000000000000000000000000000000000000f",
            "0x0000000000000000000000004d3abdaa2b14343a2d2cadf5635b8cf268c12776"
          ],
          "data": "0x000000000000000000000000000000000000000000000000000000006785f85a000000000000000000000000840f3800136e6a8bcac3a7fe22f60543a06b6c6a",
          "blockHash": "0x9da056eb370a706adb1faa3767cf3cd0602e77c8b8f32554317be94873e3f383",
          "blockNumber": "0xf",
          "blockTimestamp": "0x6785f85a",
          "transactionHash": "0x0b76fb86704227c329ce216f4e97e2056e39696479a84cfcb9c4ecc1b7816709",
          "transactionIndex": "0x0",
          "logIndex": "0x0",
          "removed": false
        }
      ],
      "logsBloom": "0x00000000000000000000000000001000000000000000000010000000080000000000000004000000000000000000000010000000000000000000000000000000000020000000000000000000000000000000000000000000000000000002000000000000000000000000000000000000000000000000000000000000000000000000000000000800000000000000000000000000000000000000000000000000000000000000000000000000000000100000000000000000000000000000000002000000000000000000000000001000000000000000002000000000000000000000800200000000000000000000000000000000000000800000000000000000",
      "type": "0x2",
      "transactionHash": "0x0b76fb86704227c329ce216f4e97e2056e39696479a84cfcb9c4ecc1b7816709",
      "transactionIndex": "0x0",
      "blockHash": "0x9da056eb370a706adb1faa3767cf3cd0602e77c8b8f32554317be94873e3f383",
      "blockNumber": "0xf",
      "gasUsed": "0x6273",
      "effectiveGasPrice": "0x948c90c",
      "blobGasPrice": "0x1",
      "from": "0xf39fd6e51aad88f6f4ce6ab8827279cfffb92266",
      "to": "0xe7f1725e7734ce288f8367e1bb143e90bb3f0512",
      "contractAddress": null
    },
    {
      "status": "0x1",
      "cumulativeGasUsed": "0x6273",
      "logs": [
        {
          "address": "0xe7f1725e7734ce288f8367e1bb143e90bb3f0512",
          "topics": [
            "0x2cc12af15d607deb355aaef5caeae8ce4ee3e0e82b5730cf3af743ed51c51c89",
            "0x000000000000000000000000ba7caa435012d85f52ec8c806afc483397e9f84e",
            "0x0000000000000000000000000000000000000000000000000000000000000010",
            "0x0000000000000000000000002de43efcbd2740d4cae1f2789e028ea0d84b3169"
          ],
          "data": "0x000000000000000000000000000000000000000000000000000000006785f85a000000000000000000000000840f3800136e6a8bcac3a7fe22f60543a06b6c6a",
          "blockHash": "0xfaeb95d2d8cf026338e415510554f6c8c13d1dc3c18389333fe5df6979c73de2",
          "blockNumber": "0x10",
          "blockTimestamp": "0x6785f85a",
          "transactionHash": "0x06b2348d5502b97f618e42045cc54de63782cd58540456d4fe037de3b130d53e",
          "transactionIndex": "0x0",
          "logIndex": "0x0",
          "removed": false
        }
      ],
      "logsBloom": "0x00000000100000000000000000000000000000000000000000000020080000000000002004000000000000000000000010000000000000000000000000000000000000000000000000000000000000000000000000000000000000000000000000000000000000000000000000000000000400000000000000000000040000000000000000000000000000000008000000000100800000000000800000000000000000000000000000000000000000000000000000000000000000000000000000000000000000000000000000001000000000000000002000000000000000000000000000000000000000000000000000000000000000800000000000000000",
      "type": "0x2",
      "transactionHash": "0x06b2348d5502b97f618e42045cc54de63782cd58540456d4fe037de3b130d53e",
      "transactionIndex": "0x0",
      "blockHash": "0xfaeb95d2d8cf026338e415510554f6c8c13d1dc3c18389333fe5df6979c73de2",
      "blockNumber": "0x10",
      "gasUsed": "0x6273",
      "effectiveGasPrice": "0x8202fb6",
      "blobGasPrice": "0x1",
      "from": "0xf39fd6e51aad88f6f4ce6ab8827279cfffb92266",
      "to": "0xe7f1725e7734ce288f8367e1bb143e90bb3f0512",
      "contractAddress": null
    },
    {
      "status": "0x1",
      "cumulativeGasUsed": "0x6267",
      "logs": [
        {
          "address": "0xe7f1725e7734ce288f8367e1bb143e90bb3f0512",
          "topics": [
            "0x2cc12af15d607deb355aaef5caeae8ce4ee3e0e82b5730cf3af743ed51c51c89",
            "0x0000000000000000000000008a00c467eabab817479d96cf917a9633f0ae18a3",
            "0x0000000000000000000000000000000000000000000000000000000000000011",
            "0x000000000000000000000000239efa362bbb82cef72781f16544822a259a6d55"
          ],
          "data": "0x000000000000000000000000000000000000000000000000000000006785f85a000000000000000000000000840f3800136e6a8bcac3a7fe22f60543a06b6c6a",
          "blockHash": "0x7e6c2b5caec93bb40a0bf80676152f28c73e94257abe71b063d3da796f1e000a",
          "blockNumber": "0x11",
          "blockTimestamp": "0x6785f85a",
          "transactionHash": "0x80780ce3e9916e6294650e09eb14d99446904c673cb6052f94428484f1402849",
          "transactionIndex": "0x0",
          "logIndex": "0x0",
          "removed": false
        }
      ],
      "logsBloom": "0x00000000000000000000000000000000000000000000000000000000080000000000000004000000000000000000000010000000000000000000000000000000000400000000000000000000000000000000000000000000000000000000000000000000000000000000000000000000000000004000000000000000000000000000000000000000000000000000000000000000000000000000000000000000000000000000000000000000000000000000000000000000040000000400000000001800000000000000000000001000000000000000002000000000000020000000800000000000000000000000000000002000000000800000000000000000",
      "type": "0x2",
      "transactionHash": "0x80780ce3e9916e6294650e09eb14d99446904c673cb6052f94428484f1402849",
      "transactionIndex": "0x0",
      "blockHash": "0x7e6c2b5caec93bb40a0bf80676152f28c73e94257abe71b063d3da796f1e000a",
      "blockNumber": "0x11",
      "gasUsed": "0x6267",
      "effectiveGasPrice": "0x71c9998",
      "blobGasPrice": "0x1",
      "from": "0xf39fd6e51aad88f6f4ce6ab8827279cfffb92266",
      "to": "0xe7f1725e7734ce288f8367e1bb143e90bb3f0512",
      "contractAddress": null
    }
  ],
  "libraries": [],
  "pending": [],
  "returns": {},
  "timestamp": 1736833114,
  "chain": 31337,
  "commit": "de43dca"
}