{
  "transactions": [
    {
      "hash": "0x4bd5d2893ea7b0685298b37ba8c9177f01f5da2cb31a754bc9cb3fb85a4bd324",
      "transactionType": "CALL",
      "contractName": null,
      "contractAddress": "0xe7f1725e7734ce288f8367e1bb143e90bb3f0512",
      "function": "emitOperatorRegistered(address,address,address)",
      "arguments": [
        "0x961DD7fb2CFF646Fd8958405B050559c94BC01DF",
        "0xBf0a67B5F55eBCF49273F5a59991450AE54EeA82",
        "0x840F3800136e6a8BCAC3A7FE22f60543A06b6c6a"
      ],
      "transaction": {
        "from": "0xf39fd6e51aad88f6f4ce6ab8827279cfffb92266",
        "to": "0xe7f1725e7734ce288f8367e1bb143e90bb3f0512",
        "gas": "0x8ffa",
        "value": "0x0",
        "input": "0x1f76bdd8000000000000000000000000961dd7fb2cff646fd8958405b050559c94bc01df000000000000000000000000bf0a67b5f55ebcf49273f5a59991450ae54eea82000000000000000000000000840f3800136e6a8bcac3a7fe22f60543a06b6c6a",
        "nonce": "0x3",
        "chainId": "0x7a69"
      },
      "additionalContracts": [],
      "isFixedGasLimit": false
    },
    {
      "hash": "0xeb2e560d5d60ad1290972bad29b15e87577f21da55d9f4befa2d5eecbed0c7a6",
      "transactionType": "CALL",
      "contractName": null,
      "contractAddress": "0xe7f1725e7734ce288f8367e1bb143e90bb3f0512",
      "function": "emitOperatorRegistered(address,address,address)",
      "arguments": [
        "0x204c495D35F172f9c22ACb5B8E340805DAF9482e",
        "0xE0E2533cdc5E827d6e2f0c67e43f7020bFba143b",
        "0x840F3800136e6a8BCAC3A7FE22f60543A06b6c6a"
      ],
      "transaction": {
        "from": "0xf39fd6e51aad88f6f4ce6ab8827279cfffb92266",
        "to": "0xe7f1725e7734ce288f8367e1bb143e90bb3f0512",
        "gas": "0x8ffa",
        "value": "0x0",
        "input": "0x1f76bdd8000000000000000000000000204c495d35f172f9c22acb5b8e340805daf9482e000000000000000000000000e0e2533cdc5e827d6e2f0c67e43f7020bfba143b000000000000000000000000840f3800136e6a8bcac3a7fe22f60543a06b6c6a",
        "nonce": "0x4",
        "chainId": "0x7a69"
      },
      "additionalContracts": [],
      "isFixedGasLimit": false
    },
    {
      "hash": "0xba0b0dee8b225cd19210741accf7f50a87548ffd57504aacb1bacc6c67f9d3ec",
      "transactionType": "CALL",
      "contractName": null,
      "contractAddress": "0xe7f1725e7734ce288f8367e1bb143e90bb3f0512",
      "function": "emitOperatorRegistered(address,address,address)",
      "arguments": [
        "0x3A7A6Cf81Ab1167da3411b4e16DFa6B9836Ac99D",
        "0x4D3abdaa2B14343A2D2CAdF5635b8CF268c12776",
        "0x840F3800136e6a8BCAC3A7FE22f60543A06b6c6a"
      ],
      "transaction": {
        "from": "0xf39fd6e51aad88f6f4ce6ab8827279cfffb92266",
        "to": "0xe7f1725e7734ce288f8367e1bb143e90bb3f0512",
        "gas": "0x8ffa",
        "value": "0x0",
        "input": "0x1f76bdd80000000000000000000000003a7a6cf81ab1167da3411b4e16dfa6b9836ac99d0000000000000000000000004d3abdaa2b14343a2d2cadf5635b8cf268c12776000000000000000000000000840f3800136e6a8bcac3a7fe22f60543a06b6c6a",
        "nonce": "0x5",
        "chainId": "0x7a69"
      },
      "additionalContracts": [],
      "isFixedGasLimit": false
    },
    {
      "hash": "0x96359f28b76bf034d21c2d8437ea8f1f5c1396b5f214ea4077dfe0bb4de42634",
      "transactionType": "CALL",
      "contractName": null,
      "contractAddress": "0xe7f1725e7734ce288f8367e1bb143e90bb3f0512",
      "function": "emitOperatorRegistered(address,address,address)",
      "arguments": [
        "0xbA7cAa435012d85f52ec8c806afc483397e9F84e",
        "0x2De43EFCbD2740D4caE1f2789E028ea0d84B3169",
        "0x840F3800136e6a8BCAC3A7FE22f60543A06b6c6a"
      ],
      "transaction": {
        "from": "0xf39fd6e51aad88f6f4ce6ab8827279cfffb92266",
        "to": "0xe7f1725e7734ce288f8367e1bb143e90bb3f0512",
        "gas": "0x8ffa",
        "value": "0x0",
        "input": "0x1f76bdd8000000000000000000000000ba7caa435012d85f52ec8c806afc483397e9f84e0000000000000000000000002de43efcbd2740d4cae1f2789e028ea0d84b3169000000000000000000000000840f3800136e6a8bcac3a7fe22f60543a06b6c6a",
        "nonce": "0x6",
        "chainId": "0x7a69"
      },
      "additionalContracts": [],
      "isFixedGasLimit": false
    },
    {
      "hash": "0xaa60421cf008b1452aef3a789546cb8851941ad81f2595944c639056179209fc",
      "transactionType": "CALL",
      "contractName": null,
      "contractAddress": "0xe7f1725e7734ce288f8367e1bb143e90bb3f0512",
      "function": "emitOperatorRegistered(address,address,address)",
      "arguments": [
        "0x8A00C467EaBAB817479D96cF917A9633f0aE18A3",
        "0x239EFA362bbb82CeF72781f16544822a259A6d55",
        "0x840F3800136e6a8BCAC3A7FE22f60543A06b6c6a"
      ],
      "transaction": {
        "from": "0xf39fd6e51aad88f6f4ce6ab8827279cfffb92266",
        "to": "0xe7f1725e7734ce288f8367e1bb143e90bb3f0512",
        "gas": "0x87ea",
        "value": "0x0",
        "input": "0x1f76bdd80000000000000000000000008a00c467eabab817479d96cf917a9633f0ae18a3000000000000000000000000239efa362bbb82cef72781f16544822a259a6d55000000000000000000000000840f3800136e6a8bcac3a7fe22f60543a06b6c6a",
        "nonce": "0x7",
        "chainId": "0x7a69"
      },
      "additionalContracts": [],
      "isFixedGasLimit": false
    }
  ],
  "receipts": [
    {
      "status": "0x1",
      "cumulativeGasUsed": "0x6273",
      "logs": [
        {
          "address": "0xe7f1725e7734ce288f8367e1bb143e90bb3f0512",
          "topics": [
            "0x2cc12af15d607deb355aaef5caeae8ce4ee3e0e82b5730cf3af743ed51c51c89",
            "0x000000000000000000000000961dd7fb2cff646fd8958405b050559c94bc01df",
            "0x0000000000000000000000000000000000000000000000000000000000000004",
            "0x000000000000000000000000bf0a67b5f55ebcf49273f5a59991450ae54eea82"
          ],
          "data": "0x000000000000000000000000000000000000000000000000000000006785eee1000000000000000000000000840f3800136e6a8bcac3a7fe22f60543a06b6c6a",
          "blockHash": "0xcc02f598ab77eac6239fdd38c8c9fab4d35a9a3d0fc8e4104437bb72979ec378",
          "blockNumber": "0x4",
          "blockTimestamp": "0x6785eee1",
          "transactionHash": "0x4bd5d2893ea7b0685298b37ba8c9177f01f5da2cb31a754bc9cb3fb85a4bd324",
          "transactionIndex": "0x0",
          "logIndex": "0x0",
          "removed": false
        }
      ],
      "logsBloom": "0x00000000000000004000000000000000000000000000000000000000080000000000000004000000000000000000000010000000000000000000000000000000000000000000200000000000000000000000000000000000000000000000000008000000000000000000000000000000000000000000000000800000000000000000000000000000000000000000000000000000000000000000000000000000000000000000000000000000000000000000000000000000002000000020400000000000000000080000000000001000000000008000002000000000000000000000000000000000000000000000000000000000000000800000000000000000",
      "type": "0x2",
      "transactionHash": "0x4bd5d2893ea7b0685298b37ba8c9177f01f5da2cb31a754bc9cb3fb85a4bd324",
      "transactionIndex": "0x0",
      "blockHash": "0xcc02f598ab77eac6239fdd38c8c9fab4d35a9a3d0fc8e4104437bb72979ec378",
      "blockNumber": "0x4",
      "gasUsed": "0x6273",
      "effectiveGasPrice": "0x283793ec",
      "blobGasPrice": "0x1",
      "from": "0xf39fd6e51aad88f6f4ce6ab8827279cfffb92266",
      "to": "0xe7f1725e7734ce288f8367e1bb143e90bb3f0512",
      "contractAddress": null
    },
    {
      "status": "0x1",
      "cumulativeGasUsed": "0x6273",
      "logs": [
        {
          "address": "0xe7f1725e7734ce288f8367e1bb143e90bb3f0512",
          "topics": [
            "0x2cc12af15d607deb355aaef5caeae8ce4ee3e0e82b5730cf3af743ed51c51c89",
            "0x000000000000000000000000204c495d35f172f9c22acb5b8e340805daf9482e",
            "0x0000000000000000000000000000000000000000000000000000000000000005",
            "0x000000000000000000000000e0e2533cdc5e827d6e2f0c67e43f7020bfba143b"
          ],
          "data": "0x000000000000000000000000000000000000000000000000000000006785eee1000000000000000000000000840f3800136e6a8bcac3a7fe22f60543a06b6c6a",
          "blockHash": "0xbde2904a9aa7464ebd48342ff850b85e4a247e83ad8551e67ce78030a26f7f24",
          "blockNumber": "0x5",
          "blockTimestamp": "0x6785eee1",
          "transactionHash": "0xeb2e560d5d60ad1290972bad29b15e87577f21da55d9f4befa2d5eecbed0c7a6",
          "transactionIndex": "0x0",
          "logIndex": "0x0",
          "removed": false
        }
      ],
      "logsBloom": "0x00000000000000000000100000000000020000000000000000000000080000000000000004000000000000000000000010000000000000000000000000000000000010000000000000000000000000080000000000000000000000000000000000000000000000000000000000000000000000000000000000000000000000000000000000000000000000000000001000000800000000000000000000001000000000000000000000000000000200000000000000004000000000000000000000000000000000000000000000001000000000000000002000000000000000000000000000000000000000000000000000000000000000800000000000000000",
      "type": "0x2",
      "transactionHash": "0xeb2e560d5d60ad1290972bad29b15e87577f21da55d9f4befa2d5eecbed0c7a6",
      "transactionIndex": "0x0",
      "blockHash": "0xbde2904a9aa7464ebd48342ff850b85e4a247e83ad8551e67ce78030a26f7f24",
      "blockNumber": "0x5",
      "gasUsed": "0x6273",
      "effectiveGasPrice": "0x2332cafe",
      "blobGasPrice": "0x1",
      "from": "0xf39fd6e51aad88f6f4ce6ab8827279cfffb92266",
      "to": "0xe7f1725e7734ce288f8367e1bb143e90bb3f0512",
      "contractAddress": null
    },
    {
      "status": "0x1",
      "cumulativeGasUsed": "0x6273",
      "logs": [
        {
          "address": "0xe7f1725e7734ce288f8367e1bb143e90bb3f0512",
          "topics": [
            "0x2cc12af15d607deb355aaef5caeae8ce4ee3e0e82b5730cf3af743ed51c51c89",
            "0x0000000000000000000000003a7a6cf81ab1167da3411b4e16dfa6b9836ac99d",
            "0x0000000000000000000000000000000000000000000000000000000000000006",
            "0x0000000000000000000000004d3abdaa2b14343a2d2cadf5635b8cf268c12776"
          ],
          "data": "0x000000000000000000000000000000000000000000000000000000006785eee1000000000000000000000000840f3800136e6a8bcac3a7fe22f60543a06b6c6a",
          "blockHash": "0x1b169dd191ea3b47f6240135a6b64d88dd334d983fa9ce4b01aa155a8d17b759",
          "blockNumber": "0x6",
          "blockTimestamp": "0x6785eee1",
          "transactionHash": "0xba0b0dee8b225cd19210741accf7f50a87548ffd57504aacb1bacc6c67f9d3ec",
          "transactionIndex": "0x0",
          "logIndex": "0x0",
          "removed": false
        }
      ],
      "logsBloom": "0x00000000000000000000000000001000000000000000000010000000080000000000000004000000000000000000000010000000000400000000000000000000000020000000000000000000000000000000000000000000000000000000000000000000000000000000000000000000000000000000000000000000000000000000000400000000000000000000000000000000000000000000000000000000000000000000000000000000000000100000000000000000000000080000000002000000000000000000000000001000000000000000002000000000000000000000800000000000000000000000000000000000000000800000000000000000",
      "type": "0x2",
      "transactionHash": "0xba0b0dee8b225cd19210741accf7f50a87548ffd57504aacb1bacc6c67f9d3ec",
      "transactionIndex": "0x0",
      "blockHash": "0x1b169dd191ea3b47f6240135a6b64d88dd334d983fa9ce4b01aa155a8d17b759",
      "blockNumber": "0x6",
      "gasUsed": "0x6273",
      "effectiveGasPrice": "0x1ece5619",
      "blobGasPrice": "0x1",
      "from": "0xf39fd6e51aad88f6f4ce6ab8827279cfffb92266",
      "to": "0xe7f1725e7734ce288f8367e1bb143e90bb3f0512",
      "contractAddress": null
    },
    {
      "status": "0x1",
      "cumulativeGasUsed": "0x6273",
      "logs": [
        {
          "address": "0xe7f1725e7734ce288f8367e1bb143e90bb3f0512",
          "topics": [
            "0x2cc12af15d607deb355aaef5caeae8ce4ee3e0e82b5730cf3af743ed51c51c89",
            "0x000000000000000000000000ba7caa435012d85f52ec8c806afc483397e9f84e",
            "0x0000000000000000000000000000000000000000000000000000000000000007",
            "0x0000000000000000000000002de43efcbd2740d4cae1f2789e028ea0d84b3169"
          ],
          "data": "0x000000000000000000000000000000000000000000000000000000006785eee1000000000000000000000000840f3800136e6a8bcac3a7fe22f60543a06b6c6a",
          "blockHash": "0xabceec732664c49c27cae1ed81b15f88a3c2f412c455bf4b3dc1d369973ab232",
          "blockNumber": "0x7",
          "blockTimestamp": "0x6785eee1",
          "transactionHash": "0x96359f28b76bf034d21c2d8437ea8f1f5c1396b5f214ea4077dfe0bb4de42634",
          "transactionIndex": "0x0",
          "logIndex": "0x0",
          "removed": false
        }
      ],
      "logsBloom": "0x00000000000000000000000000000000000000000000000000000020080000000000002004000000000000000000000010001000000000000000000000000000000020000000000000000000000000000000000000000000000000000000000000000000000000000000000000000000000400000000000000000000000000000000000000000000000000000008000000000000800000000000800000000000000000000000000000000000000000000000000000000000000000000000000000000000000000000000000000001000000000000000002000000100000000000000000000000000000000000000000000000000000000800000000000000000",
      "type": "0x2",
      "transactionHash": "0x96359f28b76bf034d21c2d8437ea8f1f5c1396b5f214ea4077dfe0bb4de42634",
      "transactionIndex": "0x0",
      "blockHash": "0xabceec732664c49c27cae1ed81b15f88a3c2f412c455bf4b3dc1d369973ab232",
      "blockNumber": "0x7",
      "gasUsed": "0x6273",
      "effectiveGasPrice": "0x1af6335c",
      "blobGasPrice": "0x1",
      "from": "0xf39fd6e51aad88f6f4ce6ab8827279cfffb92266",
      "to": "0xe7f1725e7734ce288f8367e1bb143e90bb3f0512",
      "contractAddress": null
    },
    {
      "status": "0x1",
      "cumulativeGasUsed": "0xc4da",
      "logs": [
        {
          "address": "0xe7f1725e7734ce288f8367e1bb143e90bb3f0512",
          "topics": [
            "0x2cc12af15d607deb355aaef5caeae8ce4ee3e0e82b5730cf3af743ed51c51c89",
            "0x0000000000000000000000008a00c467eabab817479d96cf917a9633f0ae18a3",
            "0x0000000000000000000000000000000000000000000000000000000000000007",
            "0x000000000000000000000000239efa362bbb82cef72781f16544822a259a6d55"
          ],
          "data": "0x000000000000000000000000000000000000000000000000000000006785eee1000000000000000000000000840f3800136e6a8bcac3a7fe22f60543a06b6c6a",
          "blockHash": "0xabceec732664c49c27cae1ed81b15f88a3c2f412c455bf4b3dc1d369973ab232",
          "blockNumber": "0x7",
          "blockTimestamp": "0x6785eee1",
          "transactionHash": "0xaa60421cf008b1452aef3a789546cb8851941ad81f2595944c639056179209fc",
          "transactionIndex": "0x1",
          "logIndex": "0x1",
          "removed": false
        }
      ],
      "logsBloom": "0x00000000000000000000000000000000000000000000000000000000080000000000000004000000000000000000000010001000000000000000000000000000000420000000000000000000000000000000000000000000000000000000000000000000000000000000000000000000000000000000000000000000000000000000000000000000000000000000000000000000000000000000000000000000000000000000000000000000000000000000000000000000040000000000000000000800000000000000000000001000000000000000002000000100000020000000800000000000000000000000000000002000000000800000000000000000",
      "type": "0x2",
      "transactionHash": "0xaa60421cf008b1452aef3a789546cb8851941ad81f2595944c639056179209fc",
      "transactionIndex": "0x1",
      "blockHash": "0xabceec732664c49c27cae1ed81b15f88a3c2f412c455bf4b3dc1d369973ab232",
      "blockNumber": "0x7",
      "gasUsed": "0x6267",
      "effectiveGasPrice": "0x1af6335c",
      "blobGasPrice": "0x1",
      "from": "0xf39fd6e51aad88f6f4ce6ab8827279cfffb92266",
      "to": "0xe7f1725e7734ce288f8367e1bb143e90bb3f0512",
      "contractAddress": null
    }
  ],
  "libraries": [],
  "pending": [],
  "returns": {},
  "timestamp": 1736830689,
  "chain": 31337,
  "commit": "de43dca"
}