{
  "transactions": [
    {
      "hash": "0xca3deadffb3ff11ae58c67fa01097b03ad4867de8f3972d45c75b179ad00b71f",
      "transactionType": "CREATE",
      "contractName": "StateManager",
      "contractAddress": "0x5fc8d32690cc91d4c39d9d3abcbd16989f875707",
      "function": null,
      "arguments": null,
      "transaction": {
        "from": "0xf39fd6e51aad88f6f4ce6ab8827279cfffb92266",
        "gas": "0x2106bc",
        "value": "0x0",
        "input": "0x6080604052348015600e575f5ffd5b50611d1c8061001c5f395ff3fe608060405234801561000f575f5ffd5b5060043610610106575f3560e01c8063937cad891161009e578063badd55e61161006e578063badd55e614610220578063c4c31cf914610233578063de90452a14610246578063e78372bb14610259578063fa7493631461029a575f5ffd5b8063937cad89146101d4578063a0f72401146101e7578063a80832f2146101fa578063b89291531461020d575f5ffd5b806335c7fa54116100d957806335c7fa54146101865780634cb68786146101995780636687f006146101ae5780638bdf5803146101c1575f5ffd5b806308244ee51461010a578063173b2fdd146101335780632edc01b1146101465780633503418f14610166575b5f5ffd5b61011d6101183660046119ca565b6102cf565b60405161012a9190611a00565b60405180910390f35b61011d610141366004611a72565b61056b565b610159610154366004611a9a565b6107f7565b60405161012a9190611aca565b610179610174366004611afc565b61092f565b60405161012a9190611b15565b610159610194366004611a9a565b610998565b6101ac6101a7366004611b4c565b610ac7565b005b6101ac6101bc366004611a9a565b610c82565b61011d6101cf366004611a72565b610dca565b61011d6101e2366004611a9a565b610e73565b6101596101f5366004611a9a565b61101f565b61011d610208366004611a9a565b6110e0565b61017961021b366004611bcb565b611254565b61011d61022e366004611a9a565b611310565b61011d6102413660046119ca565b6114b0565b61011d610254366004611a9a565b611730565b61028c610267366004611a72565b6001600160a01b03919091165f90815260208181526040808320938352929052205490565b60405190815260200161012a565b61028c6102a8366004611a72565b6001600160a01b03919091165f908152600160209081526040808320938352929052205490565b60608183106102f1576040516322769e1d60e11b815260040160405180910390fd5b6001600160a01b0385165f908152600160209081526040808320878452909152812080549091036103355760405163163aee1b60e21b815260040160405180910390fd5b5f61034282866001611898565b8254909150811061035e57815461035b90600190611c4d565b90505b8482828154811061037157610371611c60565b5f918252602090912060029091020160010154600160401b900465ffffffffffff161080156103ac575081546103a990600190611c4d565b81105b156103bf57806103bb81611c74565b9150505b5f6103cc83866001611898565b835490915081106103e85782546103e590600190611c4d565b90505b8082118061042957508483838154811061040457610404611c60565b5f918252602090912060029091020160010154600160401b900465ffffffffffff1610155b156104475760405163163aee1b60e21b815260040160405180910390fd5b5f6104528383611c4d565b61045d906001611c8c565b90505f816001600160401b0381111561047857610478611c9f565b6040519080825280602002602001820160405280156104c157816020015b604080516060810182525f80825260208083018290529282015282525f199092019101816104965790505b5090505f5b8281101561055d57856104d98287611c8c565b815481106104e9576104e9611c60565b5f9182526020918290206040805160608101825260029390930290910180548352600101546001600160401b03811693830193909352600160401b90920465ffffffffffff1691810191909152825183908390811061054a5761054a611c60565b60209081029190910101526001016104c6565b509998505050505050505050565b6001600160a01b0382165f9081526002602052604081208054606092036105a55760405163163aee1b60e21b815260040160405180910390fd5b5f805b825481101561060e576001600160a01b0386165f90815260016020526040812084549091908590849081106105df576105df611c60565b905f5260205f20015481526020019081526020015f2080549050826106049190611c8c565b91506001016105a8565b505f81851161061d578461061f565b815b9050805f036106415760405163163aee1b60e21b815260040160405180910390fd5b5f816001600160401b0381111561065a5761065a611c9f565b6040519080825280602002602001820160405280156106a357816020015b604080516060810182525f80825260208083018290529282015282525f199092019101816106785790505b5090505f805b8554811080156106b857508382105b156107e8576001600160a01b0389165f908152600160205260408120875482908990859081106106ea576106ea611c60565b5f918252602080832090910154835282019290925260400181208054909250905b818110801561071957508685105b156107d257828161072b600185611c4d565b6107359190611c4d565b8154811061074557610745611c60565b5f9182526020918290206040805160608101825260029390930290910180548352600101546001600160401b03811693830193909352600160401b90920465ffffffffffff169181019190915286518790879081106107a6576107a6611c60565b602002602001018190525084806107bc90611c74565b95505080806107ca90611c74565b91505061070b565b50505080806107e090611c74565b9150506106a9565b50909450505050505b92915050565b604080516060810182525f80825260208083018290528284018290526001600160a01b038716825260018152838220868352905291822080549192909190036108535760405163163aee1b60e21b815260040160405180910390fd5b5f61086082856001611898565b8254909150811015806108a657508382828154811061088157610881611c60565b5f918252602090912060029091020160010154600160401b900465ffffffffffff1614155b156108c4576040516345150cc760e01b815260040160405180910390fd5b8181815481106108d6576108d6611c60565b5f9182526020918290206040805160608101825260029390930290910180548352600101546001600160401b03811693830193909352600160401b90920465ffffffffffff1691810191909152925050505b9392505050565b6001600160a01b0381165f9081526002602090815260409182902080548351818402810184019094528084526060939283018282801561098c57602002820191905f5260205f20905b815481526020019060010190808311610978575b50505050509050919050565b604080516060810182525f80825260208083018290528284018290526001600160a01b038716825260018152838220868352905291822080549192909190036109f45760405163163aee1b60e21b815260040160405180910390fd5b5f610a0082855f611898565b825490915081108015610a40575083828281548110610a2157610a21611c60565b5f9182526020909120600160029092020101546001600160401b031611155b15610aae57818181548110610a5757610a57611c60565b5f9182526020918290206040805160608101825260029390930290910180548352600101546001600160401b03811693830193909352600160401b90920465ffffffffffff16918101919091529250610928915050565b604051633e22764d60e11b815260040160405180910390fd5b806064811115610aea57604051638d6e7a7960e01b815260040160405180910390fd5b5f5b81811015610c7b5736848483818110610b0757610b07611c60565b6001600160a01b0389165f90815260208181526040808320938102959095018035835292905292832054909350918290039050610b6a576001600160a01b0387165f90815260026020908152604082208054600181018255908352912083359101555b6001600160a01b0387165f81815260208181526040808320863580855290835281842083880135908190558585526001808552838620838752855283862084516060810186528381526001600160401b0343818116838a0190815265ffffffffffff42818116868c019081528754808a018955888f529c909d2095516002909c029095019a8b5590519990950180549a51909516600160401b026001600160701b0319909a1698909116979097179790971790915592519295919491937fa1a325dd3ab50a50da29b7e0c70017d7834b6d6565bd3518be12f123084109fe93610c659391909283526020830191909152604082015260600190565b60405180910390a3505050806001019050610aec565b5050505050565b6001600160a01b0383165f90815260208181526040808320858452909152902054151580610cd5576001600160a01b0384165f908152600260209081526040822080546001810182559083529120018390555b6001600160a01b0384165f818152602081815260408083208784528252808320869055838352600180835281842088855283528184208251606080820185528982526001600160401b034381811684890190815265ffffffffffff42818116878b019081528854808b018a55898e529c8c902097516002909d029097019b8c5591519a90970180549551909716600160401b026001600160701b03199095169990921698909817929092179093558351898152948501529183019390935292869290917fa1a325dd3ab50a50da29b7e0c70017d7834b6d6565bd3518be12f123084109fe910160405180910390a35050505050565b6001600160a01b0382165f9081526001602090815260408083208484528252808320805482518185028101850190935280835260609492939192909184015b82821015610e67575f8481526020908190206040805160608101825260028602909201805483526001908101546001600160401b03811684860152600160401b900465ffffffffffff16918301919091529083529092019101610e09565b50505050905092915050565b6001600160a01b0383165f9081526001602090815260408083208584529091528120805460609203610eb85760405163163aee1b60e21b815260040160405180910390fd5b5f610ec482855f611898565b8254909150610ed590600190611c4d565b8110610ef45760405163163aee1b60e21b815260040160405180910390fd5b5f610f00826001611c8c565b83549091505f90610f12908390611c4d565b90505f816001600160401b03811115610f2d57610f2d611c9f565b604051908082528060200260200182016040528015610f7657816020015b604080516060810182525f80825260208083018290529282015282525f19909201910181610f4b5790505b5090505f5b828110156110125785610f8e8286611c8c565b81548110610f9e57610f9e611c60565b5f9182526020918290206040805160608101825260029390930290910180548352600101546001600160401b03811693830193909352600160401b90920465ffffffffffff16918101919091528251839083908110610fff57610fff611c60565b6020908102919091010152600101610f7b565b5098975050505050505050565b604080516060810182525f80825260208083018290528284018290526001600160a01b038716825260018152838220868352905291909120805483106110785760405163d9ba09d160e01b815260040160405180910390fd5b80838154811061108a5761108a611c60565b5f9182526020918290206040805160608101825260029390930290910180548352600101546001600160401b03811693830193909352600160401b90920465ffffffffffff169181019190915295945050505050565b6001600160a01b0383165f90815260016020908152604080832085845290915281208054606092036111255760405163163aee1b60e21b815260040160405180910390fd5b5f61113282856001611898565b9050805f036111545760405163163aee1b60e21b815260040160405180910390fd5b5f816001600160401b0381111561116d5761116d611c9f565b6040519080825280602002602001820160405280156111b657816020015b604080516060810182525f80825260208083018290529282015282525f1990920191018161118b5790505b5090505f5b82811015611249578381815481106111d5576111d5611c60565b5f9182526020918290206040805160608101825260029390930290910180548352600101546001600160401b03811693830193909352600160401b90920465ffffffffffff1691810191909152825183908390811061123657611236611c60565b60209081029190910101526001016111bb565b509695505050505050565b6060816001600160401b0381111561126e5761126e611c9f565b604051908082528060200260200182016040528015611297578160200160208202803683370190505b5090505f5b82811015611308576001600160a01b0385165f908152602081905260408120908585848181106112ce576112ce611c60565b9050602002013581526020019081526020015f20548282815181106112f5576112f5611c60565b602090810291909101015260010161129c565b509392505050565b6001600160a01b0383165f90815260016020908152604080832085845290915281208054606092036113555760405163163aee1b60e21b815260040160405180910390fd5b5f61136282856001611898565b825490915061137390600190611c4d565b81106113925760405163163aee1b60e21b815260040160405180910390fd5b5f61139e826001611c8c565b83549091505f906113b0908390611c4d565b90505f816001600160401b038111156113cb576113cb611c9f565b60405190808252806020026020018201604052801561141457816020015b604080516060810182525f80825260208083018290529282015282525f199092019101816113e95790505b5090505f5b82811015611012578561142c8286611c8c565b8154811061143c5761143c611c60565b5f9182526020918290206040805160608101825260029390930290910180548352600101546001600160401b03811693830193909352600160401b90920465ffffffffffff1691810191909152825183908390811061149d5761149d611c60565b6020908102919091010152600101611419565b60608183106114d257604051638eee879d60e01b815260040160405180910390fd5b6001600160a01b0385165f908152600160209081526040808320878452909152812080549091036115165760405163163aee1b60e21b815260040160405180910390fd5b5f61152282865f611898565b8254909150811061153e57815461153b90600190611c4d565b90505b8482828154811061155157611551611c60565b5f9182526020909120600160029092020101546001600160401b03161080156115865750815461158390600190611c4d565b81105b15611599578061159581611c74565b9150505b5f6115a583865f611898565b835490915081106115c15782546115be90600190611c4d565b90505b808211806115fc5750848383815481106115dd576115dd611c60565b5f9182526020909120600160029092020101546001600160401b031610155b1561161a5760405163163aee1b60e21b815260040160405180910390fd5b5f6116258383611c4d565b611630906001611c8c565b90505f816001600160401b0381111561164b5761164b611c9f565b60405190808252806020026020018201604052801561169457816020015b604080516060810182525f80825260208083018290529282015282525f199092019101816116695790505b5090505f5b8281101561055d57856116ac8287611c8c565b815481106116bc576116bc611c60565b5f9182526020918290206040805160608101825260029390930290910180548352600101546001600160401b03811693830193909352600160401b90920465ffffffffffff1691810191909152825183908390811061171d5761171d611c60565b6020908102919091010152600101611699565b6001600160a01b0383165f90815260016020908152604080832085845290915281208054606092036117755760405163163aee1b60e21b815260040160405180910390fd5b5f61178182855f611898565b9050805f036117a35760405163163aee1b60e21b815260040160405180910390fd5b5f816001600160401b038111156117bc576117bc611c9f565b60405190808252806020026020018201604052801561180557816020015b604080516060810182525f80825260208083018290529282015282525f199092019101816117da5790505b5090505f5b828110156112495783818154811061182457611824611c60565b5f9182526020918290206040805160608101825260029390930290910180548352600101546001600160401b03811693830193909352600160401b90920465ffffffffffff1691810191909152825183908390811061188557611885611c60565b602090810291909101015260010161180a565b82545f9081036118a957505f610928565b83545f5b81811015611973575f6118c08284611995565b90505f808660018111156118d6576118d6611cb3565b14611914578782815481106118ed576118ed611c60565b5f918252602090912060029091020160010154600160401b900465ffffffffffff16611943565b87828154811061192657611926611c60565b5f9182526020909120600160029092020101546001600160401b03165b6001600160401b031690508681111561195e5781935061196c565b611969826001611c8c565b92505b50506118ad565b811561198957611984600183611c4d565b61198b565b5f5b9695505050505050565b5f6119a36002848418611cc7565b61092890848416611c8c565b80356001600160a01b03811681146119c5575f5ffd5b919050565b5f5f5f5f608085870312156119dd575f5ffd5b6119e6856119af565b966020860135965060408601359560600135945092505050565b602080825282518282018190525f918401906040840190835b81811015611a6757611a51838551805182526020808201516001600160401b03169083015260409081015165ffffffffffff16910152565b6020939093019260609290920191600101611a19565b509095945050505050565b5f5f60408385031215611a83575f5ffd5b611a8c836119af565b946020939093013593505050565b5f5f5f60608486031215611aac575f5ffd5b611ab5846119af565b95602085013595506040909401359392505050565b815181526020808301516001600160401b03169082015260408083015165ffffffffffff1690820152606081016107f1565b5f60208284031215611b0c575f5ffd5b610928826119af565b602080825282518282018190525f918401906040840190835b81811015611a67578351835260209384019390920191600101611b2e565b5f5f5f60408486031215611b5e575f5ffd5b611b67846119af565b925060208401356001600160401b03811115611b81575f5ffd5b8401601f81018613611b91575f5ffd5b80356001600160401b03811115611ba6575f5ffd5b8660208260061b8401011115611bba575f5ffd5b939660209190910195509293505050565b5f5f5f60408486031215611bdd575f5ffd5b611be6846119af565b925060208401356001600160401b03811115611c00575f5ffd5b8401601f81018613611c10575f5ffd5b80356001600160401b03811115611c25575f5ffd5b8660208260051b8401011115611bba575f5ffd5b634e487b7160e01b5f52601160045260245ffd5b818103818111156107f1576107f1611c39565b634e487b7160e01b5f52603260045260245ffd5b5f60018201611c8557611c85611c39565b5060010190565b808201808211156107f1576107f1611c39565b634e487b7160e01b5f52604160045260245ffd5b634e487b7160e01b5f52602160045260245ffd5b5f82611ce157634e487b7160e01b5f52601260045260245ffd5b50049056fea2646970667358221220edca0ce08bacd5a15597776cfb65313116f5feaf3e37692c5821e02f1cc82c8664736f6c634300081b0033",
        "nonce": "0x5",
        "chainId": "0x7a69"
      },
      "additionalContracts": [],
      "isFixedGasLimit": false
    },
    {
      "hash": "0x32e59c474a7237870f53fad234514eb00cd41e885998bcfcb69a94de72577c95",
      "transactionType": "CALL",
      "contractName": "StateManager",
      "contractAddress": "0x5fc8d32690cc91d4c39d9d3abcbd16989f875707",
      "function": "setValue(address,uint256,uint256)",
      "arguments": [
        "0x0000000000000000000000000000000000001111",
        "1",
        "100000000000000000000"
      ],
      "transaction": {
        "from": "0xf39fd6e51aad88f6f4ce6ab8827279cfffb92266",
        "to": "0x5fc8d32690cc91d4c39d9d3abcbd16989f875707",
        "gas": "0x38649",
        "value": "0x0",
        "input": "0x6687f006000000000000000000000000000000000000000000000000000000000000111100000000000000000000000000000000000000000000000000000000000000010000000000000000000000000000000000000000000000056bc75e2d63100000",
        "nonce": "0x6",
        "chainId": "0x7a69"
      },
      "additionalContracts": [],
      "isFixedGasLimit": false
    },
    {
      "hash": "0xa183c120e02eddd632849fc9eb00c3caca4a53f1379642933aa86ad88a61e412",
      "transactionType": "CALL",
      "contractName": "StateManager",
      "contractAddress": "0x5fc8d32690cc91d4c39d9d3abcbd16989f875707",
      "function": "setValue(address,uint256,uint256)",
      "arguments": [
        "0x0000000000000000000000000000000000001111",
        "1",
        "150000000000000000000"
      ],
      "transaction": {
        "from": "0xf39fd6e51aad88f6f4ce6ab8827279cfffb92266",
        "to": "0x5fc8d32690cc91d4c39d9d3abcbd16989f875707",
        "gas": "0x1ac3f",
        "value": "0x0",
        "input": "0x6687f0060000000000000000000000000000000000000000000000000000000000001111000000000000000000000000000000000000000000000000000000000000000100000000000000000000000000000000000000000000000821ab0d4414980000",
        "nonce": "0x7",
        "chainId": "0x7a69"
      },
      "additionalContracts": [],
      "isFixedGasLimit": false
    },
    {
      "hash": "0x5bef97867cc074c29f137922930533c93ddd832b1fd7eb4de4d8322109610427",
      "transactionType": "CALL",
      "contractName": "StateManager",
      "contractAddress": "0x5fc8d32690cc91d4c39d9d3abcbd16989f875707",
      "function": "setValue(address,uint256,uint256)",
      "arguments": [
        "0x0000000000000000000000000000000000001111",
        "1",
        "200000000000000000000"
      ],
      "transaction": {
        "from": "0xf39fd6e51aad88f6f4ce6ab8827279cfffb92266",
        "to": "0x5fc8d32690cc91d4c39d9d3abcbd16989f875707",
        "gas": "0x1ac3f",
        "value": "0x0",
        "input": "0x6687f0060000000000000000000000000000000000000000000000000000000000001111000000000000000000000000000000000000000000000000000000000000000100000000000000000000000000000000000000000000000ad78ebc5ac6200000",
        "nonce": "0x8",
        "chainId": "0x7a69"
      },
      "additionalContracts": [],
      "isFixedGasLimit": false
    },
    {
      "hash": "0x91178134e6f31525e3aecc97ed1109d21eddfcc0fc7ec396be5f5e579623e588",
      "transactionType": "CALL",
      "contractName": "StateManager",
      "contractAddress": "0x5fc8d32690cc91d4c39d9d3abcbd16989f875707",
      "function": "setValue(address,uint256,uint256)",
      "arguments": [
        "0x0000000000000000000000000000000000001111",
        "2",
        "50000000000000000000"
      ],
      "transaction": {
        "from": "0xf39fd6e51aad88f6f4ce6ab8827279cfffb92266",
        "to": "0x5fc8d32690cc91d4c39d9d3abcbd16989f875707",
        "gas": "0x2f7e5",
        "value": "0x0",
        "input": "0x6687f00600000000000000000000000000000000000000000000000000000000000011110000000000000000000000000000000000000000000000000000000000000002000000000000000000000000000000000000000000000002b5e3af16b1880000",
        "nonce": "0x9",
        "chainId": "0x7a69"
      },
      "additionalContracts": [],
      "isFixedGasLimit": false
    },
    {
      "hash": "0x10e88b4250f79150606fd8b91fa634e65cfd10888ee74d9a9d43182cd3feac53",
      "transactionType": "CALL",
      "contractName": "StateManager",
      "contractAddress": "0x5fc8d32690cc91d4c39d9d3abcbd16989f875707",
      "function": "setValue(address,uint256,uint256)",
      "arguments": [
        "0x0000000000000000000000000000000000001111",
        "2",
        "75000000000000000000"
      ],
      "transaction": {
        "from": "0xf39fd6e51aad88f6f4ce6ab8827279cfffb92266",
        "to": "0x5fc8d32690cc91d4c39d9d3abcbd16989f875707",
        "gas": "0x1ac3f",
        "value": "0x0",
        "input": "0x6687f0060000000000000000000000000000000000000000000000000000000000001111000000000000000000000000000000000000000000000000000000000000000200000000000000000000000000000000000000000000000410d586a20a4c0000",
        "nonce": "0xa",
        "chainId": "0x7a69"
      },
      "additionalContracts": [],
      "isFixedGasLimit": false
    },
    {
      "hash": "0x9fb585f59bd3e426a19c5d3c875fe0f910a6af6d99e6b9abf89ca434e3755551",
      "transactionType": "CALL",
      "contractName": "StateManager",
      "contractAddress": "0x5fc8d32690cc91d4c39d9d3abcbd16989f875707",
      "function": "setValue(address,uint256,uint256)",
      "arguments": [
        "0x0000000000000000000000000000000000001111",
        "3",
        "5000000000000000000"
      ],
      "transaction": {
        "from": "0xf39fd6e51aad88f6f4ce6ab8827279cfffb92266",
        "to": "0x5fc8d32690cc91d4c39d9d3abcbd16989f875707",
        "gas": "0x32487",
        "value": "0x0",
        "input": "0x6687f006000000000000000000000000000000000000000000000000000000000000111100000000000000000000000000000000000000000000000000000000000000030000000000000000000000000000000000000000000000004563918244f40000",
        "nonce": "0xb",
        "chainId": "0x7a69"
      },
      "additionalContracts": [],
      "isFixedGasLimit": false
    },
    {
      "hash": "0x9737bb9e5af31f4fdd0384db2ddb911b4c4732b3293012e65c3c6039a064b7d8",
      "transactionType": "CALL",
      "contractName": "StateManager",
      "contractAddress": "0x5fc8d32690cc91d4c39d9d3abcbd16989f875707",
      "function": "setValue(address,uint256,uint256)",
      "arguments": [
        "0x0000000000000000000000000000000000002222",
        "1",
        "500000000000000000000"
      ],
      "transaction": {
        "from": "0xf39fd6e51aad88f6f4ce6ab8827279cfffb92266",
        "to": "0x5fc8d32690cc91d4c39d9d3abcbd16989f875707",
        "gas": "0x38649",
        "value": "0x0",
        "input": "0x6687f0060000000000000000000000000000000000000000000000000000000000002222000000000000000000000000000000000000000000000000000000000000000100000000000000000000000000000000000000000000001b1ae4d6e2ef500000",
        "nonce": "0xc",
        "chainId": "0x7a69"
      },
      "additionalContracts": [],
      "isFixedGasLimit": false
    },
    {
      "hash": "0xdaa529220c5e1c39878a6943cefb72d93ddaca20875dd2a8efb286203155fe64",
      "transactionType": "CALL",
      "contractName": "StateManager",
      "contractAddress": "0x5fc8d32690cc91d4c39d9d3abcbd16989f875707",
      "function": "setValue(address,uint256,uint256)",
      "arguments": [
        "0x0000000000000000000000000000000000002222",
        "2",
        "200000000000000000000"
      ],
      "transaction": {
        "from": "0xf39fd6e51aad88f6f4ce6ab8827279cfffb92266",
        "to": "0x5fc8d32690cc91d4c39d9d3abcbd16989f875707",
        "gas": "0x2f7e5",
        "value": "0x0",
        "input": "0x6687f0060000000000000000000000000000000000000000000000000000000000002222000000000000000000000000000000000000000000000000000000000000000200000000000000000000000000000000000000000000000ad78ebc5ac6200000",
        "nonce": "0xd",
        "chainId": "0x7a69"
      },
      "additionalContracts": [],
      "isFixedGasLimit": false
    },
    {
      "hash": "0xe114c1c051186d12b3cf7c973f123f87f4f7e7b0ec28a42c86034bb09a64a7c1",
      "transactionType": "CALL",
      "contractName": "StateManager",
      "contractAddress": "0x5fc8d32690cc91d4c39d9d3abcbd16989f875707",
      "function": "setValue(address,uint256,uint256)",
      "arguments": [
        "0x0000000000000000000000000000000000003333",
        "1",
        "1000000000000000000000"
      ],
      "transaction": {
        "from": "0xf39fd6e51aad88f6f4ce6ab8827279cfffb92266",
        "to": "0x5fc8d32690cc91d4c39d9d3abcbd16989f875707",
        "gas": "0x38649",
        "value": "0x0",
        "input": "0x6687f0060000000000000000000000000000000000000000000000000000000000003333000000000000000000000000000000000000000000000000000000000000000100000000000000000000000000000000000000000000003635c9adc5dea00000",
        "nonce": "0xe",
        "chainId": "0x7a69"
      },
      "additionalContracts": [],
      "isFixedGasLimit": false
    },
    {
      "hash": "0x2d8c38f0d4d374cb1b6f55236a571958283afc7e95970f061eb1d40fe0c807e4",
      "transactionType": "CALL",
      "contractName": "StateManager",
      "contractAddress": "0x5fc8d32690cc91d4c39d9d3abcbd16989f875707",
      "function": "setValue(address,uint256,uint256)",
      "arguments": [
        "0x0000000000000000000000000000000000003333",
        "2",
        "400000000000000000000"
      ],
      "transaction": {
        "from": "0xf39fd6e51aad88f6f4ce6ab8827279cfffb92266",
        "to": "0x5fc8d32690cc91d4c39d9d3abcbd16989f875707",
        "gas": "0x2f7e5",
        "value": "0x0",
        "input": "0x6687f00600000000000000000000000000000000000000000000000000000000000033330000000000000000000000000000000000000000000000000000000000000002000000000000000000000000000000000000000000000015af1d78b58c400000",
        "nonce": "0xf",
        "chainId": "0x7a69"
      },
      "additionalContracts": [],
      "isFixedGasLimit": false
    },
    {
      "hash": "0xa00c7a7f3ab8d8d8c45bfa46953e050434cdd52fedabe18b8b74337fc7144152",
      "transactionType": "CALL",
      "contractName": "StateManager",
      "contractAddress": "0x5fc8d32690cc91d4c39d9d3abcbd16989f875707",
      "function": "setValue(address,uint256,uint256)",
      "arguments": [
        "0x0000000000000000000000000000000000003333",
        "3",
        "20000000000000000000"
      ],
      "transaction": {
        "from": "0xf39fd6e51aad88f6f4ce6ab8827279cfffb92266",
        "to": "0x5fc8d32690cc91d4c39d9d3abcbd16989f875707",
        "gas": "0x2f7e5",
        "value": "0x0",
        "input": "0x6687f00600000000000000000000000000000000000000000000000000000000000033330000000000000000000000000000000000000000000000000000000000000003000000000000000000000000000000000000000000000001158e460913d00000",
        "nonce": "0x10",
        "chainId": "0x7a69"
      },
      "additionalContracts": [],
      "isFixedGasLimit": false
    },
    {
      "hash": "0x57ee082a36ce2c59f23d2aea8f7216d38342d631fdae7c24aa5a766d0b4c09bd",
      "transactionType": "CALL",
      "contractName": "StateManager",
      "contractAddress": "0x5fc8d32690cc91d4c39d9d3abcbd16989f875707",
      "function": "batchSetValues(address,(uint256,uint256)[])",
      "arguments": [
        "0x0000000000000000000000000000000000003333",
        "[(1, 1200000000000000000000), (2, 500000000000000000000)]"
      ],
      "transaction": {
        "from": "0xf39fd6e51aad88f6f4ce6ab8827279cfffb92266",
        "to": "0x5fc8d32690cc91d4c39d9d3abcbd16989f875707",
        "gas": "0x2e85b",
        "value": "0x0",
        "input": "0x4cb6878600000000000000000000000000000000000000000000000000000000000033330000000000000000000000000000000000000000000000000000000000000040000000000000000000000000000000000000000000000000000000000000000200000000000000000000000000000000000000000000000000000000000000010000000000000000000000000000000000000000000000410d586a20a4c00000000000000000000000000000000000000000000000000000000000000000000200000000000000000000000000000000000000000000001b1ae4d6e2ef500000",
        "nonce": "0x11",
        "chainId": "0x7a69"
      },
      "additionalContracts": [],
      "isFixedGasLimit": false
    }
  ],
  "receipts": [
    {
      "status": "0x1",
      "cumulativeGasUsed": "0x1967a5",
      "logs": [],
      "logsBloom": "0x00000000000000000000000000000000000000000000000000000000000000000000000000000000000000000000000000000000000000000000000000000000000000000000000000000000000000000000000000000000000000000000000000000000000000000000000000000000000000000000000000000000000000000000000000000000000000000000000000000000000000000000000000000000000000000000000000000000000000000000000000000000000000000000000000000000000000000000000000000000000000000000000000000000000000000000000000000000000000000000000000000000000000000000000000000000",
      "type": "0x2",
      "transactionHash": "0xca3deadffb3ff11ae58c67fa01097b03ad4867de8f3972d45c75b179ad00b71f",
      "transactionIndex": "0x0",
      "blockHash": "0xde73351356bc8de2822ac4644e68ce3d72a10b1c57a49309e59ebc5bc0c63e13",
      "blockNumber": "0x6",
      "gasUsed": "0x1967a5",
      "effectiveGasPrice": "0x1edb92d4",
      "blobGasPrice": "0x1",
      "from": "0xf39fd6e51aad88f6f4ce6ab8827279cfffb92266",
      "to": null,
      "contractAddress": "0x5fc8d32690cc91d4c39d9d3abcbd16989f875707"
    },
    {
      "status": "0x1",
      "cumulativeGasUsed": "0x268f3",
      "logs": [
        {
          "address": "0x5fc8d32690cc91d4c39d9d3abcbd16989f875707",
          "topics": [
            "0xa1a325dd3ab50a50da29b7e0c70017d7834b6d6565bd3518be12f123084109fe",
            "0x0000000000000000000000000000000000000000000000000000000000001111",
            "0x0000000000000000000000000000000000000000000000000000000000000001"
          ],
          "data": "0x0000000000000000000000000000000000000000000000056bc75e2d6310000000000000000000000000000000000000000000000000000000000000679fcc630000000000000000000000000000000000000000000000000000000000000007",
          "blockHash": "0x9e2d6bc84e39e9f48ebe43f48e6266877e6e51adf071a522f5d9adcb4d33399d",
          "blockNumber": "0x7",
          "blockTimestamp": "0x679fcc63",
          "transactionHash": "0x32e59c474a7237870f53fad234514eb00cd41e885998bcfcb69a94de72577c95",
          "transactionIndex": "0x0",
          "logIndex": "0x0",
          "removed": false
        }
      ],
      "logsBloom": "0x00000000000100000000000000000000000000000000000000000000000000000000000000000000000000000000000000300000000010000000000000040000000000000000000000000000000000000000000240040000000000000000002000000000000000000000000000000000000000000000000000000000000000000000000020000000000000000000000000000000000000000000000000000000000000000000000000000000000000000000000000000000000000000000000000000000000000000000000000000000000000000000000000000001000040000000000000000000000000000000000000000000000000000000000000000000",
      "type": "0x2",
      "transactionHash": "0x32e59c474a7237870f53fad234514eb00cd41e885998bcfcb69a94de72577c95",
      "transactionIndex": "0x0",
      "blockHash": "0x9e2d6bc84e39e9f48ebe43f48e6266877e6e51adf071a522f5d9adcb4d33399d",
      "blockNumber": "0x7",
      "gasUsed": "0x268f3",
      "effectiveGasPrice": "0x1b6dbaa2",
      "blobGasPrice": "0x1",
      "from": "0xf39fd6e51aad88f6f4ce6ab8827279cfffb92266",
      "to": "0x5fc8d32690cc91d4c39d9d3abcbd16989f875707",
      "contractAddress": null
    },
    {
      "status": "0x1",
      "cumulativeGasUsed": "0x1360c",
      "logs": [
        {
          "address": "0x5fc8d32690cc91d4c39d9d3abcbd16989f875707",
          "topics": [
            "0xa1a325dd3ab50a50da29b7e0c70017d7834b6d6565bd3518be12f123084109fe",
            "0x0000000000000000000000000000000000000000000000000000000000001111",
            "0x0000000000000000000000000000000000000000000000000000000000000001"
          ],
          "data": "0x00000000000000000000000000000000000000000000000821ab0d441498000000000000000000000000000000000000000000000000000000000000679fcc630000000000000000000000000000000000000000000000000000000000000008",
          "blockHash": "0xcfc094e678171a4c56225b41237c12fad4ff0e656067d6b3f22fe38451badc0c",
          "blockNumber": "0x8",
          "blockTimestamp": "0x679fcc63",
          "transactionHash": "0xa183c120e02eddd632849fc9eb00c3caca4a53f1379642933aa86ad88a61e412",
          "transactionIndex": "0x0",
          "logIndex": "0x0",
          "removed": false
        }
      ],
      "logsBloom": "0x00000000000100000000000000000000000000000000000000000000000000000000000000000000000000000000000000300000000010000000000000040000000000000000000000000000000000000000000240040000000000000000002000000000000000000000000000000000000000000000000000000000000000000000000020000000000000000000000000000000000000000000000000000000000000000000000000000000000000000000000000000000000000000000000000000000000000000000000000000000000000000000000000000001000040000000000000000000000000000000000000000000000000000000000000000000",
      "type": "0x2",
      "transactionHash": "0xa183c120e02eddd632849fc9eb00c3caca4a53f1379642933aa86ad88a61e412",
      "transactionIndex": "0x0",
      "blockHash": "0xcfc094e678171a4c56225b41237c12fad4ff0e656067d6b3f22fe38451badc0c",
      "blockNumber": "0x8",
      "gasUsed": "0x1360c",
      "effectiveGasPrice": "0x1809412f",
      "blobGasPrice": "0x1",
      "from": "0xf39fd6e51aad88f6f4ce6ab8827279cfffb92266",
      "to": "0x5fc8d32690cc91d4c39d9d3abcbd16989f875707",
      "contractAddress": null
    },
    {
      "status": "0x1",
      "cumulativeGasUsed": "0x1360c",
      "logs": [
        {
          "address": "0x5fc8d32690cc91d4c39d9d3abcbd16989f875707",
          "topics": [
            "0xa1a325dd3ab50a50da29b7e0c70017d7834b6d6565bd3518be12f123084109fe",
            "0x0000000000000000000000000000000000000000000000000000000000001111",
            "0x0000000000000000000000000000000000000000000000000000000000000001"
          ],
          "data": "0x00000000000000000000000000000000000000000000000ad78ebc5ac620000000000000000000000000000000000000000000000000000000000000679fcc630000000000000000000000000000000000000000000000000000000000000009",
          "blockHash": "0xf111c9dc2c9b4fbb06a8fc0d5efa34417a37c06c201aa44481d7e41758113426",
          "blockNumber": "0x9",
          "blockTimestamp": "0x679fcc63",
          "transactionHash": "0x5bef97867cc074c29f137922930533c93ddd832b1fd7eb4de4d8322109610427",
          "transactionIndex": "0x0",
          "logIndex": "0x0",
          "removed": false
        }
      ],
      "logsBloom": "0x00000000000100000000000000000000000000000000000000000000000000000000000000000000000000000000000000300000000010000000000000040000000000000000000000000000000000000000000240040000000000000000002000000000000000000000000000000000000000000000000000000000000000000000000020000000000000000000000000000000000000000000000000000000000000000000000000000000000000000000000000000000000000000000000000000000000000000000000000000000000000000000000000000001000040000000000000000000000000000000000000000000000000000000000000000000",
      "type": "0x2",
      "transactionHash": "0x5bef97867cc074c29f137922930533c93ddd832b1fd7eb4de4d8322109610427",
      "transactionIndex": "0x0",
      "blockHash": "0xf111c9dc2c9b4fbb06a8fc0d5efa34417a37c06c201aa44481d7e41758113426",
      "blockNumber": "0x9",
      "gasUsed": "0x1360c",
      "effectiveGasPrice": "0x150c2af3",
      "blobGasPrice": "0x1",
      "from": "0xf39fd6e51aad88f6f4ce6ab8827279cfffb92266",
      "to": "0x5fc8d32690cc91d4c39d9d3abcbd16989f875707",
      "contractAddress": null
    },
    {
      "status": "0x1",
      "cumulativeGasUsed": "0x22627",
      "logs": [
        {
          "address": "0x5fc8d32690cc91d4c39d9d3abcbd16989f875707",
          "topics": [
            "0xa1a325dd3ab50a50da29b7e0c70017d7834b6d6565bd3518be12f123084109fe",
            "0x0000000000000000000000000000000000000000000000000000000000001111",
            "0x0000000000000000000000000000000000000000000000000000000000000002"
          ],
          "data": "0x000000000000000000000000000000000000000000000002b5e3af16b188000000000000000000000000000000000000000000000000000000000000679fcc63000000000000000000000000000000000000000000000000000000000000000a",
          "blockHash": "0xd13dec54e013e46954c955f864ba014e2f81287509f21e7a402b82d4a55a5c60",
          "blockNumber": "0xa",
          "blockTimestamp": "0x679fcc63",
          "transactionHash": "0x91178134e6f31525e3aecc97ed1109d21eddfcc0fc7ec396be5f5e579623e588",
          "transactionIndex": "0x0",
          "logIndex": "0x0",
          "removed": false
        }
      ],
      "logsBloom": "0x04000000000100000000000000000000000000000000000000000000000000000000000000000000000000000000000000300000000010000000000000000000000000000000000000000000000000000000000240000000000000000000002000000000000000000000000000000000000000000000000000000000000000000000000020000000000000000000000000000000000000000000000000000000000000000000000000000100000000000000000000000000000000000000000000000000000000000000000000000000000000000000000000000001000000000000000000000000000000000000000000000000008000000000000000000000",
      "type": "0x2",
      "transactionHash": "0x91178134e6f31525e3aecc97ed1109d21eddfcc0fc7ec396be5f5e579623e588",
      "transactionIndex": "0x0",
      "blockHash": "0xd13dec54e013e46954c955f864ba014e2f81287509f21e7a402b82d4a55a5c60",
      "blockNumber": "0xa",
      "gasUsed": "0x22627",
      "effectiveGasPrice": "0x126e35f2",
      "blobGasPrice": "0x1",
      "from": "0xf39fd6e51aad88f6f4ce6ab8827279cfffb92266",
      "to": "0x5fc8d32690cc91d4c39d9d3abcbd16989f875707",
      "contractAddress": null
    },
    {
      "status": "0x1",
      "cumulativeGasUsed": "0x35c33",
      "logs": [
        {
          "address": "0x5fc8d32690cc91d4c39d9d3abcbd16989f875707",
          "topics": [
            "0xa1a325dd3ab50a50da29b7e0c70017d7834b6d6565bd3518be12f123084109fe",
            "0x0000000000000000000000000000000000000000000000000000000000001111",
            "0x0000000000000000000000000000000000000000000000000000000000000002"
          ],
          "data": "0x00000000000000000000000000000000000000000000000410d586a20a4c000000000000000000000000000000000000000000000000000000000000679fcc63000000000000000000000000000000000000000000000000000000000000000a",
          "blockHash": "0xd13dec54e013e46954c955f864ba014e2f81287509f21e7a402b82d4a55a5c60",
          "blockNumber": "0xa",
          "blockTimestamp": "0x679fcc63",
          "transactionHash": "0x10e88b4250f79150606fd8b91fa634e65cfd10888ee74d9a9d43182cd3feac53",
          "transactionIndex": "0x1",
          "logIndex": "0x1",
          "removed": false
        }
      ],
      "logsBloom": "0x04000000000100000000000000000000000000000000000000000000000000000000000000000000000000000000000000300000000010000000000000000000000000000000000000000000000000000000000240000000000000000000002000000000000000000000000000000000000000000000000000000000000000000000000020000000000000000000000000000000000000000000000000000000000000000000000000000100000000000000000000000000000000000000000000000000000000000000000000000000000000000000000000000001000000000000000000000000000000000000000000000000008000000000000000000000",
      "type": "0x2",
      "transactionHash": "0x10e88b4250f79150606fd8b91fa634e65cfd10888ee74d9a9d43182cd3feac53",
      "transactionIndex": "0x1",
      "blockHash": "0xd13dec54e013e46954c955f864ba014e2f81287509f21e7a402b82d4a55a5c60",
      "blockNumber": "0xa",
      "gasUsed": "0x1360c",
      "effectiveGasPrice": "0x126e35f2",
      "blobGasPrice": "0x1",
      "from": "0xf39fd6e51aad88f6f4ce6ab8827279cfffb92266",
      "to": "0x5fc8d32690cc91d4c39d9d3abcbd16989f875707",
      "contractAddress": null
    },
    {
      "status": "0x1",
      "cumulativeGasUsed": "0x2261b",
      "logs": [
        {
          "address": "0x5fc8d32690cc91d4c39d9d3abcbd16989f875707",
          "topics": [
            "0xa1a325dd3ab50a50da29b7e0c70017d7834b6d6565bd3518be12f123084109fe",
            "0x0000000000000000000000000000000000000000000000000000000000001111",
            "0x0000000000000000000000000000000000000000000000000000000000000003"
          ],
          "data": "0x0000000000000000000000000000000000000000000000004563918244f4000000000000000000000000000000000000000000000000000000000000679fcc63000000000000000000000000000000000000000000000000000000000000000b",
          "blockHash": "0x1b3909a248159dd9a8b187aa3531ad46a807d401aa4a6a006f9865a168b096b1",
          "blockNumber": "0xb",
          "blockTimestamp": "0x679fcc63",
          "transactionHash": "0x9fb585f59bd3e426a19c5d3c875fe0f910a6af6d99e6b9abf89ca434e3755551",
          "transactionIndex": "0x0",
          "logIndex": "0x0",
          "removed": false
        }
      ],
      "logsBloom": "0x00000000000100000000000000000000000000000000000000000000000000000000000000000000000000000000000000300000020010000000000000000000000000000000000000000000000000000000000240000000000000000000002000000000000000000000000000000000000000000000000000000000000000000000000020000000000000000000000000000000000000000000000000000000000000000000000000000000000000000000000000800000000000000000400000000000000000000000000000000000000000000000000000000001000000000000000000000000000000000000000000000000000000000000000000000000",
      "type": "0x2",
      "transactionHash": "0x9fb585f59bd3e426a19c5d3c875fe0f910a6af6d99e6b9abf89ca434e3755551",
      "transactionIndex": "0x0",
      "blockHash": "0x1b3909a248159dd9a8b187aa3531ad46a807d401aa4a6a006f9865a168b096b1",
      "blockNumber": "0xb",
      "gasUsed": "0x2261b",
      "effectiveGasPrice": "0x102917be",
      "blobGasPrice": "0x1",
      "from": "0xf39fd6e51aad88f6f4ce6ab8827279cfffb92266",
      "to": "0x5fc8d32690cc91d4c39d9d3abcbd16989f875707",
      "contractAddress": null
    },
    {
      "status": "0x1",
      "cumulativeGasUsed": "0x268f3",
      "logs": [
        {
          "address": "0x5fc8d32690cc91d4c39d9d3abcbd16989f875707",
          "topics": [
            "0xa1a325dd3ab50a50da29b7e0c70017d7834b6d6565bd3518be12f123084109fe",
            "0x0000000000000000000000000000000000000000000000000000000000002222",
            "0x0000000000000000000000000000000000000000000000000000000000000001"
          ],
          "data": "0x00000000000000000000000000000000000000000000001b1ae4d6e2ef50000000000000000000000000000000000000000000000000000000000000679fcc63000000000000000000000000000000000000000000000000000000000000000c",
          "blockHash": "0xeaf0570a4b2a14b5359868ce261099a02c0d69e44657b31dfffb156316fad746",
          "blockNumber": "0xc",
          "blockTimestamp": "0x679fcc63",
          "transactionHash": "0x9737bb9e5af31f4fdd0384db2ddb911b4c4732b3293012e65c3c6039a064b7d8",
          "transactionIndex": "0x0",
          "logIndex": "0x0",
          "removed": false
        }
      ],
      "logsBloom": "0x00000000000000000000000000000000000000000000000000000000000000000000000000000000000000000000000000100000000010000000000000040000000000000000000000000000000000000000000242040000000000000000000000000000000008000000000000000000000000000000000000000000000000000000000020000000000000000000000000000000000000000000000000000000000000000000000000000000000000000000000000000000000000000000000000000000000000000000000000000000000000000000000000000001000040000000000000000000000000000000000000000000000000000000000000040000",
      "type": "0x2",
      "transactionHash": "0x9737bb9e5af31f4fdd0384db2ddb911b4c4732b3293012e65c3c6039a064b7d8",
      "transactionIndex": "0x0",
      "blockHash": "0xeaf0570a4b2a14b5359868ce261099a02c0d69e44657b31dfffb156316fad746",
      "blockNumber": "0xc",
      "gasUsed": "0x268f3",
      "effectiveGasPrice": "0xe28cfb0",
      "blobGasPrice": "0x1",
      "from": "0xf39fd6e51aad88f6f4ce6ab8827279cfffb92266",
      "to": "0x5fc8d32690cc91d4c39d9d3abcbd16989f875707",
      "contractAddress": null
    },
    {
      "status": "0x1",
      "cumulativeGasUsed": "0x22627",
      "logs": [
        {
          "address": "0x5fc8d32690cc91d4c39d9d3abcbd16989f875707",
          "topics": [
            "0xa1a325dd3ab50a50da29b7e0c70017d7834b6d6565bd3518be12f123084109fe",
            "0x0000000000000000000000000000000000000000000000000000000000002222",
            "0x0000000000000000000000000000000000000000000000000000000000000002"
          ],
          "data": "0x00000000000000000000000000000000000000000000000ad78ebc5ac620000000000000000000000000000000000000000000000000000000000000679fcc63000000000000000000000000000000000000000000000000000000000000000d",
          "blockHash": "0xd69ebda92ca7c03208c59b1a473930012428359d0ce718782d07d3c3128f90ee",
          "blockNumber": "0xd",
          "blockTimestamp": "0x679fcc63",
          "transactionHash": "0xdaa529220c5e1c39878a6943cefb72d93ddaca20875dd2a8efb286203155fe64",
          "transactionIndex": "0x0",
          "logIndex": "0x0",
          "removed": false
        }
      ],
      "logsBloom": "0x04000000000000000000000000000000000000000000000000000000000000000000000000000000000000000000000000100000000010000000000000000000000000000000000000000000000000000000000242000000000000000000000000000000000008000000000000000000000000000000000000000000000000000000000020000000000000000000000000000000000000000000000000000000000000000000000000000100000000000000000000000000000000000000000000000000000000000000000000000000000000000000000000000001000000000000000000000000000000000000000000000000008000000000000000040000",
      "type": "0x2",
      "transactionHash": "0xdaa529220c5e1c39878a6943cefb72d93ddaca20875dd2a8efb286203155fe64",
      "transactionIndex": "0x0",
      "blockHash": "0xd69ebda92ca7c03208c59b1a473930012428359d0ce718782d07d3c3128f90ee",
      "blockNumber": "0xd",
      "gasUsed": "0x22627",
      "effectiveGasPrice": "0xc687b0f",
      "blobGasPrice": "0x1",
      "from": "0xf39fd6e51aad88f6f4ce6ab8827279cfffb92266",
      "to": "0x5fc8d32690cc91d4c39d9d3abcbd16989f875707",
      "contractAddress": null
    },
    {
      "status": "0x1",
      "cumulativeGasUsed": "0x268f3",
      "logs": [
        {
          "address": "0x5fc8d32690cc91d4c39d9d3abcbd16989f875707",
          "topics": [
            "0xa1a325dd3ab50a50da29b7e0c70017d7834b6d6565bd3518be12f123084109fe",
            "0x0000000000000000000000000000000000000000000000000000000000003333",
            "0x0000000000000000000000000000000000000000000000000000000000000001"
          ],
          "data": "0x00000000000000000000000000000000000000000000003635c9adc5dea0000000000000000000000000000000000000000000000000000000000000679fcc63000000000000000000000000000000000000000000000000000000000000000e",
          "blockHash": "0x848490b9c7bc162781ccbe6072f7b85a1800fc6f8b4e2f3dc2c4f5c08ead8d29",
          "blockNumber": "0xe",
          "blockTimestamp": "0x679fcc63",
          "transactionHash": "0xe114c1c051186d12b3cf7c973f123f87f4f7e7b0ec28a42c86034bb09a64a7c1",
          "transactionIndex": "0x0",
          "logIndex": "0x0",
          "removed": false
        }
      ],
      "logsBloom": "0x00000000000000000000000000000000000000000000000000000000000000000000000000000000000000000000000000100000000010000000000000040000000000000000000000000000000000000000000240042000000010000000000000000000000000000000000000000000000000000000000000000000000000000000000020000000000000000000000000000000000004000000000000000000000000000000000000000000000000000000000000000000000000000000000000000000000000000000000000000000000000000000000000000001000040000000000000000000000000000000000000000000000000000000000000000000",
      "type": "0x2",
      "transactionHash": "0xe114c1c051186d12b3cf7c973f123f87f4f7e7b0ec28a42c86034bb09a64a7c1",
      "transactionIndex": "0x0",
      "blockHash": "0x848490b9c7bc162781ccbe6072f7b85a1800fc6f8b4e2f3dc2c4f5c08ead8d29",
      "blockNumber": "0xe",
      "gasUsed": "0x268f3",
      "effectiveGasPrice": "0xadf2613",
      "blobGasPrice": "0x1",
      "from": "0xf39fd6e51aad88f6f4ce6ab8827279cfffb92266",
      "to": "0x5fc8d32690cc91d4c39d9d3abcbd16989f875707",
      "contractAddress": null
    },
    {
      "status": "0x1",
      "cumulativeGasUsed": "0x48f1a",
      "logs": [
        {
          "address": "0x5fc8d32690cc91d4c39d9d3abcbd16989f875707",
          "topics": [
            "0xa1a325dd3ab50a50da29b7e0c70017d7834b6d6565bd3518be12f123084109fe",
            "0x0000000000000000000000000000000000000000000000000000000000003333",
            "0x0000000000000000000000000000000000000000000000000000000000000002"
          ],
          "data": "0x000000000000000000000000000000000000000000000015af1d78b58c40000000000000000000000000000000000000000000000000000000000000679fcc63000000000000000000000000000000000000000000000000000000000000000e",
          "blockHash": "0x848490b9c7bc162781ccbe6072f7b85a1800fc6f8b4e2f3dc2c4f5c08ead8d29",
          "blockNumber": "0xe",
          "blockTimestamp": "0x679fcc63",
          "transactionHash": "0x2d8c38f0d4d374cb1b6f55236a571958283afc7e95970f061eb1d40fe0c807e4",
          "transactionIndex": "0x1",
          "logIndex": "0x1",
          "removed": false
        }
      ],
      "logsBloom": "0x04000000000000000000000000000000000000000000000000000000000000000000000000000000000000000000000000100000000010000000000000000000000000000000000000000000000000000000000240002000000010000000000000000000000000000000000000000000000000000000000000000000000000000000000020000000000000000000000000000000000004000000000000000000000000000000000000000100000000000000000000000000000000000000000000000000000000000000000000000000000000000000000000000001000000000000000000000000000000000000000000000000008000000000000000000000",
      "type": "0x2",
      "transactionHash": "0x2d8c38f0d4d374cb1b6f55236a571958283afc7e95970f061eb1d40fe0c807e4",
      "transactionIndex": "0x1",
      "blockHash": "0x848490b9c7bc162781ccbe6072f7b85a1800fc6f8b4e2f3dc2c4f5c08ead8d29",
      "blockNumber": "0xe",
      "gasUsed": "0x22627",
      "effectiveGasPrice": "0xadf2613",
      "blobGasPrice": "0x1",
      "from": "0xf39fd6e51aad88f6f4ce6ab8827279cfffb92266",
      "to": "0x5fc8d32690cc91d4c39d9d3abcbd16989f875707",
      "contractAddress": null
    },
    {
      "status": "0x1",
      "cumulativeGasUsed": "0x6b541",
      "logs": [
        {
          "address": "0x5fc8d32690cc91d4c39d9d3abcbd16989f875707",
          "topics": [
            "0xa1a325dd3ab50a50da29b7e0c70017d7834b6d6565bd3518be12f123084109fe",
            "0x0000000000000000000000000000000000000000000000000000000000003333",
            "0x0000000000000000000000000000000000000000000000000000000000000003"
          ],
          "data": "0x000000000000000000000000000000000000000000000001158e460913d0000000000000000000000000000000000000000000000000000000000000679fcc63000000000000000000000000000000000000000000000000000000000000000e",
          "blockHash": "0x848490b9c7bc162781ccbe6072f7b85a1800fc6f8b4e2f3dc2c4f5c08ead8d29",
          "blockNumber": "0xe",
          "blockTimestamp": "0x679fcc63",
          "transactionHash": "0xa00c7a7f3ab8d8d8c45bfa46953e050434cdd52fedabe18b8b74337fc7144152",
          "transactionIndex": "0x2",
          "logIndex": "0x2",
          "removed": false
        }
      ],
      "logsBloom": "0x00000000000000000000000000000000000000000000000000000000000000000000000000000000000000000000000000100000020010000000000000000000000000000000000000000000000000000000000240002000000010000000000000000000000000000000000000000000000000000000000000000000000000000000000020000000000000000000000000000000000004000000000000000000000000000000000000000000000000000000000000800000000000000000400000000000000000000000000000000000000000000000000000000001000000000000000000000000000000000000000000000000000000000000000000000000",
      "type": "0x2",
      "transactionHash": "0xa00c7a7f3ab8d8d8c45bfa46953e050434cdd52fedabe18b8b74337fc7144152",
      "transactionIndex": "0x2",
      "blockHash": "0x848490b9c7bc162781ccbe6072f7b85a1800fc6f8b4e2f3dc2c4f5c08ead8d29",
      "blockNumber": "0xe",
      "gasUsed": "0x22627",
      "effectiveGasPrice": "0xadf2613",
      "blobGasPrice": "0x1",
      "from": "0xf39fd6e51aad88f6f4ce6ab8827279cfffb92266",
      "to": "0x5fc8d32690cc91d4c39d9d3abcbd16989f875707",
      "contractAddress": null
    },
    {
      "status": "0x1",
      "cumulativeGasUsed": "0x21ae7",
      "logs": [
        {
          "address": "0x5fc8d32690cc91d4c39d9d3abcbd16989f875707",
          "topics": [
            "0xa1a325dd3ab50a50da29b7e0c70017d7834b6d6565bd3518be12f123084109fe",
            "0x0000000000000000000000000000000000000000000000000000000000003333",
            "0x0000000000000000000000000000000000000000000000000000000000000001"
          ],
          "data": "0x0000000000000000000000000000000000000000000000410d586a20a4c0000000000000000000000000000000000000000000000000000000000000679fcc63000000000000000000000000000000000000000000000000000000000000000f",
          "blockHash": "0xcd3142c75494d59eb377d89bce78ac39f87bd9a7cd0143bc35a800ab8ca4bbe9",
          "blockNumber": "0xf",
          "blockTimestamp": "0x679fcc63",
          "transactionHash": "0x57ee082a36ce2c59f23d2aea8f7216d38342d631fdae7c24aa5a766d0b4c09bd",
          "transactionIndex": "0x0",
          "logIndex": "0x0",
          "removed": false
        },
        {
          "address": "0x5fc8d32690cc91d4c39d9d3abcbd16989f875707",
          "topics": [
            "0xa1a325dd3ab50a50da29b7e0c70017d7834b6d6565bd3518be12f123084109fe",
            "0x0000000000000000000000000000000000000000000000000000000000003333",
            "0x0000000000000000000000000000000000000000000000000000000000000002"
          ],
          "data": "0x00000000000000000000000000000000000000000000001b1ae4d6e2ef50000000000000000000000000000000000000000000000000000000000000679fcc63000000000000000000000000000000000000000000000000000000000000000f",
          "blockHash": "0xcd3142c75494d59eb377d89bce78ac39f87bd9a7cd0143bc35a800ab8ca4bbe9",
          "blockNumber": "0xf",
          "blockTimestamp": "0x679fcc63",
          "transactionHash": "0x57ee082a36ce2c59f23d2aea8f7216d38342d631fdae7c24aa5a766d0b4c09bd",
          "transactionIndex": "0x0",
          "logIndex": "0x1",
          "removed": false
        }
      ],
      "logsBloom": "0x04000000000000000000000000000000000000000000000000000000000000000000000000000000000000000000000000100000000010000000000000040000000000000000000000000000000000000000000240042000000010000000000000000000000000000000000000000000000000000000000000000000000000000000000020000000000000000000000000000000000004000000000000000000000000000000000000000100000000000000000000000000000000000000000000000000000000000000000000000000000000000000000000000001000040000000000000000000000000000000000000000000008000000000000000000000",
      "type": "0x2",
      "transactionHash": "0x57ee082a36ce2c59f23d2aea8f7216d38342d631fdae7c24aa5a766d0b4c09bd",
      "transactionIndex": "0x0",
      "blockHash": "0xcd3142c75494d59eb377d89bce78ac39f87bd9a7cd0143bc35a800ab8ca4bbe9",
      "blockNumber": "0xf",
      "gasUsed": "0x21ae7",
      "effectiveGasPrice": "0x98d737e",
      "blobGasPrice": "0x1",
      "from": "0xf39fd6e51aad88f6f4ce6ab8827279cfffb92266",
      "to": "0x5fc8d32690cc91d4c39d9d3abcbd16989f875707",
      "contractAddress": null
    }
  ],
  "libraries": [],
  "pending": [],
  "returns": {},
  "timestamp": 1738525795,
  "chain": 31337,
  "commit": "74f003a"
}