{
  "transactions": [
    {
      "hash": "0x88a14e3146cb2f2628a67114de58ecef886e43de7856a9950deb159800beeeac",
      "transactionType": "CREATE",
      "contractName": "StateManager",
      "contractAddress": "0x5fc8d32690cc91d4c39d9d3abcbd16989f875707",
      "function": null,
      "arguments": null,
      "transaction": {
        "from": "0xf39fd6e51aad88f6f4ce6ab8827279cfffb92266",
        "gas": "0x20937d",
        "value": "0x0",
        "input": "0x6080604052348015600e575f5ffd5b50611cb38061001c5f395ff3fe608060405234801561000f575f5ffd5b5060043610610106575f3560e01c8063937cad891161009e578063badd55e61161006e578063badd55e614610220578063c4c31cf914610233578063de90452a14610246578063e78372bb14610259578063fa7493631461029a575f5ffd5b8063937cad89146101d4578063a0f72401146101e7578063a80832f2146101fa578063b89291531461020d575f5ffd5b806335c7fa54116100d957806335c7fa54146101865780634cb68786146101995780636687f006146101ae5780638bdf5803146101c1575f5ffd5b806308244ee51461010a578063173b2fdd146101335780632edc01b1146101465780633503418f14610166575b5f5ffd5b61011d610118366004611961565b6102cf565b60405161012a9190611997565b60405180910390f35b61011d610141366004611a09565b61056b565b610159610154366004611a31565b6107f7565b60405161012a9190611a61565b610179610174366004611a93565b61092f565b60405161012a9190611aac565b610159610194366004611a31565b610998565b6101ac6101a7366004611ae3565b610a5e565b005b6101ac6101bc366004611a31565b610c19565b61011d6101cf366004611a09565b610d61565b61011d6101e2366004611a31565b610e0a565b6101596101f5366004611a31565b610fb6565b61011d610208366004611a31565b611077565b61017961021b366004611b62565b6111eb565b61011d61022e366004611a31565b6112a7565b61011d610241366004611961565b611447565b61011d610254366004611a31565b6116c7565b61028c610267366004611a09565b6001600160a01b03919091165f90815260208181526040808320938352929052205490565b60405190815260200161012a565b61028c6102a8366004611a09565b6001600160a01b03919091165f908152600160209081526040808320938352929052205490565b60608183106102f1576040516322769e1d60e11b815260040160405180910390fd5b6001600160a01b0385165f908152600160209081526040808320878452909152812080549091036103355760405163163aee1b60e21b815260040160405180910390fd5b5f6103428286600161182f565b8254909150811061035e57815461035b90600190611be4565b90505b8482828154811061037157610371611bf7565b5f918252602090912060029091020160010154600160401b900465ffffffffffff161080156103ac575081546103a990600190611be4565b81105b156103bf57806103bb81611c0b565b9150505b5f6103cc8386600161182f565b835490915081106103e85782546103e590600190611be4565b90505b8082118061042957508483838154811061040457610404611bf7565b5f918252602090912060029091020160010154600160401b900465ffffffffffff1610155b156104475760405163163aee1b60e21b815260040160405180910390fd5b5f6104528383611be4565b61045d906001611c23565b90505f816001600160401b0381111561047857610478611c36565b6040519080825280602002602001820160405280156104c157816020015b604080516060810182525f80825260208083018290529282015282525f199092019101816104965790505b5090505f5b8281101561055d57856104d98287611c23565b815481106104e9576104e9611bf7565b5f9182526020918290206040805160608101825260029390930290910180548352600101546001600160401b03811693830193909352600160401b90920465ffffffffffff1691810191909152825183908390811061054a5761054a611bf7565b60209081029190910101526001016104c6565b509998505050505050505050565b6001600160a01b0382165f9081526002602052604081208054606092036105a55760405163163aee1b60e21b815260040160405180910390fd5b5f805b825481101561060e576001600160a01b0386165f90815260016020526040812084549091908590849081106105df576105df611bf7565b905f5260205f20015481526020019081526020015f2080549050826106049190611c23565b91506001016105a8565b505f81851161061d578461061f565b815b9050805f036106415760405163163aee1b60e21b815260040160405180910390fd5b5f816001600160401b0381111561065a5761065a611c36565b6040519080825280602002602001820160405280156106a357816020015b604080516060810182525f80825260208083018290529282015282525f199092019101816106785790505b5090505f805b8554811080156106b857508382105b156107e8576001600160a01b0389165f908152600160205260408120875482908990859081106106ea576106ea611bf7565b5f918252602080832090910154835282019290925260400181208054909250905b818110801561071957508685105b156107d257828161072b600185611be4565b6107359190611be4565b8154811061074557610745611bf7565b5f9182526020918290206040805160608101825260029390930290910180548352600101546001600160401b03811693830193909352600160401b90920465ffffffffffff169181019190915286518790879081106107a6576107a6611bf7565b602002602001018190525084806107bc90611c0b565b95505080806107ca90611c0b565b91505061070b565b50505080806107e090611c0b565b9150506106a9565b50909450505050505b92915050565b604080516060810182525f80825260208083018290528284018290526001600160a01b038716825260018152838220868352905291822080549192909190036108535760405163163aee1b60e21b815260040160405180910390fd5b5f6108608285600161182f565b8254909150811015806108a657508382828154811061088157610881611bf7565b5f918252602090912060029091020160010154600160401b900465ffffffffffff1614155b156108c4576040516345150cc760e01b815260040160405180910390fd5b8181815481106108d6576108d6611bf7565b5f9182526020918290206040805160608101825260029390930290910180548352600101546001600160401b03811693830193909352600160401b90920465ffffffffffff1691810191909152925050505b9392505050565b6001600160a01b0381165f9081526002602090815260409182902080548351818402810184019094528084526060939283018282801561098c57602002820191905f5260205f20905b815481526020019060010190808311610978575b50505050509050919050565b604080516060810182525f80825260208083018290528284018290526001600160a01b038716825260018152838220868352905291822080549192909190036109f45760405163163aee1b60e21b815260040160405180910390fd5b5f610a0082855f61182f565b825490915081101580610a40575083828281548110610a2157610a21611bf7565b5f9182526020909120600160029092020101546001600160401b031614155b156108c457604051633e22764d60e11b815260040160405180910390fd5b806064811115610a8157604051638d6e7a7960e01b815260040160405180910390fd5b5f5b81811015610c125736848483818110610a9e57610a9e611bf7565b6001600160a01b0389165f90815260208181526040808320938102959095018035835292905292832054909350918290039050610b01576001600160a01b0387165f90815260026020908152604082208054600181018255908352912083359101555b6001600160a01b0387165f81815260208181526040808320863580855290835281842083880135908190558585526001808552838620838752855283862084516060810186528381526001600160401b0343818116838a0190815265ffffffffffff42818116868c019081528754808a018955888f529c909d2095516002909c029095019a8b5590519990950180549a51909516600160401b026001600160701b0319909a1698909116979097179790971790915592519295919491937fa1a325dd3ab50a50da29b7e0c70017d7834b6d6565bd3518be12f123084109fe93610bfc9391909283526020830191909152604082015260600190565b60405180910390a3505050806001019050610a83565b5050505050565b6001600160a01b0383165f90815260208181526040808320858452909152902054151580610c6c576001600160a01b0384165f908152600260209081526040822080546001810182559083529120018390555b6001600160a01b0384165f818152602081815260408083208784528252808320869055838352600180835281842088855283528184208251606080820185528982526001600160401b034381811684890190815265ffffffffffff42818116878b019081528854808b018a55898e529c8c902097516002909d029097019b8c5591519a90970180549551909716600160401b026001600160701b03199095169990921698909817929092179093558351898152948501529183019390935292869290917fa1a325dd3ab50a50da29b7e0c70017d7834b6d6565bd3518be12f123084109fe910160405180910390a35050505050565b6001600160a01b0382165f9081526001602090815260408083208484528252808320805482518185028101850190935280835260609492939192909184015b82821015610dfe575f8481526020908190206040805160608101825260028602909201805483526001908101546001600160401b03811684860152600160401b900465ffffffffffff16918301919091529083529092019101610da0565b50505050905092915050565b6001600160a01b0383165f9081526001602090815260408083208584529091528120805460609203610e4f5760405163163aee1b60e21b815260040160405180910390fd5b5f610e5b82855f61182f565b8254909150610e6c90600190611be4565b8110610e8b5760405163163aee1b60e21b815260040160405180910390fd5b5f610e97826001611c23565b83549091505f90610ea9908390611be4565b90505f816001600160401b03811115610ec457610ec4611c36565b604051908082528060200260200182016040528015610f0d57816020015b604080516060810182525f80825260208083018290529282015282525f19909201910181610ee25790505b5090505f5b82811015610fa95785610f258286611c23565b81548110610f3557610f35611bf7565b5f9182526020918290206040805160608101825260029390930290910180548352600101546001600160401b03811693830193909352600160401b90920465ffffffffffff16918101919091528251839083908110610f9657610f96611bf7565b6020908102919091010152600101610f12565b5098975050505050505050565b604080516060810182525f80825260208083018290528284018290526001600160a01b0387168252600181528382208683529052919091208054831061100f5760405163d9ba09d160e01b815260040160405180910390fd5b80838154811061102157611021611bf7565b5f9182526020918290206040805160608101825260029390930290910180548352600101546001600160401b03811693830193909352600160401b90920465ffffffffffff169181019190915295945050505050565b6001600160a01b0383165f90815260016020908152604080832085845290915281208054606092036110bc5760405163163aee1b60e21b815260040160405180910390fd5b5f6110c98285600161182f565b9050805f036110eb5760405163163aee1b60e21b815260040160405180910390fd5b5f816001600160401b0381111561110457611104611c36565b60405190808252806020026020018201604052801561114d57816020015b604080516060810182525f80825260208083018290529282015282525f199092019101816111225790505b5090505f5b828110156111e05783818154811061116c5761116c611bf7565b5f9182526020918290206040805160608101825260029390930290910180548352600101546001600160401b03811693830193909352600160401b90920465ffffffffffff169181019190915282518390839081106111cd576111cd611bf7565b6020908102919091010152600101611152565b509695505050505050565b6060816001600160401b0381111561120557611205611c36565b60405190808252806020026020018201604052801561122e578160200160208202803683370190505b5090505f5b8281101561129f576001600160a01b0385165f9081526020819052604081209085858481811061126557611265611bf7565b9050602002013581526020019081526020015f205482828151811061128c5761128c611bf7565b6020908102919091010152600101611233565b509392505050565b6001600160a01b0383165f90815260016020908152604080832085845290915281208054606092036112ec5760405163163aee1b60e21b815260040160405180910390fd5b5f6112f98285600161182f565b825490915061130a90600190611be4565b81106113295760405163163aee1b60e21b815260040160405180910390fd5b5f611335826001611c23565b83549091505f90611347908390611be4565b90505f816001600160401b0381111561136257611362611c36565b6040519080825280602002602001820160405280156113ab57816020015b604080516060810182525f80825260208083018290529282015282525f199092019101816113805790505b5090505f5b82811015610fa957856113c38286611c23565b815481106113d3576113d3611bf7565b5f9182526020918290206040805160608101825260029390930290910180548352600101546001600160401b03811693830193909352600160401b90920465ffffffffffff1691810191909152825183908390811061143457611434611bf7565b60209081029190910101526001016113b0565b606081831061146957604051638eee879d60e01b815260040160405180910390fd5b6001600160a01b0385165f908152600160209081526040808320878452909152812080549091036114ad5760405163163aee1b60e21b815260040160405180910390fd5b5f6114b982865f61182f565b825490915081106114d55781546114d290600190611be4565b90505b848282815481106114e8576114e8611bf7565b5f9182526020909120600160029092020101546001600160401b031610801561151d5750815461151a90600190611be4565b81105b15611530578061152c81611c0b565b9150505b5f61153c83865f61182f565b8354909150811061155857825461155590600190611be4565b90505b8082118061159357508483838154811061157457611574611bf7565b5f9182526020909120600160029092020101546001600160401b031610155b156115b15760405163163aee1b60e21b815260040160405180910390fd5b5f6115bc8383611be4565b6115c7906001611c23565b90505f816001600160401b038111156115e2576115e2611c36565b60405190808252806020026020018201604052801561162b57816020015b604080516060810182525f80825260208083018290529282015282525f199092019101816116005790505b5090505f5b8281101561055d57856116438287611c23565b8154811061165357611653611bf7565b5f9182526020918290206040805160608101825260029390930290910180548352600101546001600160401b03811693830193909352600160401b90920465ffffffffffff169181019190915282518390839081106116b4576116b4611bf7565b6020908102919091010152600101611630565b6001600160a01b0383165f908152600160209081526040808320858452909152812080546060920361170c5760405163163aee1b60e21b815260040160405180910390fd5b5f61171882855f61182f565b9050805f0361173a5760405163163aee1b60e21b815260040160405180910390fd5b5f816001600160401b0381111561175357611753611c36565b60405190808252806020026020018201604052801561179c57816020015b604080516060810182525f80825260208083018290529282015282525f199092019101816117715790505b5090505f5b828110156111e0578381815481106117bb576117bb611bf7565b5f9182526020918290206040805160608101825260029390930290910180548352600101546001600160401b03811693830193909352600160401b90920465ffffffffffff1691810191909152825183908390811061181c5761181c611bf7565b60209081029190910101526001016117a1565b82545f90810361184057505f610928565b83545f5b8181101561190a575f611857828461192c565b90505f8086600181111561186d5761186d611c4a565b146118ab5787828154811061188457611884611bf7565b5f918252602090912060029091020160010154600160401b900465ffffffffffff166118da565b8782815481106118bd576118bd611bf7565b5f9182526020909120600160029092020101546001600160401b03165b6001600160401b03169050868111156118f557819350611903565b611900826001611c23565b92505b5050611844565b81156119205761191b600183611be4565b611922565b5f5b9695505050505050565b5f61193a6002848418611c5e565b61092890848416611c23565b80356001600160a01b038116811461195c575f5ffd5b919050565b5f5f5f5f60808587031215611974575f5ffd5b61197d85611946565b966020860135965060408601359560600135945092505050565b602080825282518282018190525f918401906040840190835b818110156119fe576119e8838551805182526020808201516001600160401b03169083015260409081015165ffffffffffff16910152565b60209390930192606092909201916001016119b0565b509095945050505050565b5f5f60408385031215611a1a575f5ffd5b611a2383611946565b946020939093013593505050565b5f5f5f60608486031215611a43575f5ffd5b611a4c84611946565b95602085013595506040909401359392505050565b815181526020808301516001600160401b03169082015260408083015165ffffffffffff1690820152606081016107f1565b5f60208284031215611aa3575f5ffd5b61092882611946565b602080825282518282018190525f918401906040840190835b818110156119fe578351835260209384019390920191600101611ac5565b5f5f5f60408486031215611af5575f5ffd5b611afe84611946565b925060208401356001600160401b03811115611b18575f5ffd5b8401601f81018613611b28575f5ffd5b80356001600160401b03811115611b3d575f5ffd5b8660208260061b8401011115611b51575f5ffd5b939660209190910195509293505050565b5f5f5f60408486031215611b74575f5ffd5b611b7d84611946565b925060208401356001600160401b03811115611b97575f5ffd5b8401601f81018613611ba7575f5ffd5b80356001600160401b03811115611bbc575f5ffd5b8660208260051b8401011115611b51575f5ffd5b634e487b7160e01b5f52601160045260245ffd5b818103818111156107f1576107f1611bd0565b634e487b7160e01b5f52603260045260245ffd5b5f60018201611c1c57611c1c611bd0565b5060010190565b808201808211156107f1576107f1611bd0565b634e487b7160e01b5f52604160045260245ffd5b634e487b7160e01b5f52602160045260245ffd5b5f82611c7857634e487b7160e01b5f52601260045260245ffd5b50049056fea2646970667358221220bbe891fb0a929817b5db66397552843f593774d0014eaa96a2bad36fd5e7fc1064736f6c634300081b0033",
        "nonce": "0x5",
        "chainId": "0x7a69"
      },
      "additionalContracts": [],
      "isFixedGasLimit": false
    },
    {
      "hash": "0xcc7db112691a850e8a515606acf2cbfbd43c8e33e04f6fbba6c3d7cd1e08096f",
      "transactionType": "CALL",
      "contractName": "StateManager",
      "contractAddress": "0x5fc8d32690cc91d4c39d9d3abcbd16989f875707",
      "function": "setValue(address,uint256,uint256)",
      "arguments": [
        "0x0000000000000000000000000000000000001111",
        "1",
        "100000000000000000000"
      ],
      "transaction": {
        "from": "0xf39fd6e51aad88f6f4ce6ab8827279cfffb92266",
        "to": "0x5fc8d32690cc91d4c39d9d3abcbd16989f875707",
        "gas": "0x38649",
        "value": "0x0",
        "input": "0x6687f006000000000000000000000000000000000000000000000000000000000000111100000000000000000000000000000000000000000000000000000000000000010000000000000000000000000000000000000000000000056bc75e2d63100000",
        "nonce": "0x6",
        "chainId": "0x7a69"
      },
      "additionalContracts": [],
      "isFixedGasLimit": false
    },
    {
      "hash": "0xf1f23c52392e9e88113fd78bf6e25a4992b2f729da0cda211111f6be63ee8de8",
      "transactionType": "CALL",
      "contractName": "StateManager",
      "contractAddress": "0x5fc8d32690cc91d4c39d9d3abcbd16989f875707",
      "function": "setValue(address,uint256,uint256)",
      "arguments": [
        "0x0000000000000000000000000000000000001111",
        "1",
        "150000000000000000000"
      ],
      "transaction": {
        "from": "0xf39fd6e51aad88f6f4ce6ab8827279cfffb92266",
        "to": "0x5fc8d32690cc91d4c39d9d3abcbd16989f875707",
        "gas": "0x1ac3f",
        "value": "0x0",
        "input": "0x6687f0060000000000000000000000000000000000000000000000000000000000001111000000000000000000000000000000000000000000000000000000000000000100000000000000000000000000000000000000000000000821ab0d4414980000",
        "nonce": "0x7",
        "chainId": "0x7a69"
      },
      "additionalContracts": [],
      "isFixedGasLimit": false
    },
    {
      "hash": "0x26cb44c3f5742790f5449b416ee42ab60762a8626e51176ccfdb160dfe8aaeb6",
      "transactionType": "CALL",
      "contractName": "StateManager",
      "contractAddress": "0x5fc8d32690cc91d4c39d9d3abcbd16989f875707",
      "function": "setValue(address,uint256,uint256)",
      "arguments": [
        "0x0000000000000000000000000000000000001111",
        "1",
        "200000000000000000000"
      ],
      "transaction": {
        "from": "0xf39fd6e51aad88f6f4ce6ab8827279cfffb92266",
        "to": "0x5fc8d32690cc91d4c39d9d3abcbd16989f875707",
        "gas": "0x1ac3f",
        "value": "0x0",
        "input": "0x6687f0060000000000000000000000000000000000000000000000000000000000001111000000000000000000000000000000000000000000000000000000000000000100000000000000000000000000000000000000000000000ad78ebc5ac6200000",
        "nonce": "0x8",
        "chainId": "0x7a69"
      },
      "additionalContracts": [],
      "isFixedGasLimit": false
    },
    {
      "hash": "0xa19f765812859e3ac22e9ab420bba51eb7daccf30ab90f03b79dafcfc8b07325",
      "transactionType": "CALL",
      "contractName": "StateManager",
      "contractAddress": "0x5fc8d32690cc91d4c39d9d3abcbd16989f875707",
      "function": "setValue(address,uint256,uint256)",
      "arguments": [
        "0x0000000000000000000000000000000000001111",
        "2",
        "50000000000000000000"
      ],
      "transaction": {
        "from": "0xf39fd6e51aad88f6f4ce6ab8827279cfffb92266",
        "to": "0x5fc8d32690cc91d4c39d9d3abcbd16989f875707",
        "gas": "0x2f7e5",
        "value": "0x0",
        "input": "0x6687f00600000000000000000000000000000000000000000000000000000000000011110000000000000000000000000000000000000000000000000000000000000002000000000000000000000000000000000000000000000002b5e3af16b1880000",
        "nonce": "0x9",
        "chainId": "0x7a69"
      },
      "additionalContracts": [],
      "isFixedGasLimit": false
    },
    {
      "hash": "0x5e1d02a25722c10ed5d2c44187cabe49e7141c014901f73827a1ad8b3a330e00",
      "transactionType": "CALL",
      "contractName": "StateManager",
      "contractAddress": "0x5fc8d32690cc91d4c39d9d3abcbd16989f875707",
      "function": "setValue(address,uint256,uint256)",
      "arguments": [
        "0x0000000000000000000000000000000000001111",
        "2",
        "75000000000000000000"
      ],
      "transaction": {
        "from": "0xf39fd6e51aad88f6f4ce6ab8827279cfffb92266",
        "to": "0x5fc8d32690cc91d4c39d9d3abcbd16989f875707",
        "gas": "0x1ac3f",
        "value": "0x0",
        "input": "0x6687f0060000000000000000000000000000000000000000000000000000000000001111000000000000000000000000000000000000000000000000000000000000000200000000000000000000000000000000000000000000000410d586a20a4c0000",
        "nonce": "0xa",
        "chainId": "0x7a69"
      },
      "additionalContracts": [],
      "isFixedGasLimit": false
    },
    {
      "hash": "0x4dfe0b3e1bf77a1f6ff1228c1b1849def566a5bc0beeb6d426d1baa640ae70a6",
      "transactionType": "CALL",
      "contractName": "StateManager",
      "contractAddress": "0x5fc8d32690cc91d4c39d9d3abcbd16989f875707",
      "function": "setValue(address,uint256,uint256)",
      "arguments": [
        "0x0000000000000000000000000000000000001111",
        "3",
        "5000000000000000000"
      ],
      "transaction": {
        "from": "0xf39fd6e51aad88f6f4ce6ab8827279cfffb92266",
        "to": "0x5fc8d32690cc91d4c39d9d3abcbd16989f875707",
        "gas": "0x32487",
        "value": "0x0",
        "input": "0x6687f006000000000000000000000000000000000000000000000000000000000000111100000000000000000000000000000000000000000000000000000000000000030000000000000000000000000000000000000000000000004563918244f40000",
        "nonce": "0xb",
        "chainId": "0x7a69"
      },
      "additionalContracts": [],
      "isFixedGasLimit": false
    },
    {
      "hash": "0x9162f8acf1b21e919023c549d10b707968de95ba6167ce47a536e0e642bdc135",
      "transactionType": "CALL",
      "contractName": "StateManager",
      "contractAddress": "0x5fc8d32690cc91d4c39d9d3abcbd16989f875707",
      "function": "setValue(address,uint256,uint256)",
      "arguments": [
        "0x0000000000000000000000000000000000002222",
        "1",
        "500000000000000000000"
      ],
      "transaction": {
        "from": "0xf39fd6e51aad88f6f4ce6ab8827279cfffb92266",
        "to": "0x5fc8d32690cc91d4c39d9d3abcbd16989f875707",
        "gas": "0x38649",
        "value": "0x0",
        "input": "0x6687f0060000000000000000000000000000000000000000000000000000000000002222000000000000000000000000000000000000000000000000000000000000000100000000000000000000000000000000000000000000001b1ae4d6e2ef500000",
        "nonce": "0xc",
        "chainId": "0x7a69"
      },
      "additionalContracts": [],
      "isFixedGasLimit": false
    },
    {
      "hash": "0xa67f6cf1366504ffdd7888e9a4a5913d4e01a0ca5d234dc66c091edb957078c7",
      "transactionType": "CALL",
      "contractName": "StateManager",
      "contractAddress": "0x5fc8d32690cc91d4c39d9d3abcbd16989f875707",
      "function": "setValue(address,uint256,uint256)",
      "arguments": [
        "0x0000000000000000000000000000000000002222",
        "2",
        "200000000000000000000"
      ],
      "transaction": {
        "from": "0xf39fd6e51aad88f6f4ce6ab8827279cfffb92266",
        "to": "0x5fc8d32690cc91d4c39d9d3abcbd16989f875707",
        "gas": "0x2f7e5",
        "value": "0x0",
        "input": "0x6687f0060000000000000000000000000000000000000000000000000000000000002222000000000000000000000000000000000000000000000000000000000000000200000000000000000000000000000000000000000000000ad78ebc5ac6200000",
        "nonce": "0xd",
        "chainId": "0x7a69"
      },
      "additionalContracts": [],
      "isFixedGasLimit": false
    },
    {
      "hash": "0x9c140defb156ef78dc9b8b1426f019791509da50c646234f6952f5b5baabd78b",
      "transactionType": "CALL",
      "contractName": "StateManager",
      "contractAddress": "0x5fc8d32690cc91d4c39d9d3abcbd16989f875707",
      "function": "setValue(address,uint256,uint256)",
      "arguments": [
        "0x0000000000000000000000000000000000003333",
        "1",
        "1000000000000000000000"
      ],
      "transaction": {
        "from": "0xf39fd6e51aad88f6f4ce6ab8827279cfffb92266",
        "to": "0x5fc8d32690cc91d4c39d9d3abcbd16989f875707",
        "gas": "0x38649",
        "value": "0x0",
        "input": "0x6687f0060000000000000000000000000000000000000000000000000000000000003333000000000000000000000000000000000000000000000000000000000000000100000000000000000000000000000000000000000000003635c9adc5dea00000",
        "nonce": "0xe",
        "chainId": "0x7a69"
      },
      "additionalContracts": [],
      "isFixedGasLimit": false
    },
    {
      "hash": "0x2ac37ebca889afd124b108e63dd27ec8aeee95e9c236cb52301acf4e1b0b4f88",
      "transactionType": "CALL",
      "contractName": "StateManager",
      "contractAddress": "0x5fc8d32690cc91d4c39d9d3abcbd16989f875707",
      "function": "setValue(address,uint256,uint256)",
      "arguments": [
        "0x0000000000000000000000000000000000003333",
        "2",
        "400000000000000000000"
      ],
      "transaction": {
        "from": "0xf39fd6e51aad88f6f4ce6ab8827279cfffb92266",
        "to": "0x5fc8d32690cc91d4c39d9d3abcbd16989f875707",
        "gas": "0x2f7e5",
        "value": "0x0",
        "input": "0x6687f00600000000000000000000000000000000000000000000000000000000000033330000000000000000000000000000000000000000000000000000000000000002000000000000000000000000000000000000000000000015af1d78b58c400000",
        "nonce": "0xf",
        "chainId": "0x7a69"
      },
      "additionalContracts": [],
      "isFixedGasLimit": false
    },
    {
      "hash": "0xcce63269b3be148b1e351b880830e3225512ce923e1ce6e4da28ad392ce400ff",
      "transactionType": "CALL",
      "contractName": "StateManager",
      "contractAddress": "0x5fc8d32690cc91d4c39d9d3abcbd16989f875707",
      "function": "setValue(address,uint256,uint256)",
      "arguments": [
        "0x0000000000000000000000000000000000003333",
        "3",
        "20000000000000000000"
      ],
      "transaction": {
        "from": "0xf39fd6e51aad88f6f4ce6ab8827279cfffb92266",
        "to": "0x5fc8d32690cc91d4c39d9d3abcbd16989f875707",
        "gas": "0x2f7e5",
        "value": "0x0",
        "input": "0x6687f00600000000000000000000000000000000000000000000000000000000000033330000000000000000000000000000000000000000000000000000000000000003000000000000000000000000000000000000000000000001158e460913d00000",
        "nonce": "0x10",
        "chainId": "0x7a69"
      },
      "additionalContracts": [],
      "isFixedGasLimit": false
    },
    {
      "hash": "0x48443d743dcaf9a08c36e8c6ccbb965fe7783a5930f4f421d39a848757ad85b4",
      "transactionType": "CALL",
      "contractName": "StateManager",
      "contractAddress": "0x5fc8d32690cc91d4c39d9d3abcbd16989f875707",
      "function": "batchSetValues(address,(uint256,uint256)[])",
      "arguments": [
        "0x0000000000000000000000000000000000003333",
        "[(1, 1200000000000000000000), (2, 500000000000000000000)]"
      ],
      "transaction": {
        "from": "0xf39fd6e51aad88f6f4ce6ab8827279cfffb92266",
        "to": "0x5fc8d32690cc91d4c39d9d3abcbd16989f875707",
        "gas": "0x2e85b",
        "value": "0x0",
        "input": "0x4cb6878600000000000000000000000000000000000000000000000000000000000033330000000000000000000000000000000000000000000000000000000000000040000000000000000000000000000000000000000000000000000000000000000200000000000000000000000000000000000000000000000000000000000000010000000000000000000000000000000000000000000000410d586a20a4c00000000000000000000000000000000000000000000000000000000000000000000200000000000000000000000000000000000000000000001b1ae4d6e2ef500000",
        "nonce": "0x11",
        "chainId": "0x7a69"
      },
      "additionalContracts": [],
      "isFixedGasLimit": false
    }
  ],
  "receipts": [
    {
      "status": "0x1",
      "cumulativeGasUsed": "0x190efe",
      "logs": [],
      "logsBloom": "0x00000000000000000000000000000000000000000000000000000000000000000000000000000000000000000000000000000000000000000000000000000000000000000000000000000000000000000000000000000000000000000000000000000000000000000000000000000000000000000000000000000000000000000000000000000000000000000000000000000000000000000000000000000000000000000000000000000000000000000000000000000000000000000000000000000000000000000000000000000000000000000000000000000000000000000000000000000000000000000000000000000000000000000000000000000000",
      "type": "0x2",
      "transactionHash": "0x88a14e3146cb2f2628a67114de58ecef886e43de7856a9950deb159800beeeac",
      "transactionIndex": "0x0",
      "blockHash": "0x75801a1cad85ff1bb2b8671ca9e2fe3265f0941c714cd35a8e570004481b69df",
      "blockNumber": "0x6",
      "gasUsed": "0x190efe",
      "effectiveGasPrice": "0x1ec467c1",
      "blobGasPrice": "0x1",
      "from": "0xf39fd6e51aad88f6f4ce6ab8827279cfffb92266",
      "to": null,
      "contractAddress": "0x5fc8d32690cc91d4c39d9d3abcbd16989f875707"
    },
    {
      "status": "0x1",
      "cumulativeGasUsed": "0x268f3",
      "logs": [
        {
          "address": "0x5fc8d32690cc91d4c39d9d3abcbd16989f875707",
          "topics": [
            "0xa1a325dd3ab50a50da29b7e0c70017d7834b6d6565bd3518be12f123084109fe",
            "0x0000000000000000000000000000000000000000000000000000000000001111",
            "0x0000000000000000000000000000000000000000000000000000000000000001"
          ],
          "data": "0x0000000000000000000000000000000000000000000000056bc75e2d63100000000000000000000000000000000000000000000000000000000000006788402e0000000000000000000000000000000000000000000000000000000000000007",
          "blockHash": "0xc2a2ba33bf8a7f86dadff026550a6c5fbd0d03eecc401b6a2603476929df38f6",
          "blockNumber": "0x7",
          "blockTimestamp": "0x6788402e",
          "transactionHash": "0xcc7db112691a850e8a515606acf2cbfbd43c8e33e04f6fbba6c3d7cd1e08096f",
          "transactionIndex": "0x0",
          "logIndex": "0x0",
          "removed": false
        }
      ],
      "logsBloom": "0x00000000000100000000000000000000000000000000000000000000000000000000000000000000000000000000000000300000000010000000000000040000000000000000000000000000000000000000000240040000000000000000002000000000000000000000000000000000000000000000000000000000000000000000000020000000000000000000000000000000000000000000000000000000000000000000000000000000000000000000000000000000000000000000000000000000000000000000000000000000000000000000000000000001000040000000000000000000000000000000000000000000000000000000000000000000",
      "type": "0x2",
      "transactionHash": "0xcc7db112691a850e8a515606acf2cbfbd43c8e33e04f6fbba6c3d7cd1e08096f",
      "transactionIndex": "0x0",
      "blockHash": "0xc2a2ba33bf8a7f86dadff026550a6c5fbd0d03eecc401b6a2603476929df38f6",
      "blockNumber": "0x7",
      "gasUsed": "0x268f3",
      "effectiveGasPrice": "0x1b57a54f",
      "blobGasPrice": "0x1",
      "from": "0xf39fd6e51aad88f6f4ce6ab8827279cfffb92266",
      "to": "0x5fc8d32690cc91d4c39d9d3abcbd16989f875707",
      "contractAddress": null
    },
    {
      "status": "0x1",
      "cumulativeGasUsed": "0x1360c",
      "logs": [
        {
          "address": "0x5fc8d32690cc91d4c39d9d3abcbd16989f875707",
          "topics": [
            "0xa1a325dd3ab50a50da29b7e0c70017d7834b6d6565bd3518be12f123084109fe",
            "0x0000000000000000000000000000000000000000000000000000000000001111",
            "0x0000000000000000000000000000000000000000000000000000000000000001"
          ],
          "data": "0x00000000000000000000000000000000000000000000000821ab0d4414980000000000000000000000000000000000000000000000000000000000006788402e0000000000000000000000000000000000000000000000000000000000000008",
          "blockHash": "0xe5c46e39eab685c78e00f55b4a521da8bdc17dbc37a02ea8cb312d1a82c14592",
          "blockNumber": "0x8",
          "blockTimestamp": "0x6788402e",
          "transactionHash": "0xf1f23c52392e9e88113fd78bf6e25a4992b2f729da0cda211111f6be63ee8de8",
          "transactionIndex": "0x0",
          "logIndex": "0x0",
          "removed": false
        }
      ],
      "logsBloom": "0x00000000000100000000000000000000000000000000000000000000000000000000000000000000000000000000000000300000000010000000000000040000000000000000000000000000000000000000000240040000000000000000002000000000000000000000000000000000000000000000000000000000000000000000000020000000000000000000000000000000000000000000000000000000000000000000000000000000000000000000000000000000000000000000000000000000000000000000000000000000000000000000000000000001000040000000000000000000000000000000000000000000000000000000000000000000",
      "type": "0x2",
      "transactionHash": "0xf1f23c52392e9e88113fd78bf6e25a4992b2f729da0cda211111f6be63ee8de8",
      "transactionIndex": "0x0",
      "blockHash": "0xe5c46e39eab685c78e00f55b4a521da8bdc17dbc37a02ea8cb312d1a82c14592",
      "blockNumber": "0x8",
      "gasUsed": "0x1360c",
      "effectiveGasPrice": "0x17f5e715",
      "blobGasPrice": "0x1",
      "from": "0xf39fd6e51aad88f6f4ce6ab8827279cfffb92266",
      "to": "0x5fc8d32690cc91d4c39d9d3abcbd16989f875707",
      "contractAddress": null
    },
    {
      "status": "0x1",
      "cumulativeGasUsed": "0x1360c",
      "logs": [
        {
          "address": "0x5fc8d32690cc91d4c39d9d3abcbd16989f875707",
          "topics": [
            "0xa1a325dd3ab50a50da29b7e0c70017d7834b6d6565bd3518be12f123084109fe",
            "0x0000000000000000000000000000000000000000000000000000000000001111",
            "0x0000000000000000000000000000000000000000000000000000000000000001"
          ],
          "data": "0x00000000000000000000000000000000000000000000000ad78ebc5ac6200000000000000000000000000000000000000000000000000000000000006788402e0000000000000000000000000000000000000000000000000000000000000009",
          "blockHash": "0xdb4abb0511f69eca0b30804c59796d590084147bd89eb49ce7bb23e85a1afe73",
          "blockNumber": "0x9",
          "blockTimestamp": "0x6788402e",
          "transactionHash": "0x26cb44c3f5742790f5449b416ee42ab60762a8626e51176ccfdb160dfe8aaeb6",
          "transactionIndex": "0x0",
          "logIndex": "0x0",
          "removed": false
        }
      ],
      "logsBloom": "0x00000000000100000000000000000000000000000000000000000000000000000000000000000000000000000000000000300000000010000000000000040000000000000000000000000000000000000000000240040000000000000000002000000000000000000000000000000000000000000000000000000000000000000000000020000000000000000000000000000000000000000000000000000000000000000000000000000000000000000000000000000000000000000000000000000000000000000000000000000000000000000000000000000001000040000000000000000000000000000000000000000000000000000000000000000000",
      "type": "0x2",
      "transactionHash": "0x26cb44c3f5742790f5449b416ee42ab60762a8626e51176ccfdb160dfe8aaeb6",
      "transactionIndex": "0x0",
      "blockHash": "0xdb4abb0511f69eca0b30804c59796d590084147bd89eb49ce7bb23e85a1afe73",
      "blockNumber": "0x9",
      "gasUsed": "0x1360c",
      "effectiveGasPrice": "0x14fb38d6",
      "blobGasPrice": "0x1",
      "from": "0xf39fd6e51aad88f6f4ce6ab8827279cfffb92266",
      "to": "0x5fc8d32690cc91d4c39d9d3abcbd16989f875707",
      "contractAddress": null
    },
    {
      "status": "0x1",
      "cumulativeGasUsed": "0x22627",
      "logs": [
        {
          "address": "0x5fc8d32690cc91d4c39d9d3abcbd16989f875707",
          "topics": [
            "0xa1a325dd3ab50a50da29b7e0c70017d7834b6d6565bd3518be12f123084109fe",
            "0x0000000000000000000000000000000000000000000000000000000000001111",
            "0x0000000000000000000000000000000000000000000000000000000000000002"
          ],
          "data": "0x000000000000000000000000000000000000000000000002b5e3af16b1880000000000000000000000000000000000000000000000000000000000006788402e000000000000000000000000000000000000000000000000000000000000000a",
          "blockHash": "0xfab7d984261ac862b54f49d4783ecc1652aeae76fa165018e9df5c94121819aa",
          "blockNumber": "0xa",
          "blockTimestamp": "0x6788402e",
          "transactionHash": "0xa19f765812859e3ac22e9ab420bba51eb7daccf30ab90f03b79dafcfc8b07325",
          "transactionIndex": "0x0",
          "logIndex": "0x0",
          "removed": false
        }
      ],
      "logsBloom": "0x04000000000100000000000000000000000000000000000000000000000000000000000000000000000000000000000000300000000010000000000000000000000000000000000000000000000000000000000240000000000000000000002000000000000000000000000000000000000000000000000000000000000000000000000020000000000000000000000000000000000000000000000000000000000000000000000000000100000000000000000000000000000000000000000000000000000000000000000000000000000000000000000000000001000000000000000000000000000000000000000000000000008000000000000000000000",
      "type": "0x2",
      "transactionHash": "0xa19f765812859e3ac22e9ab420bba51eb7daccf30ab90f03b79dafcfc8b07325",
      "transactionIndex": "0x0",
      "blockHash": "0xfab7d984261ac862b54f49d4783ecc1652aeae76fa165018e9df5c94121819aa",
      "blockNumber": "0xa",
      "gasUsed": "0x22627",
      "effectiveGasPrice": "0x125f5f3a",
      "blobGasPrice": "0x1",
      "from": "0xf39fd6e51aad88f6f4ce6ab8827279cfffb92266",
      "to": "0x5fc8d32690cc91d4c39d9d3abcbd16989f875707",
      "contractAddress": null
    },
    {
      "status": "0x1",
      "cumulativeGasUsed": "0x1360c",
      "logs": [
        {
          "address": "0x5fc8d32690cc91d4c39d9d3abcbd16989f875707",
          "topics": [
            "0xa1a325dd3ab50a50da29b7e0c70017d7834b6d6565bd3518be12f123084109fe",
            "0x0000000000000000000000000000000000000000000000000000000000001111",
            "0x0000000000000000000000000000000000000000000000000000000000000002"
          ],
          "data": "0x00000000000000000000000000000000000000000000000410d586a20a4c0000000000000000000000000000000000000000000000000000000000006788402e000000000000000000000000000000000000000000000000000000000000000b",
          "blockHash": "0x1e8cbfe32bd5277230bd0230b12383bda16e6d86fea8eedc5180558e59efa3b5",
          "blockNumber": "0xb",
          "blockTimestamp": "0x6788402e",
          "transactionHash": "0x5e1d02a25722c10ed5d2c44187cabe49e7141c014901f73827a1ad8b3a330e00",
          "transactionIndex": "0x0",
          "logIndex": "0x0",
          "removed": false
        }
      ],
      "logsBloom": "0x04000000000100000000000000000000000000000000000000000000000000000000000000000000000000000000000000300000000010000000000000000000000000000000000000000000000000000000000240000000000000000000002000000000000000000000000000000000000000000000000000000000000000000000000020000000000000000000000000000000000000000000000000000000000000000000000000000100000000000000000000000000000000000000000000000000000000000000000000000000000000000000000000000001000000000000000000000000000000000000000000000000008000000000000000000000",
      "type": "0x2",
      "transactionHash": "0x5e1d02a25722c10ed5d2c44187cabe49e7141c014901f73827a1ad8b3a330e00",
      "transactionIndex": "0x0",
      "blockHash": "0x1e8cbfe32bd5277230bd0230b12383bda16e6d86fea8eedc5180558e59efa3b5",
      "blockNumber": "0xb",
      "gasUsed": "0x1360c",
      "effectiveGasPrice": "0x1018f87c",
      "blobGasPrice": "0x1",
      "from": "0xf39fd6e51aad88f6f4ce6ab8827279cfffb92266",
      "to": "0x5fc8d32690cc91d4c39d9d3abcbd16989f875707",
      "contractAddress": null
    },
    {
      "status": "0x1",
      "cumulativeGasUsed": "0x35c27",
      "logs": [
        {
          "address": "0x5fc8d32690cc91d4c39d9d3abcbd16989f875707",
          "topics": [
            "0xa1a325dd3ab50a50da29b7e0c70017d7834b6d6565bd3518be12f123084109fe",
            "0x0000000000000000000000000000000000000000000000000000000000001111",
            "0x0000000000000000000000000000000000000000000000000000000000000003"
          ],
          "data": "0x0000000000000000000000000000000000000000000000004563918244f40000000000000000000000000000000000000000000000000000000000006788402e000000000000000000000000000000000000000000000000000000000000000b",
          "blockHash": "0x1e8cbfe32bd5277230bd0230b12383bda16e6d86fea8eedc5180558e59efa3b5",
          "blockNumber": "0xb",
          "blockTimestamp": "0x6788402e",
          "transactionHash": "0x4dfe0b3e1bf77a1f6ff1228c1b1849def566a5bc0beeb6d426d1baa640ae70a6",
          "transactionIndex": "0x1",
          "logIndex": "0x1",
          "removed": false
        }
      ],
      "logsBloom": "0x00000000000100000000000000000000000000000000000000000000000000000000000000000000000000000000000000300000020010000000000000000000000000000000000000000000000000000000000240000000000000000000002000000000000000000000000000000000000000000000000000000000000000000000000020000000000000000000000000000000000000000000000000000000000000000000000000000000000000000000000000800000000000000000400000000000000000000000000000000000000000000000000000000001000000000000000000000000000000000000000000000000000000000000000000000000",
      "type": "0x2",
      "transactionHash": "0x4dfe0b3e1bf77a1f6ff1228c1b1849def566a5bc0beeb6d426d1baa640ae70a6",
      "transactionIndex": "0x1",
      "blockHash": "0x1e8cbfe32bd5277230bd0230b12383bda16e6d86fea8eedc5180558e59efa3b5",
      "blockNumber": "0xb",
      "gasUsed": "0x2261b",
      "effectiveGasPrice": "0x1018f87c",
      "blobGasPrice": "0x1",
      "from": "0xf39fd6e51aad88f6f4ce6ab8827279cfffb92266",
      "to": "0x5fc8d32690cc91d4c39d9d3abcbd16989f875707",
      "contractAddress": null
    },
    {
      "status": "0x1",
      "cumulativeGasUsed": "0x5c51a",
      "logs": [
        {
          "address": "0x5fc8d32690cc91d4c39d9d3abcbd16989f875707",
          "topics": [
            "0xa1a325dd3ab50a50da29b7e0c70017d7834b6d6565bd3518be12f123084109fe",
            "0x0000000000000000000000000000000000000000000000000000000000002222",
            "0x0000000000000000000000000000000000000000000000000000000000000001"
          ],
          "data": "0x00000000000000000000000000000000000000000000001b1ae4d6e2ef500000000000000000000000000000000000000000000000000000000000006788402e000000000000000000000000000000000000000000000000000000000000000b",
          "blockHash": "0x1e8cbfe32bd5277230bd0230b12383bda16e6d86fea8eedc5180558e59efa3b5",
          "blockNumber": "0xb",
          "blockTimestamp": "0x6788402e",
          "transactionHash": "0x9162f8acf1b21e919023c549d10b707968de95ba6167ce47a536e0e642bdc135",
          "transactionIndex": "0x2",
          "logIndex": "0x2",
          "removed": false
        }
      ],
      "logsBloom": "0x00000000000000000000000000000000000000000000000000000000000000000000000000000000000000000000000000100000000010000000000000040000000000000000000000000000000000000000000242040000000000000000000000000000000008000000000000000000000000000000000000000000000000000000000020000000000000000000000000000000000000000000000000000000000000000000000000000000000000000000000000000000000000000000000000000000000000000000000000000000000000000000000000000001000040000000000000000000000000000000000000000000000000000000000000040000",
      "type": "0x2",
      "transactionHash": "0x9162f8acf1b21e919023c549d10b707968de95ba6167ce47a536e0e642bdc135",
      "transactionIndex": "0x2",
      "blockHash": "0x1e8cbfe32bd5277230bd0230b12383bda16e6d86fea8eedc5180558e59efa3b5",
      "blockNumber": "0xb",
      "gasUsed": "0x268f3",
      "effectiveGasPrice": "0x1018f87c",
      "blobGasPrice": "0x1",
      "from": "0xf39fd6e51aad88f6f4ce6ab8827279cfffb92266",
      "to": "0x5fc8d32690cc91d4c39d9d3abcbd16989f875707",
      "contractAddress": null
    },
    {
      "status": "0x1",
      "cumulativeGasUsed": "0x22627",
      "logs": [
        {
          "address": "0x5fc8d32690cc91d4c39d9d3abcbd16989f875707",
          "topics": [
            "0xa1a325dd3ab50a50da29b7e0c70017d7834b6d6565bd3518be12f123084109fe",
            "0x0000000000000000000000000000000000000000000000000000000000002222",
            "0x0000000000000000000000000000000000000000000000000000000000000002"
          ],
          "data": "0x00000000000000000000000000000000000000000000000ad78ebc5ac6200000000000000000000000000000000000000000000000000000000000006788402e000000000000000000000000000000000000000000000000000000000000000c",
          "blockHash": "0x26bfef12d026a81b3f1180cba6b1af294c395b7c2eea2f87dfcc0e8b71a56935",
          "blockNumber": "0xc",
          "blockTimestamp": "0x6788402e",
          "transactionHash": "0xa67f6cf1366504ffdd7888e9a4a5913d4e01a0ca5d234dc66c091edb957078c7",
          "transactionIndex": "0x0",
          "logIndex": "0x0",
          "removed": false
        }
      ],
      "logsBloom": "0x04000000000000000000000000000000000000000000000000000000000000000000000000000000000000000000000000100000000010000000000000000000000000000000000000000000000000000000000242000000000000000000000000000000000008000000000000000000000000000000000000000000000000000000000020000000000000000000000000000000000000000000000000000000000000000000000000000100000000000000000000000000000000000000000000000000000000000000000000000000000000000000000000000001000000000000000000000000000000000000000000000000008000000000000000040000",
      "type": "0x2",
      "transactionHash": "0xa67f6cf1366504ffdd7888e9a4a5913d4e01a0ca5d234dc66c091edb957078c7",
      "transactionIndex": "0x0",
      "blockHash": "0x26bfef12d026a81b3f1180cba6b1af294c395b7c2eea2f87dfcc0e8b71a56935",
      "blockNumber": "0xc",
      "gasUsed": "0x22627",
      "effectiveGasPrice": "0xe22d5ca",
      "blobGasPrice": "0x1",
      "from": "0xf39fd6e51aad88f6f4ce6ab8827279cfffb92266",
      "to": "0x5fc8d32690cc91d4c39d9d3abcbd16989f875707",
      "contractAddress": null
    },
    {
      "status": "0x1",
      "cumulativeGasUsed": "0x48f1a",
      "logs": [
        {
          "address": "0x5fc8d32690cc91d4c39d9d3abcbd16989f875707",
          "topics": [
            "0xa1a325dd3ab50a50da29b7e0c70017d7834b6d6565bd3518be12f123084109fe",
            "0x0000000000000000000000000000000000000000000000000000000000003333",
            "0x0000000000000000000000000000000000000000000000000000000000000001"
          ],
          "data": "0x00000000000000000000000000000000000000000000003635c9adc5dea00000000000000000000000000000000000000000000000000000000000006788402e000000000000000000000000000000000000000000000000000000000000000c",
          "blockHash": "0x26bfef12d026a81b3f1180cba6b1af294c395b7c2eea2f87dfcc0e8b71a56935",
          "blockNumber": "0xc",
          "blockTimestamp": "0x6788402e",
          "transactionHash": "0x9c140defb156ef78dc9b8b1426f019791509da50c646234f6952f5b5baabd78b",
          "transactionIndex": "0x1",
          "logIndex": "0x1",
          "removed": false
        }
      ],
      "logsBloom": "0x00000000000000000000000000000000000000000000000000000000000000000000000000000000000000000000000000100000000010000000000000040000000000000000000000000000000000000000000240042000000010000000000000000000000000000000000000000000000000000000000000000000000000000000000020000000000000000000000000000000000004000000000000000000000000000000000000000000000000000000000000000000000000000000000000000000000000000000000000000000000000000000000000000001000040000000000000000000000000000000000000000000000000000000000000000000",
      "type": "0x2",
      "transactionHash": "0x9c140defb156ef78dc9b8b1426f019791509da50c646234f6952f5b5baabd78b",
      "transactionIndex": "0x1",
      "blockHash": "0x26bfef12d026a81b3f1180cba6b1af294c395b7c2eea2f87dfcc0e8b71a56935",
      "blockNumber": "0xc",
      "gasUsed": "0x268f3",
      "effectiveGasPrice": "0xe22d5ca",
      "blobGasPrice": "0x1",
      "from": "0xf39fd6e51aad88f6f4ce6ab8827279cfffb92266",
      "to": "0x5fc8d32690cc91d4c39d9d3abcbd16989f875707",
      "contractAddress": null
    },
    {
      "status": "0x1",
      "cumulativeGasUsed": "0x22627",
      "logs": [
        {
          "address": "0x5fc8d32690cc91d4c39d9d3abcbd16989f875707",
          "topics": [
            "0xa1a325dd3ab50a50da29b7e0c70017d7834b6d6565bd3518be12f123084109fe",
            "0x0000000000000000000000000000000000000000000000000000000000003333",
            "0x0000000000000000000000000000000000000000000000000000000000000002"
          ],
          "data": "0x000000000000000000000000000000000000000000000015af1d78b58c400000000000000000000000000000000000000000000000000000000000006788402e000000000000000000000000000000000000000000000000000000000000000d",
          "blockHash": "0x17a879d8bf5ec69a30c33781dfc8bab8b6ce23be21ecdd44768bf3eac8e59351",
          "blockNumber": "0xd",
          "blockTimestamp": "0x6788402e",
          "transactionHash": "0x2ac37ebca889afd124b108e63dd27ec8aeee95e9c236cb52301acf4e1b0b4f88",
          "transactionIndex": "0x0",
          "logIndex": "0x0",
          "removed": false
        }
      ],
      "logsBloom": "0x04000000000000000000000000000000000000000000000000000000000000000000000000000000000000000000000000100000000010000000000000000000000000000000000000000000000000000000000240002000000010000000000000000000000000000000000000000000000000000000000000000000000000000000000020000000000000000000000000000000000004000000000000000000000000000000000000000100000000000000000000000000000000000000000000000000000000000000000000000000000000000000000000000001000000000000000000000000000000000000000000000000008000000000000000000000",
      "type": "0x2",
      "transactionHash": "0x2ac37ebca889afd124b108e63dd27ec8aeee95e9c236cb52301acf4e1b0b4f88",
      "transactionIndex": "0x0",
      "blockHash": "0x17a879d8bf5ec69a30c33781dfc8bab8b6ce23be21ecdd44768bf3eac8e59351",
      "blockNumber": "0xd",
      "gasUsed": "0x22627",
      "effectiveGasPrice": "0xc677db0",
      "blobGasPrice": "0x1",
      "from": "0xf39fd6e51aad88f6f4ce6ab8827279cfffb92266",
      "to": "0x5fc8d32690cc91d4c39d9d3abcbd16989f875707",
      "contractAddress": null
    },
    {
      "status": "0x1",
      "cumulativeGasUsed": "0x44c4e",
      "logs": [
        {
          "address": "0x5fc8d32690cc91d4c39d9d3abcbd16989f875707",
          "topics": [
            "0xa1a325dd3ab50a50da29b7e0c70017d7834b6d6565bd3518be12f123084109fe",
            "0x0000000000000000000000000000000000000000000000000000000000003333",
            "0x0000000000000000000000000000000000000000000000000000000000000003"
          ],
          "data": "0x000000000000000000000000000000000000000000000001158e460913d00000000000000000000000000000000000000000000000000000000000006788402e000000000000000000000000000000000000000000000000000000000000000d",
          "blockHash": "0x17a879d8bf5ec69a30c33781dfc8bab8b6ce23be21ecdd44768bf3eac8e59351",
          "blockNumber": "0xd",
          "blockTimestamp": "0x6788402e",
          "transactionHash": "0xcce63269b3be148b1e351b880830e3225512ce923e1ce6e4da28ad392ce400ff",
          "transactionIndex": "0x1",
          "logIndex": "0x1",
          "removed": false
        }
      ],
      "logsBloom": "0x00000000000000000000000000000000000000000000000000000000000000000000000000000000000000000000000000100000020010000000000000000000000000000000000000000000000000000000000240002000000010000000000000000000000000000000000000000000000000000000000000000000000000000000000020000000000000000000000000000000000004000000000000000000000000000000000000000000000000000000000000800000000000000000400000000000000000000000000000000000000000000000000000000001000000000000000000000000000000000000000000000000000000000000000000000000",
      "type": "0x2",
      "transactionHash": "0xcce63269b3be148b1e351b880830e3225512ce923e1ce6e4da28ad392ce400ff",
      "transactionIndex": "0x1",
      "blockHash": "0x17a879d8bf5ec69a30c33781dfc8bab8b6ce23be21ecdd44768bf3eac8e59351",
      "blockNumber": "0xd",
      "gasUsed": "0x22627",
      "effectiveGasPrice": "0xc677db0",
      "blobGasPrice": "0x1",
      "from": "0xf39fd6e51aad88f6f4ce6ab8827279cfffb92266",
      "to": "0x5fc8d32690cc91d4c39d9d3abcbd16989f875707",
      "contractAddress": null
    },
    {
      "status": "0x1",
      "cumulativeGasUsed": "0x21ae7",
      "logs": [
        {
          "address": "0x5fc8d32690cc91d4c39d9d3abcbd16989f875707",
          "topics": [
            "0xa1a325dd3ab50a50da29b7e0c70017d7834b6d6565bd3518be12f123084109fe",
            "0x0000000000000000000000000000000000000000000000000000000000003333",
            "0x0000000000000000000000000000000000000000000000000000000000000001"
          ],
          "data": "0x0000000000000000000000000000000000000000000000410d586a20a4c00000000000000000000000000000000000000000000000000000000000006788402e000000000000000000000000000000000000000000000000000000000000000e",
          "blockHash": "0xf3bcabaa396ef482f99f58c9eea73d723aaad285b4412e533f207ecb59a80b58",
          "blockNumber": "0xe",
          "blockTimestamp": "0x6788402e",
          "transactionHash": "0x48443d743dcaf9a08c36e8c6ccbb965fe7783a5930f4f421d39a848757ad85b4",
          "transactionIndex": "0x0",
          "logIndex": "0x0",
          "removed": false
        },
        {
          "address": "0x5fc8d32690cc91d4c39d9d3abcbd16989f875707",
          "topics": [
            "0xa1a325dd3ab50a50da29b7e0c70017d7834b6d6565bd3518be12f123084109fe",
            "0x0000000000000000000000000000000000000000000000000000000000003333",
            "0x0000000000000000000000000000000000000000000000000000000000000002"
          ],
          "data": "0x00000000000000000000000000000000000000000000001b1ae4d6e2ef500000000000000000000000000000000000000000000000000000000000006788402e000000000000000000000000000000000000000000000000000000000000000e",
          "blockHash": "0xf3bcabaa396ef482f99f58c9eea73d723aaad285b4412e533f207ecb59a80b58",
          "blockNumber": "0xe",
          "blockTimestamp": "0x6788402e",
          "transactionHash": "0x48443d743dcaf9a08c36e8c6ccbb965fe7783a5930f4f421d39a848757ad85b4",
          "transactionIndex": "0x0",
          "logIndex": "0x1",
          "removed": false
        }
      ],
      "logsBloom": "0x04000000000000000000000000000000000000000000000000000000000000000000000000000000000000000000000000100000000010000000000000040000000000000000000000000000000000000000000240042000000010000000000000000000000000000000000000000000000000000000000000000000000000000000000020000000000000000000000000000000000004000000000000000000000000000000000000000100000000000000000000000000000000000000000000000000000000000000000000000000000000000000000000000001000040000000000000000000000000000000000000000000008000000000000000000000",
      "type": "0x2",
      "transactionHash": "0x48443d743dcaf9a08c36e8c6ccbb965fe7783a5930f4f421d39a848757ad85b4",
      "transactionIndex": "0x0",
      "blockHash": "0xf3bcabaa396ef482f99f58c9eea73d723aaad285b4412e533f207ecb59a80b58",
      "blockNumber": "0xe",
      "gasUsed": "0x21ae7",
      "effectiveGasPrice": "0xae2022c",
      "blobGasPrice": "0x1",
      "from": "0xf39fd6e51aad88f6f4ce6ab8827279cfffb92266",
      "to": "0x5fc8d32690cc91d4c39d9d3abcbd16989f875707",
      "contractAddress": null
    }
  ],
  "libraries": [],
  "pending": [],
  "returns": {},
  "timestamp": 1736982574,
  "chain": 31337,
  "commit": "54107f5"
}