{
  "transactions": [
    {
      "hash": "0xf30b15f673dc7dc7b0d39162af8ec0034aad5cbf1b9c98f59d73bdbca7860899",
      "transactionType": "CREATE",
      "contractName": "StateManager",
      "contractAddress": "0x5fc8d32690cc91d4c39d9d3abcbd16989f875707",
      "function": null,
      "arguments": null,
      "transaction": {
        "from": "0xf39fd6e51aad88f6f4ce6ab8827279cfffb92266",
        "gas": "0x2106bc",
        "value": "0x0",
        "input": "0x6080604052348015600e575f5ffd5b50611d1c8061001c5f395ff3fe608060405234801561000f575f5ffd5b5060043610610106575f3560e01c8063937cad891161009e578063badd55e61161006e578063badd55e614610220578063c4c31cf914610233578063de90452a14610246578063e78372bb14610259578063fa7493631461029a575f5ffd5b8063937cad89146101d4578063a0f72401146101e7578063a80832f2146101fa578063b89291531461020d575f5ffd5b806335c7fa54116100d957806335c7fa54146101865780634cb68786146101995780636687f006146101ae5780638bdf5803146101c1575f5ffd5b806308244ee51461010a578063173b2fdd146101335780632edc01b1146101465780633503418f14610166575b5f5ffd5b61011d6101183660046119ca565b6102cf565b60405161012a9190611a00565b60405180910390f35b61011d610141366004611a72565b61056b565b610159610154366004611a9a565b6107f7565b60405161012a9190611aca565b610179610174366004611afc565b61092f565b60405161012a9190611b15565b610159610194366004611a9a565b610998565b6101ac6101a7366004611b4c565b610ac7565b005b6101ac6101bc366004611a9a565b610c82565b61011d6101cf366004611a72565b610dca565b61011d6101e2366004611a9a565b610e73565b6101596101f5366004611a9a565b61101f565b61011d610208366004611a9a565b6110e0565b61017961021b366004611bcb565b611254565b61011d61022e366004611a9a565b611310565b61011d6102413660046119ca565b6114b0565b61011d610254366004611a9a565b611730565b61028c610267366004611a72565b6001600160a01b03919091165f90815260208181526040808320938352929052205490565b60405190815260200161012a565b61028c6102a8366004611a72565b6001600160a01b03919091165f908152600160209081526040808320938352929052205490565b60608183106102f1576040516322769e1d60e11b815260040160405180910390fd5b6001600160a01b0385165f908152600160209081526040808320878452909152812080549091036103355760405163163aee1b60e21b815260040160405180910390fd5b5f61034282866001611898565b8254909150811061035e57815461035b90600190611c4d565b90505b8482828154811061037157610371611c60565b5f918252602090912060029091020160010154600160401b900465ffffffffffff161080156103ac575081546103a990600190611c4d565b81105b156103bf57806103bb81611c74565b9150505b5f6103cc83866001611898565b835490915081106103e85782546103e590600190611c4d565b90505b8082118061042957508483838154811061040457610404611c60565b5f918252602090912060029091020160010154600160401b900465ffffffffffff1610155b156104475760405163163aee1b60e21b815260040160405180910390fd5b5f6104528383611c4d565b61045d906001611c8c565b90505f816001600160401b0381111561047857610478611c9f565b6040519080825280602002602001820160405280156104c157816020015b604080516060810182525f80825260208083018290529282015282525f199092019101816104965790505b5090505f5b8281101561055d57856104d98287611c8c565b815481106104e9576104e9611c60565b5f9182526020918290206040805160608101825260029390930290910180548352600101546001600160401b03811693830193909352600160401b90920465ffffffffffff1691810191909152825183908390811061054a5761054a611c60565b60209081029190910101526001016104c6565b509998505050505050505050565b6001600160a01b0382165f9081526002602052604081208054606092036105a55760405163163aee1b60e21b815260040160405180910390fd5b5f805b825481101561060e576001600160a01b0386165f90815260016020526040812084549091908590849081106105df576105df611c60565b905f5260205f20015481526020019081526020015f2080549050826106049190611c8c565b91506001016105a8565b505f81851161061d578461061f565b815b9050805f036106415760405163163aee1b60e21b815260040160405180910390fd5b5f816001600160401b0381111561065a5761065a611c9f565b6040519080825280602002602001820160405280156106a357816020015b604080516060810182525f80825260208083018290529282015282525f199092019101816106785790505b5090505f805b8554811080156106b857508382105b156107e8576001600160a01b0389165f908152600160205260408120875482908990859081106106ea576106ea611c60565b5f918252602080832090910154835282019290925260400181208054909250905b818110801561071957508685105b156107d257828161072b600185611c4d565b6107359190611c4d565b8154811061074557610745611c60565b5f9182526020918290206040805160608101825260029390930290910180548352600101546001600160401b03811693830193909352600160401b90920465ffffffffffff169181019190915286518790879081106107a6576107a6611c60565b602002602001018190525084806107bc90611c74565b95505080806107ca90611c74565b91505061070b565b50505080806107e090611c74565b9150506106a9565b50909450505050505b92915050565b604080516060810182525f80825260208083018290528284018290526001600160a01b038716825260018152838220868352905291822080549192909190036108535760405163163aee1b60e21b815260040160405180910390fd5b5f61086082856001611898565b8254909150811015806108a657508382828154811061088157610881611c60565b5f918252602090912060029091020160010154600160401b900465ffffffffffff1614155b156108c4576040516345150cc760e01b815260040160405180910390fd5b8181815481106108d6576108d6611c60565b5f9182526020918290206040805160608101825260029390930290910180548352600101546001600160401b03811693830193909352600160401b90920465ffffffffffff1691810191909152925050505b9392505050565b6001600160a01b0381165f9081526002602090815260409182902080548351818402810184019094528084526060939283018282801561098c57602002820191905f5260205f20905b815481526020019060010190808311610978575b50505050509050919050565b604080516060810182525f80825260208083018290528284018290526001600160a01b038716825260018152838220868352905291822080549192909190036109f45760405163163aee1b60e21b815260040160405180910390fd5b5f610a0082855f611898565b825490915081108015610a40575083828281548110610a2157610a21611c60565b5f9182526020909120600160029092020101546001600160401b031611155b15610aae57818181548110610a5757610a57611c60565b5f9182526020918290206040805160608101825260029390930290910180548352600101546001600160401b03811693830193909352600160401b90920465ffffffffffff16918101919091529250610928915050565b604051633e22764d60e11b815260040160405180910390fd5b806064811115610aea57604051638d6e7a7960e01b815260040160405180910390fd5b5f5b81811015610c7b5736848483818110610b0757610b07611c60565b6001600160a01b0389165f90815260208181526040808320938102959095018035835292905292832054909350918290039050610b6a576001600160a01b0387165f90815260026020908152604082208054600181018255908352912083359101555b6001600160a01b0387165f81815260208181526040808320863580855290835281842083880135908190558585526001808552838620838752855283862084516060810186528381526001600160401b0343818116838a0190815265ffffffffffff42818116868c019081528754808a018955888f529c909d2095516002909c029095019a8b5590519990950180549a51909516600160401b026001600160701b0319909a1698909116979097179790971790915592519295919491937fa1a325dd3ab50a50da29b7e0c70017d7834b6d6565bd3518be12f123084109fe93610c659391909283526020830191909152604082015260600190565b60405180910390a3505050806001019050610aec565b5050505050565b6001600160a01b0383165f90815260208181526040808320858452909152902054151580610cd5576001600160a01b0384165f908152600260209081526040822080546001810182559083529120018390555b6001600160a01b0384165f818152602081815260408083208784528252808320869055838352600180835281842088855283528184208251606080820185528982526001600160401b034381811684890190815265ffffffffffff42818116878b019081528854808b018a55898e529c8c902097516002909d029097019b8c5591519a90970180549551909716600160401b026001600160701b03199095169990921698909817929092179093558351898152948501529183019390935292869290917fa1a325dd3ab50a50da29b7e0c70017d7834b6d6565bd3518be12f123084109fe910160405180910390a35050505050565b6001600160a01b0382165f9081526001602090815260408083208484528252808320805482518185028101850190935280835260609492939192909184015b82821015610e67575f8481526020908190206040805160608101825260028602909201805483526001908101546001600160401b03811684860152600160401b900465ffffffffffff16918301919091529083529092019101610e09565b50505050905092915050565b6001600160a01b0383165f9081526001602090815260408083208584529091528120805460609203610eb85760405163163aee1b60e21b815260040160405180910390fd5b5f610ec482855f611898565b8254909150610ed590600190611c4d565b8110610ef45760405163163aee1b60e21b815260040160405180910390fd5b5f610f00826001611c8c565b83549091505f90610f12908390611c4d565b90505f816001600160401b03811115610f2d57610f2d611c9f565b604051908082528060200260200182016040528015610f7657816020015b604080516060810182525f80825260208083018290529282015282525f19909201910181610f4b5790505b5090505f5b828110156110125785610f8e8286611c8c565b81548110610f9e57610f9e611c60565b5f9182526020918290206040805160608101825260029390930290910180548352600101546001600160401b03811693830193909352600160401b90920465ffffffffffff16918101919091528251839083908110610fff57610fff611c60565b6020908102919091010152600101610f7b565b5098975050505050505050565b604080516060810182525f80825260208083018290528284018290526001600160a01b038716825260018152838220868352905291909120805483106110785760405163d9ba09d160e01b815260040160405180910390fd5b80838154811061108a5761108a611c60565b5f9182526020918290206040805160608101825260029390930290910180548352600101546001600160401b03811693830193909352600160401b90920465ffffffffffff169181019190915295945050505050565b6001600160a01b0383165f90815260016020908152604080832085845290915281208054606092036111255760405163163aee1b60e21b815260040160405180910390fd5b5f61113282856001611898565b9050805f036111545760405163163aee1b60e21b815260040160405180910390fd5b5f816001600160401b0381111561116d5761116d611c9f565b6040519080825280602002602001820160405280156111b657816020015b604080516060810182525f80825260208083018290529282015282525f1990920191018161118b5790505b5090505f5b82811015611249578381815481106111d5576111d5611c60565b5f9182526020918290206040805160608101825260029390930290910180548352600101546001600160401b03811693830193909352600160401b90920465ffffffffffff1691810191909152825183908390811061123657611236611c60565b60209081029190910101526001016111bb565b509695505050505050565b6060816001600160401b0381111561126e5761126e611c9f565b604051908082528060200260200182016040528015611297578160200160208202803683370190505b5090505f5b82811015611308576001600160a01b0385165f908152602081905260408120908585848181106112ce576112ce611c60565b9050602002013581526020019081526020015f20548282815181106112f5576112f5611c60565b602090810291909101015260010161129c565b509392505050565b6001600160a01b0383165f90815260016020908152604080832085845290915281208054606092036113555760405163163aee1b60e21b815260040160405180910390fd5b5f61136282856001611898565b825490915061137390600190611c4d565b81106113925760405163163aee1b60e21b815260040160405180910390fd5b5f61139e826001611c8c565b83549091505f906113b0908390611c4d565b90505f816001600160401b038111156113cb576113cb611c9f565b60405190808252806020026020018201604052801561141457816020015b604080516060810182525f80825260208083018290529282015282525f199092019101816113e95790505b5090505f5b82811015611012578561142c8286611c8c565b8154811061143c5761143c611c60565b5f9182526020918290206040805160608101825260029390930290910180548352600101546001600160401b03811693830193909352600160401b90920465ffffffffffff1691810191909152825183908390811061149d5761149d611c60565b6020908102919091010152600101611419565b60608183106114d257604051638eee879d60e01b815260040160405180910390fd5b6001600160a01b0385165f908152600160209081526040808320878452909152812080549091036115165760405163163aee1b60e21b815260040160405180910390fd5b5f61152282865f611898565b8254909150811061153e57815461153b90600190611c4d565b90505b8482828154811061155157611551611c60565b5f9182526020909120600160029092020101546001600160401b03161080156115865750815461158390600190611c4d565b81105b15611599578061159581611c74565b9150505b5f6115a583865f611898565b835490915081106115c15782546115be90600190611c4d565b90505b808211806115fc5750848383815481106115dd576115dd611c60565b5f9182526020909120600160029092020101546001600160401b031610155b1561161a5760405163163aee1b60e21b815260040160405180910390fd5b5f6116258383611c4d565b611630906001611c8c565b90505f816001600160401b0381111561164b5761164b611c9f565b60405190808252806020026020018201604052801561169457816020015b604080516060810182525f80825260208083018290529282015282525f199092019101816116695790505b5090505f5b8281101561055d57856116ac8287611c8c565b815481106116bc576116bc611c60565b5f9182526020918290206040805160608101825260029390930290910180548352600101546001600160401b03811693830193909352600160401b90920465ffffffffffff1691810191909152825183908390811061171d5761171d611c60565b6020908102919091010152600101611699565b6001600160a01b0383165f90815260016020908152604080832085845290915281208054606092036117755760405163163aee1b60e21b815260040160405180910390fd5b5f61178182855f611898565b9050805f036117a35760405163163aee1b60e21b815260040160405180910390fd5b5f816001600160401b038111156117bc576117bc611c9f565b60405190808252806020026020018201604052801561180557816020015b604080516060810182525f80825260208083018290529282015282525f199092019101816117da5790505b5090505f5b828110156112495783818154811061182457611824611c60565b5f9182526020918290206040805160608101825260029390930290910180548352600101546001600160401b03811693830193909352600160401b90920465ffffffffffff1691810191909152825183908390811061188557611885611c60565b602090810291909101015260010161180a565b82545f9081036118a957505f610928565b83545f5b81811015611973575f6118c08284611995565b90505f808660018111156118d6576118d6611cb3565b14611914578782815481106118ed576118ed611c60565b5f918252602090912060029091020160010154600160401b900465ffffffffffff16611943565b87828154811061192657611926611c60565b5f9182526020909120600160029092020101546001600160401b03165b6001600160401b031690508681111561195e5781935061196c565b611969826001611c8c565b92505b50506118ad565b811561198957611984600183611c4d565b61198b565b5f5b9695505050505050565b5f6119a36002848418611cc7565b61092890848416611c8c565b80356001600160a01b03811681146119c5575f5ffd5b919050565b5f5f5f5f608085870312156119dd575f5ffd5b6119e6856119af565b966020860135965060408601359560600135945092505050565b602080825282518282018190525f918401906040840190835b81811015611a6757611a51838551805182526020808201516001600160401b03169083015260409081015165ffffffffffff16910152565b6020939093019260609290920191600101611a19565b509095945050505050565b5f5f60408385031215611a83575f5ffd5b611a8c836119af565b946020939093013593505050565b5f5f5f60608486031215611aac575f5ffd5b611ab5846119af565b95602085013595506040909401359392505050565b815181526020808301516001600160401b03169082015260408083015165ffffffffffff1690820152606081016107f1565b5f60208284031215611b0c575f5ffd5b610928826119af565b602080825282518282018190525f918401906040840190835b81811015611a67578351835260209384019390920191600101611b2e565b5f5f5f60408486031215611b5e575f5ffd5b611b67846119af565b925060208401356001600160401b03811115611b81575f5ffd5b8401601f81018613611b91575f5ffd5b80356001600160401b03811115611ba6575f5ffd5b8660208260061b8401011115611bba575f5ffd5b939660209190910195509293505050565b5f5f5f60408486031215611bdd575f5ffd5b611be6846119af565b925060208401356001600160401b03811115611c00575f5ffd5b8401601f81018613611c10575f5ffd5b80356001600160401b03811115611c25575f5ffd5b8660208260051b8401011115611bba575f5ffd5b634e487b7160e01b5f52601160045260245ffd5b818103818111156107f1576107f1611c39565b634e487b7160e01b5f52603260045260245ffd5b5f60018201611c8557611c85611c39565b5060010190565b808201808211156107f1576107f1611c39565b634e487b7160e01b5f52604160045260245ffd5b634e487b7160e01b5f52602160045260245ffd5b5f82611ce157634e487b7160e01b5f52601260045260245ffd5b50049056fea26469706673582212204964a7ac0cbbb544483de46d017cbfddf66d2f6ed0d7b937ede0f2c46290cb5664736f6c634300081b0033",
        "nonce": "0x5",
        "chainId": "0x7a69"
      },
      "additionalContracts": [],
      "isFixedGasLimit": false
    },
    {
      "hash": "0x7a46fce600a9e75b795710748186e7c4840374710af510d8b7ae2ca519163291",
      "transactionType": "CALL",
      "contractName": "StateManager",
      "contractAddress": "0x5fc8d32690cc91d4c39d9d3abcbd16989f875707",
      "function": "setValue(address,uint256,uint256)",
      "arguments": [
        "0x0000000000000000000000000000000000001111",
        "1",
        "100000000000000000000"
      ],
      "transaction": {
        "from": "0xf39fd6e51aad88f6f4ce6ab8827279cfffb92266",
        "to": "0x5fc8d32690cc91d4c39d9d3abcbd16989f875707",
        "gas": "0x38649",
        "value": "0x0",
        "input": "0x6687f006000000000000000000000000000000000000000000000000000000000000111100000000000000000000000000000000000000000000000000000000000000010000000000000000000000000000000000000000000000056bc75e2d63100000",
        "nonce": "0x6",
        "chainId": "0x7a69"
      },
      "additionalContracts": [],
      "isFixedGasLimit": false
    },
    {
      "hash": "0xb185b918b95ed4272eec298b1157d729a99e9712d4e29b569fda3b1275c8bcdd",
      "transactionType": "CALL",
      "contractName": "StateManager",
      "contractAddress": "0x5fc8d32690cc91d4c39d9d3abcbd16989f875707",
      "function": "setValue(address,uint256,uint256)",
      "arguments": [
        "0x0000000000000000000000000000000000001111",
        "1",
        "150000000000000000000"
      ],
      "transaction": {
        "from": "0xf39fd6e51aad88f6f4ce6ab8827279cfffb92266",
        "to": "0x5fc8d32690cc91d4c39d9d3abcbd16989f875707",
        "gas": "0x1ac3f",
        "value": "0x0",
        "input": "0x6687f0060000000000000000000000000000000000000000000000000000000000001111000000000000000000000000000000000000000000000000000000000000000100000000000000000000000000000000000000000000000821ab0d4414980000",
        "nonce": "0x7",
        "chainId": "0x7a69"
      },
      "additionalContracts": [],
      "isFixedGasLimit": false
    },
    {
      "hash": "0xf5c21f460b69fc3d633224beab116e0b3600ddf96aaa9f505634914f759c7021",
      "transactionType": "CALL",
      "contractName": "StateManager",
      "contractAddress": "0x5fc8d32690cc91d4c39d9d3abcbd16989f875707",
      "function": "setValue(address,uint256,uint256)",
      "arguments": [
        "0x0000000000000000000000000000000000001111",
        "1",
        "200000000000000000000"
      ],
      "transaction": {
        "from": "0xf39fd6e51aad88f6f4ce6ab8827279cfffb92266",
        "to": "0x5fc8d32690cc91d4c39d9d3abcbd16989f875707",
        "gas": "0x1ac3f",
        "value": "0x0",
        "input": "0x6687f0060000000000000000000000000000000000000000000000000000000000001111000000000000000000000000000000000000000000000000000000000000000100000000000000000000000000000000000000000000000ad78ebc5ac6200000",
        "nonce": "0x8",
        "chainId": "0x7a69"
      },
      "additionalContracts": [],
      "isFixedGasLimit": false
    },
    {
      "hash": "0x4cc97eae91cbb0f847377af344c4c2935167fa40886995efdac727a3d4b21336",
      "transactionType": "CALL",
      "contractName": "StateManager",
      "contractAddress": "0x5fc8d32690cc91d4c39d9d3abcbd16989f875707",
      "function": "setValue(address,uint256,uint256)",
      "arguments": [
        "0x0000000000000000000000000000000000001111",
        "2",
        "50000000000000000000"
      ],
      "transaction": {
        "from": "0xf39fd6e51aad88f6f4ce6ab8827279cfffb92266",
        "to": "0x5fc8d32690cc91d4c39d9d3abcbd16989f875707",
        "gas": "0x2f7e5",
        "value": "0x0",
        "input": "0x6687f00600000000000000000000000000000000000000000000000000000000000011110000000000000000000000000000000000000000000000000000000000000002000000000000000000000000000000000000000000000002b5e3af16b1880000",
        "nonce": "0x9",
        "chainId": "0x7a69"
      },
      "additionalContracts": [],
      "isFixedGasLimit": false
    },
    {
      "hash": "0x27f1dcd04167645c516d032e218a3b76f50b3fd1838fff0ad248bd3d70fec3d2",
      "transactionType": "CALL",
      "contractName": "StateManager",
      "contractAddress": "0x5fc8d32690cc91d4c39d9d3abcbd16989f875707",
      "function": "setValue(address,uint256,uint256)",
      "arguments": [
        "0x0000000000000000000000000000000000001111",
        "2",
        "75000000000000000000"
      ],
      "transaction": {
        "from": "0xf39fd6e51aad88f6f4ce6ab8827279cfffb92266",
        "to": "0x5fc8d32690cc91d4c39d9d3abcbd16989f875707",
        "gas": "0x1ac3f",
        "value": "0x0",
        "input": "0x6687f0060000000000000000000000000000000000000000000000000000000000001111000000000000000000000000000000000000000000000000000000000000000200000000000000000000000000000000000000000000000410d586a20a4c0000",
        "nonce": "0xa",
        "chainId": "0x7a69"
      },
      "additionalContracts": [],
      "isFixedGasLimit": false
    },
    {
      "hash": "0xeacf2b0300fddd007425c3e3048be0946043858c50fb1a117537a9fc41735d32",
      "transactionType": "CALL",
      "contractName": "StateManager",
      "contractAddress": "0x5fc8d32690cc91d4c39d9d3abcbd16989f875707",
      "function": "setValue(address,uint256,uint256)",
      "arguments": [
        "0x0000000000000000000000000000000000001111",
        "3",
        "5000000000000000000"
      ],
      "transaction": {
        "from": "0xf39fd6e51aad88f6f4ce6ab8827279cfffb92266",
        "to": "0x5fc8d32690cc91d4c39d9d3abcbd16989f875707",
        "gas": "0x32487",
        "value": "0x0",
        "input": "0x6687f006000000000000000000000000000000000000000000000000000000000000111100000000000000000000000000000000000000000000000000000000000000030000000000000000000000000000000000000000000000004563918244f40000",
        "nonce": "0xb",
        "chainId": "0x7a69"
      },
      "additionalContracts": [],
      "isFixedGasLimit": false
    },
    {
      "hash": "0xb9f3abba3b4b30a93d6fbeb9d269cc0b3794ddca50844fe87780c8e15aa74fea",
      "transactionType": "CALL",
      "contractName": "StateManager",
      "contractAddress": "0x5fc8d32690cc91d4c39d9d3abcbd16989f875707",
      "function": "setValue(address,uint256,uint256)",
      "arguments": [
        "0x0000000000000000000000000000000000002222",
        "1",
        "500000000000000000000"
      ],
      "transaction": {
        "from": "0xf39fd6e51aad88f6f4ce6ab8827279cfffb92266",
        "to": "0x5fc8d32690cc91d4c39d9d3abcbd16989f875707",
        "gas": "0x38649",
        "value": "0x0",
        "input": "0x6687f0060000000000000000000000000000000000000000000000000000000000002222000000000000000000000000000000000000000000000000000000000000000100000000000000000000000000000000000000000000001b1ae4d6e2ef500000",
        "nonce": "0xc",
        "chainId": "0x7a69"
      },
      "additionalContracts": [],
      "isFixedGasLimit": false
    },
    {
      "hash": "0xe0cc6e4e59c5b1c4117c7742dd0734a5b39eedcb25ec5a69b4b202ef171f6c66",
      "transactionType": "CALL",
      "contractName": "StateManager",
      "contractAddress": "0x5fc8d32690cc91d4c39d9d3abcbd16989f875707",
      "function": "setValue(address,uint256,uint256)",
      "arguments": [
        "0x0000000000000000000000000000000000002222",
        "2",
        "200000000000000000000"
      ],
      "transaction": {
        "from": "0xf39fd6e51aad88f6f4ce6ab8827279cfffb92266",
        "to": "0x5fc8d32690cc91d4c39d9d3abcbd16989f875707",
        "gas": "0x2f7e5",
        "value": "0x0",
        "input": "0x6687f0060000000000000000000000000000000000000000000000000000000000002222000000000000000000000000000000000000000000000000000000000000000200000000000000000000000000000000000000000000000ad78ebc5ac6200000",
        "nonce": "0xd",
        "chainId": "0x7a69"
      },
      "additionalContracts": [],
      "isFixedGasLimit": false
    },
    {
      "hash": "0x28857341fe3d5c272da0af411f113cf93eccc54002bee3e763a1ea5c6a50de44",
      "transactionType": "CALL",
      "contractName": "StateManager",
      "contractAddress": "0x5fc8d32690cc91d4c39d9d3abcbd16989f875707",
      "function": "setValue(address,uint256,uint256)",
      "arguments": [
        "0x0000000000000000000000000000000000003333",
        "1",
        "1000000000000000000000"
      ],
      "transaction": {
        "from": "0xf39fd6e51aad88f6f4ce6ab8827279cfffb92266",
        "to": "0x5fc8d32690cc91d4c39d9d3abcbd16989f875707",
        "gas": "0x38649",
        "value": "0x0",
        "input": "0x6687f0060000000000000000000000000000000000000000000000000000000000003333000000000000000000000000000000000000000000000000000000000000000100000000000000000000000000000000000000000000003635c9adc5dea00000",
        "nonce": "0xe",
        "chainId": "0x7a69"
      },
      "additionalContracts": [],
      "isFixedGasLimit": false
    },
    {
      "hash": "0x86fc224d79c0bec8b00d05d544405ccda6474133b3bc59b9bbbcf7c5c5e1ae2e",
      "transactionType": "CALL",
      "contractName": "StateManager",
      "contractAddress": "0x5fc8d32690cc91d4c39d9d3abcbd16989f875707",
      "function": "setValue(address,uint256,uint256)",
      "arguments": [
        "0x0000000000000000000000000000000000003333",
        "2",
        "400000000000000000000"
      ],
      "transaction": {
        "from": "0xf39fd6e51aad88f6f4ce6ab8827279cfffb92266",
        "to": "0x5fc8d32690cc91d4c39d9d3abcbd16989f875707",
        "gas": "0x2f7e5",
        "value": "0x0",
        "input": "0x6687f00600000000000000000000000000000000000000000000000000000000000033330000000000000000000000000000000000000000000000000000000000000002000000000000000000000000000000000000000000000015af1d78b58c400000",
        "nonce": "0xf",
        "chainId": "0x7a69"
      },
      "additionalContracts": [],
      "isFixedGasLimit": false
    },
    {
      "hash": "0x4a3601d6e1d65d06c56461ff15eddf5ec7a53c715737a4b8913d01c3a79ff88e",
      "transactionType": "CALL",
      "contractName": "StateManager",
      "contractAddress": "0x5fc8d32690cc91d4c39d9d3abcbd16989f875707",
      "function": "setValue(address,uint256,uint256)",
      "arguments": [
        "0x0000000000000000000000000000000000003333",
        "3",
        "20000000000000000000"
      ],
      "transaction": {
        "from": "0xf39fd6e51aad88f6f4ce6ab8827279cfffb92266",
        "to": "0x5fc8d32690cc91d4c39d9d3abcbd16989f875707",
        "gas": "0x2f7e5",
        "value": "0x0",
        "input": "0x6687f00600000000000000000000000000000000000000000000000000000000000033330000000000000000000000000000000000000000000000000000000000000003000000000000000000000000000000000000000000000001158e460913d00000",
        "nonce": "0x10",
        "chainId": "0x7a69"
      },
      "additionalContracts": [],
      "isFixedGasLimit": false
    },
    {
      "hash": "0x86e21c02fe093c66e1d9dd9c4a551b217aff41af33e419f506eea8a9f51efe38",
      "transactionType": "CALL",
      "contractName": "StateManager",
      "contractAddress": "0x5fc8d32690cc91d4c39d9d3abcbd16989f875707",
      "function": "batchSetValues(address,(uint256,uint256)[])",
      "arguments": [
        "0x0000000000000000000000000000000000003333",
        "[(1, 1200000000000000000000), (2, 500000000000000000000)]"
      ],
      "transaction": {
        "from": "0xf39fd6e51aad88f6f4ce6ab8827279cfffb92266",
        "to": "0x5fc8d32690cc91d4c39d9d3abcbd16989f875707",
        "gas": "0x2e85b",
        "value": "0x0",
        "input": "0x4cb6878600000000000000000000000000000000000000000000000000000000000033330000000000000000000000000000000000000000000000000000000000000040000000000000000000000000000000000000000000000000000000000000000200000000000000000000000000000000000000000000000000000000000000010000000000000000000000000000000000000000000000410d586a20a4c00000000000000000000000000000000000000000000000000000000000000000000200000000000000000000000000000000000000000000001b1ae4d6e2ef500000",
        "nonce": "0x11",
        "chainId": "0x7a69"
      },
      "additionalContracts": [],
      "isFixedGasLimit": false
    }
  ],
  "receipts": [
    {
      "status": "0x1",
      "cumulativeGasUsed": "0x1967a5",
      "logs": [],
      "logsBloom": "0x00000000000000000000000000000000000000000000000000000000000000000000000000000000000000000000000000000000000000000000000000000000000000000000000000000000000000000000000000000000000000000000000000000000000000000000000000000000000000000000000000000000000000000000000000000000000000000000000000000000000000000000000000000000000000000000000000000000000000000000000000000000000000000000000000000000000000000000000000000000000000000000000000000000000000000000000000000000000000000000000000000000000000000000000000000000",
      "type": "0x2",
      "transactionHash": "0xf30b15f673dc7dc7b0d39162af8ec0034aad5cbf1b9c98f59d73bdbca7860899",
      "transactionIndex": "0x0",
      "blockHash": "0x4033e0055cac38911b7e958c0f68420115ac6a783efabcdeff2ed9f8f6803aad",
      "blockNumber": "0x6",
      "gasUsed": "0x1967a5",
      "effectiveGasPrice": "0x1ec35658",
      "blobGasPrice": "0x1",
      "from": "0xf39fd6e51aad88f6f4ce6ab8827279cfffb92266",
      "to": null,
      "contractAddress": "0x5fc8d32690cc91d4c39d9d3abcbd16989f875707"
    },
    {
      "status": "0x1",
      "cumulativeGasUsed": "0x268f3",
      "logs": [
        {
          "address": "0x5fc8d32690cc91d4c39d9d3abcbd16989f875707",
          "topics": [
            "0xa1a325dd3ab50a50da29b7e0c70017d7834b6d6565bd3518be12f123084109fe",
            "0x0000000000000000000000000000000000000000000000000000000000001111",
            "0x0000000000000000000000000000000000000000000000000000000000000001"
          ],
          "data": "0x0000000000000000000000000000000000000000000000056bc75e2d6310000000000000000000000000000000000000000000000000000000000000678ef0f10000000000000000000000000000000000000000000000000000000000000007",
          "blockHash": "0x6adbadaa08553ffc1a56c094c78d414a69c020669cdd912587bc93f5949d710d",
          "blockNumber": "0x7",
          "blockTimestamp": "0x678ef0f1",
          "transactionHash": "0x7a46fce600a9e75b795710748186e7c4840374710af510d8b7ae2ca519163291",
          "transactionIndex": "0x0",
          "logIndex": "0x0",
          "removed": false
        }
      ],
      "logsBloom": "0x00000000000100000000000000000000000000000000000000000000000000000000000000000000000000000000000000300000000010000000000000040000000000000000000000000000000000000000000240040000000000000000002000000000000000000000000000000000000000000000000000000000000000000000000020000000000000000000000000000000000000000000000000000000000000000000000000000000000000000000000000000000000000000000000000000000000000000000000000000000000000000000000000000001000040000000000000000000000000000000000000000000000000000000000000000000",
      "type": "0x2",
      "transactionHash": "0x7a46fce600a9e75b795710748186e7c4840374710af510d8b7ae2ca519163291",
      "transactionIndex": "0x0",
      "blockHash": "0x6adbadaa08553ffc1a56c094c78d414a69c020669cdd912587bc93f5949d710d",
      "blockNumber": "0x7",
      "gasUsed": "0x268f3",
      "effectiveGasPrice": "0x1b582fa0",
      "blobGasPrice": "0x1",
      "from": "0xf39fd6e51aad88f6f4ce6ab8827279cfffb92266",
      "to": "0x5fc8d32690cc91d4c39d9d3abcbd16989f875707",
      "contractAddress": null
    },
    {
      "status": "0x1",
      "cumulativeGasUsed": "0x1360c",
      "logs": [
        {
          "address": "0x5fc8d32690cc91d4c39d9d3abcbd16989f875707",
          "topics": [
            "0xa1a325dd3ab50a50da29b7e0c70017d7834b6d6565bd3518be12f123084109fe",
            "0x0000000000000000000000000000000000000000000000000000000000001111",
            "0x0000000000000000000000000000000000000000000000000000000000000001"
          ],
          "data": "0x00000000000000000000000000000000000000000000000821ab0d441498000000000000000000000000000000000000000000000000000000000000678ef0f10000000000000000000000000000000000000000000000000000000000000008",
          "blockHash": "0x8f6977a6125ff0c8d127e3d1b9733ffe570952c710149fb6e82a242549b0942f",
          "blockNumber": "0x8",
          "blockTimestamp": "0x678ef0f1",
          "transactionHash": "0xb185b918b95ed4272eec298b1157d729a99e9712d4e29b569fda3b1275c8bcdd",
          "transactionIndex": "0x0",
          "logIndex": "0x0",
          "removed": false
        }
      ],
      "logsBloom": "0x00000000000100000000000000000000000000000000000000000000000000000000000000000000000000000000000000300000000010000000000000040000000000000000000000000000000000000000000240040000000000000000002000000000000000000000000000000000000000000000000000000000000000000000000020000000000000000000000000000000000000000000000000000000000000000000000000000000000000000000000000000000000000000000000000000000000000000000000000000000000000000000000000000001000040000000000000000000000000000000000000000000000000000000000000000000",
      "type": "0x2",
      "transactionHash": "0xb185b918b95ed4272eec298b1157d729a99e9712d4e29b569fda3b1275c8bcdd",
      "transactionIndex": "0x0",
      "blockHash": "0x8f6977a6125ff0c8d127e3d1b9733ffe570952c710149fb6e82a242549b0942f",
      "blockNumber": "0x8",
      "gasUsed": "0x1360c",
      "effectiveGasPrice": "0x17f6604b",
      "blobGasPrice": "0x1",
      "from": "0xf39fd6e51aad88f6f4ce6ab8827279cfffb92266",
      "to": "0x5fc8d32690cc91d4c39d9d3abcbd16989f875707",
      "contractAddress": null
    },
    {
      "status": "0x1",
      "cumulativeGasUsed": "0x1360c",
      "logs": [
        {
          "address": "0x5fc8d32690cc91d4c39d9d3abcbd16989f875707",
          "topics": [
            "0xa1a325dd3ab50a50da29b7e0c70017d7834b6d6565bd3518be12f123084109fe",
            "0x0000000000000000000000000000000000000000000000000000000000001111",
            "0x0000000000000000000000000000000000000000000000000000000000000001"
          ],
          "data": "0x00000000000000000000000000000000000000000000000ad78ebc5ac620000000000000000000000000000000000000000000000000000000000000678ef0f10000000000000000000000000000000000000000000000000000000000000009",
          "blockHash": "0x697eda198d8b7c9279047538544d4f85ecbe7ea6d0a1b49f2c2f69ae966f6deb",
          "blockNumber": "0x9",
          "blockTimestamp": "0x678ef0f1",
          "transactionHash": "0xf5c21f460b69fc3d633224beab116e0b3600ddf96aaa9f505634914f759c7021",
          "transactionIndex": "0x0",
          "logIndex": "0x0",
          "removed": false
        }
      ],
      "logsBloom": "0x00000000000100000000000000000000000000000000000000000000000000000000000000000000000000000000000000300000000010000000000000040000000000000000000000000000000000000000000240040000000000000000002000000000000000000000000000000000000000000000000000000000000000000000000020000000000000000000000000000000000000000000000000000000000000000000000000000000000000000000000000000000000000000000000000000000000000000000000000000000000000000000000000000001000040000000000000000000000000000000000000000000000000000000000000000000",
      "type": "0x2",
      "transactionHash": "0xf5c21f460b69fc3d633224beab116e0b3600ddf96aaa9f505634914f759c7021",
      "transactionIndex": "0x0",
      "blockHash": "0x697eda198d8b7c9279047538544d4f85ecbe7ea6d0a1b49f2c2f69ae966f6deb",
      "blockNumber": "0x9",
      "gasUsed": "0x1360c",
      "effectiveGasPrice": "0x14fba2f9",
      "blobGasPrice": "0x1",
      "from": "0xf39fd6e51aad88f6f4ce6ab8827279cfffb92266",
      "to": "0x5fc8d32690cc91d4c39d9d3abcbd16989f875707",
      "contractAddress": null
    },
    {
      "status": "0x1",
      "cumulativeGasUsed": "0x22627",
      "logs": [
        {
          "address": "0x5fc8d32690cc91d4c39d9d3abcbd16989f875707",
          "topics": [
            "0xa1a325dd3ab50a50da29b7e0c70017d7834b6d6565bd3518be12f123084109fe",
            "0x0000000000000000000000000000000000000000000000000000000000001111",
            "0x0000000000000000000000000000000000000000000000000000000000000002"
          ],
          "data": "0x000000000000000000000000000000000000000000000002b5e3af16b188000000000000000000000000000000000000000000000000000000000000678ef0f1000000000000000000000000000000000000000000000000000000000000000a",
          "blockHash": "0x1e3d3f0fd999f4451f2987be16a50c6da88e06464a368a26c12b993441f05dba",
          "blockNumber": "0xa",
          "blockTimestamp": "0x678ef0f1",
          "transactionHash": "0x4cc97eae91cbb0f847377af344c4c2935167fa40886995efdac727a3d4b21336",
          "transactionIndex": "0x0",
          "logIndex": "0x0",
          "removed": false
        }
      ],
      "logsBloom": "0x04000000000100000000000000000000000000000000000000000000000000000000000000000000000000000000000000300000000010000000000000000000000000000000000000000000000000000000000240000000000000000000002000000000000000000000000000000000000000000000000000000000000000000000000020000000000000000000000000000000000000000000000000000000000000000000000000000100000000000000000000000000000000000000000000000000000000000000000000000000000000000000000000000001000000000000000000000000000000000000000000000000008000000000000000000000",
      "type": "0x2",
      "transactionHash": "0x4cc97eae91cbb0f847377af344c4c2935167fa40886995efdac727a3d4b21336",
      "transactionIndex": "0x0",
      "blockHash": "0x1e3d3f0fd999f4451f2987be16a50c6da88e06464a368a26c12b993441f05dba",
      "blockNumber": "0xa",
      "gasUsed": "0x22627",
      "effectiveGasPrice": "0x125fbc2b",
      "blobGasPrice": "0x1",
      "from": "0xf39fd6e51aad88f6f4ce6ab8827279cfffb92266",
      "to": "0x5fc8d32690cc91d4c39d9d3abcbd16989f875707",
      "contractAddress": null
    },
    {
      "status": "0x1",
      "cumulativeGasUsed": "0x1360c",
      "logs": [
        {
          "address": "0x5fc8d32690cc91d4c39d9d3abcbd16989f875707",
          "topics": [
            "0xa1a325dd3ab50a50da29b7e0c70017d7834b6d6565bd3518be12f123084109fe",
            "0x0000000000000000000000000000000000000000000000000000000000001111",
            "0x0000000000000000000000000000000000000000000000000000000000000002"
          ],
          "data": "0x00000000000000000000000000000000000000000000000410d586a20a4c000000000000000000000000000000000000000000000000000000000000678ef0f1000000000000000000000000000000000000000000000000000000000000000b",
          "blockHash": "0x1630cebe6f6161cd23404094d82ad2b6c1eb3be4e7ea78c85b6096525feafc76",
          "blockNumber": "0xb",
          "blockTimestamp": "0x678ef0f1",
          "transactionHash": "0x27f1dcd04167645c516d032e218a3b76f50b3fd1838fff0ad248bd3d70fec3d2",
          "transactionIndex": "0x0",
          "logIndex": "0x0",
          "removed": false
        }
      ],
      "logsBloom": "0x04000000000100000000000000000000000000000000000000000000000000000000000000000000000000000000000000300000000010000000000000000000000000000000000000000000000000000000000240000000000000000000002000000000000000000000000000000000000000000000000000000000000000000000000020000000000000000000000000000000000000000000000000000000000000000000000000000100000000000000000000000000000000000000000000000000000000000000000000000000000000000000000000000001000000000000000000000000000000000000000000000000008000000000000000000000",
      "type": "0x2",
      "transactionHash": "0x27f1dcd04167645c516d032e218a3b76f50b3fd1838fff0ad248bd3d70fec3d2",
      "transactionIndex": "0x0",
      "blockHash": "0x1630cebe6f6161cd23404094d82ad2b6c1eb3be4e7ea78c85b6096525feafc76",
      "blockNumber": "0xb",
      "gasUsed": "0x1360c",
      "effectiveGasPrice": "0x101949eb",
      "blobGasPrice": "0x1",
      "from": "0xf39fd6e51aad88f6f4ce6ab8827279cfffb92266",
      "to": "0x5fc8d32690cc91d4c39d9d3abcbd16989f875707",
      "contractAddress": null
    },
    {
      "status": "0x1",
      "cumulativeGasUsed": "0x2261b",
      "logs": [
        {
          "address": "0x5fc8d32690cc91d4c39d9d3abcbd16989f875707",
          "topics": [
            "0xa1a325dd3ab50a50da29b7e0c70017d7834b6d6565bd3518be12f123084109fe",
            "0x0000000000000000000000000000000000000000000000000000000000001111",
            "0x0000000000000000000000000000000000000000000000000000000000000003"
          ],
          "data": "0x0000000000000000000000000000000000000000000000004563918244f4000000000000000000000000000000000000000000000000000000000000678ef0f1000000000000000000000000000000000000000000000000000000000000000c",
          "blockHash": "0xd571a04fa43f87b6f394d5c92d93af1efe6053d8541612c29f04e4401b03e439",
          "blockNumber": "0xc",
          "blockTimestamp": "0x678ef0f1",
          "transactionHash": "0xeacf2b0300fddd007425c3e3048be0946043858c50fb1a117537a9fc41735d32",
          "transactionIndex": "0x0",
          "logIndex": "0x0",
          "removed": false
        }
      ],
      "logsBloom": "0x00000000000100000000000000000000000000000000000000000000000000000000000000000000000000000000000000300000020010000000000000000000000000000000000000000000000000000000000240000000000000000000002000000000000000000000000000000000000000000000000000000000000000000000000020000000000000000000000000000000000000000000000000000000000000000000000000000000000000000000000000800000000000000000400000000000000000000000000000000000000000000000000000000001000000000000000000000000000000000000000000000000000000000000000000000000",
      "type": "0x2",
      "transactionHash": "0xeacf2b0300fddd007425c3e3048be0946043858c50fb1a117537a9fc41735d32",
      "transactionIndex": "0x0",
      "blockHash": "0xd571a04fa43f87b6f394d5c92d93af1efe6053d8541612c29f04e4401b03e439",
      "blockNumber": "0xc",
      "gasUsed": "0x2261b",
      "effectiveGasPrice": "0xe18da87",
      "blobGasPrice": "0x1",
      "from": "0xf39fd6e51aad88f6f4ce6ab8827279cfffb92266",
      "to": "0x5fc8d32690cc91d4c39d9d3abcbd16989f875707",
      "contractAddress": null
    },
    {
      "status": "0x1",
      "cumulativeGasUsed": "0x268f3",
      "logs": [
        {
          "address": "0x5fc8d32690cc91d4c39d9d3abcbd16989f875707",
          "topics": [
            "0xa1a325dd3ab50a50da29b7e0c70017d7834b6d6565bd3518be12f123084109fe",
            "0x0000000000000000000000000000000000000000000000000000000000002222",
            "0x0000000000000000000000000000000000000000000000000000000000000001"
          ],
          "data": "0x00000000000000000000000000000000000000000000001b1ae4d6e2ef50000000000000000000000000000000000000000000000000000000000000678ef0f1000000000000000000000000000000000000000000000000000000000000000d",
          "blockHash": "0x2525c52d4356f6c39c45fc0a78786e0a3c434b0d96ba3a39f0301f002fc2ac78",
          "blockNumber": "0xd",
          "blockTimestamp": "0x678ef0f1",
          "transactionHash": "0xb9f3abba3b4b30a93d6fbeb9d269cc0b3794ddca50844fe87780c8e15aa74fea",
          "transactionIndex": "0x0",
          "logIndex": "0x0",
          "removed": false
        }
      ],
      "logsBloom": "0x00000000000000000000000000000000000000000000000000000000000000000000000000000000000000000000000000100000000010000000000000040000000000000000000000000000000000000000000242040000000000000000000000000000000008000000000000000000000000000000000000000000000000000000000020000000000000000000000000000000000000000000000000000000000000000000000000000000000000000000000000000000000000000000000000000000000000000000000000000000000000000000000000000001000040000000000000000000000000000000000000000000000000000000000000040000",
      "type": "0x2",
      "transactionHash": "0xb9f3abba3b4b30a93d6fbeb9d269cc0b3794ddca50844fe87780c8e15aa74fea",
      "transactionIndex": "0x0",
      "blockHash": "0x2525c52d4356f6c39c45fc0a78786e0a3c434b0d96ba3a39f0301f002fc2ac78",
      "blockNumber": "0xd",
      "gasUsed": "0x268f3",
      "effectiveGasPrice": "0xc59fb6d",
      "blobGasPrice": "0x1",
      "from": "0xf39fd6e51aad88f6f4ce6ab8827279cfffb92266",
      "to": "0x5fc8d32690cc91d4c39d9d3abcbd16989f875707",
      "contractAddress": null
    },
    {
      "status": "0x1",
      "cumulativeGasUsed": "0x22627",
      "logs": [
        {
          "address": "0x5fc8d32690cc91d4c39d9d3abcbd16989f875707",
          "topics": [
            "0xa1a325dd3ab50a50da29b7e0c70017d7834b6d6565bd3518be12f123084109fe",
            "0x0000000000000000000000000000000000000000000000000000000000002222",
            "0x0000000000000000000000000000000000000000000000000000000000000002"
          ],
          "data": "0x00000000000000000000000000000000000000000000000ad78ebc5ac620000000000000000000000000000000000000000000000000000000000000678ef0f1000000000000000000000000000000000000000000000000000000000000000e",
          "blockHash": "0x88e5f206b53fa541a62d7608a28c31c33efb6df85e00d4981d2e1ae3ea52d8a7",
          "blockNumber": "0xe",
          "blockTimestamp": "0x678ef0f1",
          "transactionHash": "0xe0cc6e4e59c5b1c4117c7742dd0734a5b39eedcb25ec5a69b4b202ef171f6c66",
          "transactionIndex": "0x0",
          "logIndex": "0x0",
          "removed": false
        }
      ],
      "logsBloom": "0x04000000000000000000000000000000000000000000000000000000000000000000000000000000000000000000000000100000000010000000000000000000000000000000000000000000000000000000000242000000000000000000000000000000000008000000000000000000000000000000000000000000000000000000000020000000000000000000000000000000000000000000000000000000000000000000000000000100000000000000000000000000000000000000000000000000000000000000000000000000000000000000000000000001000000000000000000000000000000000000000000000000008000000000000000040000",
      "type": "0x2",
      "transactionHash": "0xe0cc6e4e59c5b1c4117c7742dd0734a5b39eedcb25ec5a69b4b202ef171f6c66",
      "transactionIndex": "0x0",
      "blockHash": "0x88e5f206b53fa541a62d7608a28c31c33efb6df85e00d4981d2e1ae3ea52d8a7",
      "blockNumber": "0xe",
      "gasUsed": "0x22627",
      "effectiveGasPrice": "0xad2e563",
      "blobGasPrice": "0x1",
      "from": "0xf39fd6e51aad88f6f4ce6ab8827279cfffb92266",
      "to": "0x5fc8d32690cc91d4c39d9d3abcbd16989f875707",
      "contractAddress": null
    },
    {
      "status": "0x1",
      "cumulativeGasUsed": "0x268f3",
      "logs": [
        {
          "address": "0x5fc8d32690cc91d4c39d9d3abcbd16989f875707",
          "topics": [
            "0xa1a325dd3ab50a50da29b7e0c70017d7834b6d6565bd3518be12f123084109fe",
            "0x0000000000000000000000000000000000000000000000000000000000003333",
            "0x0000000000000000000000000000000000000000000000000000000000000001"
          ],
          "data": "0x00000000000000000000000000000000000000000000003635c9adc5dea0000000000000000000000000000000000000000000000000000000000000678ef0f1000000000000000000000000000000000000000000000000000000000000000f",
          "blockHash": "0x07aa290b4ba4631003cbabe255e83bef6cf825055bedc5196f5a1cc6e6f62c63",
          "blockNumber": "0xf",
          "blockTimestamp": "0x678ef0f1",
          "transactionHash": "0x28857341fe3d5c272da0af411f113cf93eccc54002bee3e763a1ea5c6a50de44",
          "transactionIndex": "0x0",
          "logIndex": "0x0",
          "removed": false
        }
      ],
      "logsBloom": "0x00000000000000000000000000000000000000000000000000000000000000000000000000000000000000000000000000100000000010000000000000040000000000000000000000000000000000000000000240042000000010000000000000000000000000000000000000000000000000000000000000000000000000000000000020000000000000000000000000000000000004000000000000000000000000000000000000000000000000000000000000000000000000000000000000000000000000000000000000000000000000000000000000000001000040000000000000000000000000000000000000000000000000000000000000000000",
      "type": "0x2",
      "transactionHash": "0x28857341fe3d5c272da0af411f113cf93eccc54002bee3e763a1ea5c6a50de44",
      "transactionIndex": "0x0",
      "blockHash": "0x07aa290b4ba4631003cbabe255e83bef6cf825055bedc5196f5a1cc6e6f62c63",
      "blockNumber": "0xf",
      "gasUsed": "0x268f3",
      "effectiveGasPrice": "0x97bc940",
      "blobGasPrice": "0x1",
      "from": "0xf39fd6e51aad88f6f4ce6ab8827279cfffb92266",
      "to": "0x5fc8d32690cc91d4c39d9d3abcbd16989f875707",
      "contractAddress": null
    },
    {
      "status": "0x1",
      "cumulativeGasUsed": "0x22627",
      "logs": [
        {
          "address": "0x5fc8d32690cc91d4c39d9d3abcbd16989f875707",
          "topics": [
            "0xa1a325dd3ab50a50da29b7e0c70017d7834b6d6565bd3518be12f123084109fe",
            "0x0000000000000000000000000000000000000000000000000000000000003333",
            "0x0000000000000000000000000000000000000000000000000000000000000002"
          ],
          "data": "0x000000000000000000000000000000000000000000000015af1d78b58c40000000000000000000000000000000000000000000000000000000000000678ef0f10000000000000000000000000000000000000000000000000000000000000010",
          "blockHash": "0x3a9d50677d089195100a14ae6487d634cb38db038b37c68f5ceae21fc6af3ced",
          "blockNumber": "0x10",
          "blockTimestamp": "0x678ef0f1",
          "transactionHash": "0x86fc224d79c0bec8b00d05d544405ccda6474133b3bc59b9bbbcf7c5c5e1ae2e",
          "transactionIndex": "0x0",
          "logIndex": "0x0",
          "removed": false
        }
      ],
      "logsBloom": "0x04000000000000000000000000000000000000000000000000000000000000000000000000000000000000000000000000100000000010000000000000000000000000000000000000000000000000000000000240002000000010000000000000000000000000000000000000000000000000000000000000000000000000000000000020000000000000000000000000000000000004000000000000000000000000000000000000000100000000000000000000000000000000000000000000000000000000000000000000000000000000000000000000000001000000000000000000000000000000000000000000000000008000000000000000000000",
      "type": "0x2",
      "transactionHash": "0x86fc224d79c0bec8b00d05d544405ccda6474133b3bc59b9bbbcf7c5c5e1ae2e",
      "transactionIndex": "0x0",
      "blockHash": "0x3a9d50677d089195100a14ae6487d634cb38db038b37c68f5ceae21fc6af3ced",
      "blockNumber": "0x10",
      "gasUsed": "0x22627",
      "effectiveGasPrice": "0x84f821b",
      "blobGasPrice": "0x1",
      "from": "0xf39fd6e51aad88f6f4ce6ab8827279cfffb92266",
      "to": "0x5fc8d32690cc91d4c39d9d3abcbd16989f875707",
      "contractAddress": null
    },
    {
      "status": "0x1",
      "cumulativeGasUsed": "0x22627",
      "logs": [
        {
          "address": "0x5fc8d32690cc91d4c39d9d3abcbd16989f875707",
          "topics": [
            "0xa1a325dd3ab50a50da29b7e0c70017d7834b6d6565bd3518be12f123084109fe",
            "0x0000000000000000000000000000000000000000000000000000000000003333",
            "0x0000000000000000000000000000000000000000000000000000000000000003"
          ],
          "data": "0x000000000000000000000000000000000000000000000001158e460913d0000000000000000000000000000000000000000000000000000000000000678ef0f10000000000000000000000000000000000000000000000000000000000000011",
          "blockHash": "0xd0618f34c20a7fa8706f77316d56536c26b0643de4c1f637d4565dbee3b2f230",
          "blockNumber": "0x11",
          "blockTimestamp": "0x678ef0f1",
          "transactionHash": "0x4a3601d6e1d65d06c56461ff15eddf5ec7a53c715737a4b8913d01c3a79ff88e",
          "transactionIndex": "0x0",
          "logIndex": "0x0",
          "removed": false
        }
      ],
      "logsBloom": "0x00000000000000000000000000000000000000000000000000000000000000000000000000000000000000000000000000100000020010000000000000000000000000000000000000000000000000000000000240002000000010000000000000000000000000000000000000000000000000000000000000000000000000000000000020000000000000000000000000000000000004000000000000000000000000000000000000000000000000000000000000800000000000000000400000000000000000000000000000000000000000000000000000000001000000000000000000000000000000000000000000000000000000000000000000000000",
      "type": "0x2",
      "transactionHash": "0x4a3601d6e1d65d06c56461ff15eddf5ec7a53c715737a4b8913d01c3a79ff88e",
      "transactionIndex": "0x0",
      "blockHash": "0xd0618f34c20a7fa8706f77316d56536c26b0643de4c1f637d4565dbee3b2f230",
      "blockNumber": "0x11",
      "gasUsed": "0x22627",
      "effectiveGasPrice": "0x7481112",
      "blobGasPrice": "0x1",
      "from": "0xf39fd6e51aad88f6f4ce6ab8827279cfffb92266",
      "to": "0x5fc8d32690cc91d4c39d9d3abcbd16989f875707",
      "contractAddress": null
    },
    {
      "status": "0x1",
      "cumulativeGasUsed": "0x21ae7",
      "logs": [
        {
          "address": "0x5fc8d32690cc91d4c39d9d3abcbd16989f875707",
          "topics": [
            "0xa1a325dd3ab50a50da29b7e0c70017d7834b6d6565bd3518be12f123084109fe",
            "0x0000000000000000000000000000000000000000000000000000000000003333",
            "0x0000000000000000000000000000000000000000000000000000000000000001"
          ],
          "data": "0x0000000000000000000000000000000000000000000000410d586a20a4c0000000000000000000000000000000000000000000000000000000000000678ef0f10000000000000000000000000000000000000000000000000000000000000012",
          "blockHash": "0x431975e2485d2ec2889a41f7f1ae8e77996bb8cc7e582ab26da979f544a8181f",
          "blockNumber": "0x12",
          "blockTimestamp": "0x678ef0f1",
          "transactionHash": "0x86e21c02fe093c66e1d9dd9c4a551b217aff41af33e419f506eea8a9f51efe38",
          "transactionIndex": "0x0",
          "logIndex": "0x0",
          "removed": false
        },
        {
          "address": "0x5fc8d32690cc91d4c39d9d3abcbd16989f875707",
          "topics": [
            "0xa1a325dd3ab50a50da29b7e0c70017d7834b6d6565bd3518be12f123084109fe",
            "0x0000000000000000000000000000000000000000000000000000000000003333",
            "0x0000000000000000000000000000000000000000000000000000000000000002"
          ],
          "data": "0x00000000000000000000000000000000000000000000001b1ae4d6e2ef50000000000000000000000000000000000000000000000000000000000000678ef0f10000000000000000000000000000000000000000000000000000000000000012",
          "blockHash": "0x431975e2485d2ec2889a41f7f1ae8e77996bb8cc7e582ab26da979f544a8181f",
          "blockNumber": "0x12",
          "blockTimestamp": "0x678ef0f1",
          "transactionHash": "0x86e21c02fe093c66e1d9dd9c4a551b217aff41af33e419f506eea8a9f51efe38",
          "transactionIndex": "0x0",
          "logIndex": "0x1",
          "removed": false
        }
      ],
      "logsBloom": "0x04000000000000000000000000000000000000000000000000000000000000000000000000000000000000000000000000100000000010000000000000040000000000000000000000000000000000000000000240042000000010000000000000000000000000000000000000000000000000000000000000000000000000000000000020000000000000000000000000000000000004000000000000000000000000000000000000000100000000000000000000000000000000000000000000000000000000000000000000000000000000000000000000000001000040000000000000000000000000000000000000000000008000000000000000000000",
      "type": "0x2",
      "transactionHash": "0x86e21c02fe093c66e1d9dd9c4a551b217aff41af33e419f506eea8a9f51efe38",
      "transactionIndex": "0x0",
      "blockHash": "0x431975e2485d2ec2889a41f7f1ae8e77996bb8cc7e582ab26da979f544a8181f",
      "blockNumber": "0x12",
      "gasUsed": "0x21ae7",
      "effectiveGasPrice": "0x6613f03",
      "blobGasPrice": "0x1",
      "from": "0xf39fd6e51aad88f6f4ce6ab8827279cfffb92266",
      "to": "0x5fc8d32690cc91d4c39d9d3abcbd16989f875707",
      "contractAddress": null
    }
  ],
  "libraries": [],
  "pending": [],
  "returns": {},
  "timestamp": 1737421041,
  "chain": 31337,
  "commit": "cdaacb9"
}