{
  "transactions": [
    {
      "hash": "0xafc7f6c17224fa4ca9815d7787230085c7847a040acd9a808dab8dccabaa6340",
      "transactionType": "CREATE",
      "contractName": "StateManager",
      "contractAddress": "0x5fc8d32690cc91d4c39d9d3abcbd16989f875707",
      "function": null,
      "arguments": null,
      "transaction": {
        "from": "0xf39fd6e51aad88f6f4ce6ab8827279cfffb92266",
        "gas": "0x2106bc",
        "value": "0x0",
        "input": "0x6080604052348015600e575f5ffd5b50611d1c8061001c5f395ff3fe608060405234801561000f575f5ffd5b5060043610610106575f3560e01c8063937cad891161009e578063badd55e61161006e578063badd55e614610220578063c4c31cf914610233578063de90452a14610246578063e78372bb14610259578063fa7493631461029a575f5ffd5b8063937cad89146101d4578063a0f72401146101e7578063a80832f2146101fa578063b89291531461020d575f5ffd5b806335c7fa54116100d957806335c7fa54146101865780634cb68786146101995780636687f006146101ae5780638bdf5803146101c1575f5ffd5b806308244ee51461010a578063173b2fdd146101335780632edc01b1146101465780633503418f14610166575b5f5ffd5b61011d6101183660046119ca565b6102cf565b60405161012a9190611a00565b60405180910390f35b61011d610141366004611a72565b61056b565b610159610154366004611a9a565b6107f7565b60405161012a9190611aca565b610179610174366004611afc565b61092f565b60405161012a9190611b15565b610159610194366004611a9a565b610998565b6101ac6101a7366004611b4c565b610ac7565b005b6101ac6101bc366004611a9a565b610c82565b61011d6101cf366004611a72565b610dca565b61011d6101e2366004611a9a565b610e73565b6101596101f5366004611a9a565b61101f565b61011d610208366004611a9a565b6110e0565b61017961021b366004611bcb565b611254565b61011d61022e366004611a9a565b611310565b61011d6102413660046119ca565b6114b0565b61011d610254366004611a9a565b611730565b61028c610267366004611a72565b6001600160a01b03919091165f90815260208181526040808320938352929052205490565b60405190815260200161012a565b61028c6102a8366004611a72565b6001600160a01b03919091165f908152600160209081526040808320938352929052205490565b60608183106102f1576040516322769e1d60e11b815260040160405180910390fd5b6001600160a01b0385165f908152600160209081526040808320878452909152812080549091036103355760405163163aee1b60e21b815260040160405180910390fd5b5f61034282866001611898565b8254909150811061035e57815461035b90600190611c4d565b90505b8482828154811061037157610371611c60565b5f918252602090912060029091020160010154600160401b900465ffffffffffff161080156103ac575081546103a990600190611c4d565b81105b156103bf57806103bb81611c74565b9150505b5f6103cc83866001611898565b835490915081106103e85782546103e590600190611c4d565b90505b8082118061042957508483838154811061040457610404611c60565b5f918252602090912060029091020160010154600160401b900465ffffffffffff1610155b156104475760405163163aee1b60e21b815260040160405180910390fd5b5f6104528383611c4d565b61045d906001611c8c565b90505f816001600160401b0381111561047857610478611c9f565b6040519080825280602002602001820160405280156104c157816020015b604080516060810182525f80825260208083018290529282015282525f199092019101816104965790505b5090505f5b8281101561055d57856104d98287611c8c565b815481106104e9576104e9611c60565b5f9182526020918290206040805160608101825260029390930290910180548352600101546001600160401b03811693830193909352600160401b90920465ffffffffffff1691810191909152825183908390811061054a5761054a611c60565b60209081029190910101526001016104c6565b509998505050505050505050565b6001600160a01b0382165f9081526002602052604081208054606092036105a55760405163163aee1b60e21b815260040160405180910390fd5b5f805b825481101561060e576001600160a01b0386165f90815260016020526040812084549091908590849081106105df576105df611c60565b905f5260205f20015481526020019081526020015f2080549050826106049190611c8c565b91506001016105a8565b505f81851161061d578461061f565b815b9050805f036106415760405163163aee1b60e21b815260040160405180910390fd5b5f816001600160401b0381111561065a5761065a611c9f565b6040519080825280602002602001820160405280156106a357816020015b604080516060810182525f80825260208083018290529282015282525f199092019101816106785790505b5090505f805b8554811080156106b857508382105b156107e8576001600160a01b0389165f908152600160205260408120875482908990859081106106ea576106ea611c60565b5f918252602080832090910154835282019290925260400181208054909250905b818110801561071957508685105b156107d257828161072b600185611c4d565b6107359190611c4d565b8154811061074557610745611c60565b5f9182526020918290206040805160608101825260029390930290910180548352600101546001600160401b03811693830193909352600160401b90920465ffffffffffff169181019190915286518790879081106107a6576107a6611c60565b602002602001018190525084806107bc90611c74565b95505080806107ca90611c74565b91505061070b565b50505080806107e090611c74565b9150506106a9565b50909450505050505b92915050565b604080516060810182525f80825260208083018290528284018290526001600160a01b038716825260018152838220868352905291822080549192909190036108535760405163163aee1b60e21b815260040160405180910390fd5b5f61086082856001611898565b8254909150811015806108a657508382828154811061088157610881611c60565b5f918252602090912060029091020160010154600160401b900465ffffffffffff1614155b156108c4576040516345150cc760e01b815260040160405180910390fd5b8181815481106108d6576108d6611c60565b5f9182526020918290206040805160608101825260029390930290910180548352600101546001600160401b03811693830193909352600160401b90920465ffffffffffff1691810191909152925050505b9392505050565b6001600160a01b0381165f9081526002602090815260409182902080548351818402810184019094528084526060939283018282801561098c57602002820191905f5260205f20905b815481526020019060010190808311610978575b50505050509050919050565b604080516060810182525f80825260208083018290528284018290526001600160a01b038716825260018152838220868352905291822080549192909190036109f45760405163163aee1b60e21b815260040160405180910390fd5b5f610a0082855f611898565b825490915081108015610a40575083828281548110610a2157610a21611c60565b5f9182526020909120600160029092020101546001600160401b031611155b15610aae57818181548110610a5757610a57611c60565b5f9182526020918290206040805160608101825260029390930290910180548352600101546001600160401b03811693830193909352600160401b90920465ffffffffffff16918101919091529250610928915050565b604051633e22764d60e11b815260040160405180910390fd5b806064811115610aea57604051638d6e7a7960e01b815260040160405180910390fd5b5f5b81811015610c7b5736848483818110610b0757610b07611c60565b6001600160a01b0389165f90815260208181526040808320938102959095018035835292905292832054909350918290039050610b6a576001600160a01b0387165f90815260026020908152604082208054600181018255908352912083359101555b6001600160a01b0387165f81815260208181526040808320863580855290835281842083880135908190558585526001808552838620838752855283862084516060810186528381526001600160401b0343818116838a0190815265ffffffffffff42818116868c019081528754808a018955888f529c909d2095516002909c029095019a8b5590519990950180549a51909516600160401b026001600160701b0319909a1698909116979097179790971790915592519295919491937fa1a325dd3ab50a50da29b7e0c70017d7834b6d6565bd3518be12f123084109fe93610c659391909283526020830191909152604082015260600190565b60405180910390a3505050806001019050610aec565b5050505050565b6001600160a01b0383165f90815260208181526040808320858452909152902054151580610cd5576001600160a01b0384165f908152600260209081526040822080546001810182559083529120018390555b6001600160a01b0384165f818152602081815260408083208784528252808320869055838352600180835281842088855283528184208251606080820185528982526001600160401b034381811684890190815265ffffffffffff42818116878b019081528854808b018a55898e529c8c902097516002909d029097019b8c5591519a90970180549551909716600160401b026001600160701b03199095169990921698909817929092179093558351898152948501529183019390935292869290917fa1a325dd3ab50a50da29b7e0c70017d7834b6d6565bd3518be12f123084109fe910160405180910390a35050505050565b6001600160a01b0382165f9081526001602090815260408083208484528252808320805482518185028101850190935280835260609492939192909184015b82821015610e67575f8481526020908190206040805160608101825260028602909201805483526001908101546001600160401b03811684860152600160401b900465ffffffffffff16918301919091529083529092019101610e09565b50505050905092915050565b6001600160a01b0383165f9081526001602090815260408083208584529091528120805460609203610eb85760405163163aee1b60e21b815260040160405180910390fd5b5f610ec482855f611898565b8254909150610ed590600190611c4d565b8110610ef45760405163163aee1b60e21b815260040160405180910390fd5b5f610f00826001611c8c565b83549091505f90610f12908390611c4d565b90505f816001600160401b03811115610f2d57610f2d611c9f565b604051908082528060200260200182016040528015610f7657816020015b604080516060810182525f80825260208083018290529282015282525f19909201910181610f4b5790505b5090505f5b828110156110125785610f8e8286611c8c565b81548110610f9e57610f9e611c60565b5f9182526020918290206040805160608101825260029390930290910180548352600101546001600160401b03811693830193909352600160401b90920465ffffffffffff16918101919091528251839083908110610fff57610fff611c60565b6020908102919091010152600101610f7b565b5098975050505050505050565b604080516060810182525f80825260208083018290528284018290526001600160a01b038716825260018152838220868352905291909120805483106110785760405163d9ba09d160e01b815260040160405180910390fd5b80838154811061108a5761108a611c60565b5f9182526020918290206040805160608101825260029390930290910180548352600101546001600160401b03811693830193909352600160401b90920465ffffffffffff169181019190915295945050505050565b6001600160a01b0383165f90815260016020908152604080832085845290915281208054606092036111255760405163163aee1b60e21b815260040160405180910390fd5b5f61113282856001611898565b9050805f036111545760405163163aee1b60e21b815260040160405180910390fd5b5f816001600160401b0381111561116d5761116d611c9f565b6040519080825280602002602001820160405280156111b657816020015b604080516060810182525f80825260208083018290529282015282525f1990920191018161118b5790505b5090505f5b82811015611249578381815481106111d5576111d5611c60565b5f9182526020918290206040805160608101825260029390930290910180548352600101546001600160401b03811693830193909352600160401b90920465ffffffffffff1691810191909152825183908390811061123657611236611c60565b60209081029190910101526001016111bb565b509695505050505050565b6060816001600160401b0381111561126e5761126e611c9f565b604051908082528060200260200182016040528015611297578160200160208202803683370190505b5090505f5b82811015611308576001600160a01b0385165f908152602081905260408120908585848181106112ce576112ce611c60565b9050602002013581526020019081526020015f20548282815181106112f5576112f5611c60565b602090810291909101015260010161129c565b509392505050565b6001600160a01b0383165f90815260016020908152604080832085845290915281208054606092036113555760405163163aee1b60e21b815260040160405180910390fd5b5f61136282856001611898565b825490915061137390600190611c4d565b81106113925760405163163aee1b60e21b815260040160405180910390fd5b5f61139e826001611c8c565b83549091505f906113b0908390611c4d565b90505f816001600160401b038111156113cb576113cb611c9f565b60405190808252806020026020018201604052801561141457816020015b604080516060810182525f80825260208083018290529282015282525f199092019101816113e95790505b5090505f5b82811015611012578561142c8286611c8c565b8154811061143c5761143c611c60565b5f9182526020918290206040805160608101825260029390930290910180548352600101546001600160401b03811693830193909352600160401b90920465ffffffffffff1691810191909152825183908390811061149d5761149d611c60565b6020908102919091010152600101611419565b60608183106114d257604051638eee879d60e01b815260040160405180910390fd5b6001600160a01b0385165f908152600160209081526040808320878452909152812080549091036115165760405163163aee1b60e21b815260040160405180910390fd5b5f61152282865f611898565b8254909150811061153e57815461153b90600190611c4d565b90505b8482828154811061155157611551611c60565b5f9182526020909120600160029092020101546001600160401b03161080156115865750815461158390600190611c4d565b81105b15611599578061159581611c74565b9150505b5f6115a583865f611898565b835490915081106115c15782546115be90600190611c4d565b90505b808211806115fc5750848383815481106115dd576115dd611c60565b5f9182526020909120600160029092020101546001600160401b031610155b1561161a5760405163163aee1b60e21b815260040160405180910390fd5b5f6116258383611c4d565b611630906001611c8c565b90505f816001600160401b0381111561164b5761164b611c9f565b60405190808252806020026020018201604052801561169457816020015b604080516060810182525f80825260208083018290529282015282525f199092019101816116695790505b5090505f5b8281101561055d57856116ac8287611c8c565b815481106116bc576116bc611c60565b5f9182526020918290206040805160608101825260029390930290910180548352600101546001600160401b03811693830193909352600160401b90920465ffffffffffff1691810191909152825183908390811061171d5761171d611c60565b6020908102919091010152600101611699565b6001600160a01b0383165f90815260016020908152604080832085845290915281208054606092036117755760405163163aee1b60e21b815260040160405180910390fd5b5f61178182855f611898565b9050805f036117a35760405163163aee1b60e21b815260040160405180910390fd5b5f816001600160401b038111156117bc576117bc611c9f565b60405190808252806020026020018201604052801561180557816020015b604080516060810182525f80825260208083018290529282015282525f199092019101816117da5790505b5090505f5b828110156112495783818154811061182457611824611c60565b5f9182526020918290206040805160608101825260029390930290910180548352600101546001600160401b03811693830193909352600160401b90920465ffffffffffff1691810191909152825183908390811061188557611885611c60565b602090810291909101015260010161180a565b82545f9081036118a957505f610928565b83545f5b81811015611973575f6118c08284611995565b90505f808660018111156118d6576118d6611cb3565b14611914578782815481106118ed576118ed611c60565b5f918252602090912060029091020160010154600160401b900465ffffffffffff16611943565b87828154811061192657611926611c60565b5f9182526020909120600160029092020101546001600160401b03165b6001600160401b031690508681111561195e5781935061196c565b611969826001611c8c565b92505b50506118ad565b811561198957611984600183611c4d565b61198b565b5f5b9695505050505050565b5f6119a36002848418611cc7565b61092890848416611c8c565b80356001600160a01b03811681146119c5575f5ffd5b919050565b5f5f5f5f608085870312156119dd575f5ffd5b6119e6856119af565b966020860135965060408601359560600135945092505050565b602080825282518282018190525f918401906040840190835b81811015611a6757611a51838551805182526020808201516001600160401b03169083015260409081015165ffffffffffff16910152565b6020939093019260609290920191600101611a19565b509095945050505050565b5f5f60408385031215611a83575f5ffd5b611a8c836119af565b946020939093013593505050565b5f5f5f60608486031215611aac575f5ffd5b611ab5846119af565b95602085013595506040909401359392505050565b815181526020808301516001600160401b03169082015260408083015165ffffffffffff1690820152606081016107f1565b5f60208284031215611b0c575f5ffd5b610928826119af565b602080825282518282018190525f918401906040840190835b81811015611a67578351835260209384019390920191600101611b2e565b5f5f5f60408486031215611b5e575f5ffd5b611b67846119af565b925060208401356001600160401b03811115611b81575f5ffd5b8401601f81018613611b91575f5ffd5b80356001600160401b03811115611ba6575f5ffd5b8660208260061b8401011115611bba575f5ffd5b939660209190910195509293505050565b5f5f5f60408486031215611bdd575f5ffd5b611be6846119af565b925060208401356001600160401b03811115611c00575f5ffd5b8401601f81018613611c10575f5ffd5b80356001600160401b03811115611c25575f5ffd5b8660208260051b8401011115611bba575f5ffd5b634e487b7160e01b5f52601160045260245ffd5b818103818111156107f1576107f1611c39565b634e487b7160e01b5f52603260045260245ffd5b5f60018201611c8557611c85611c39565b5060010190565b808201808211156107f1576107f1611c39565b634e487b7160e01b5f52604160045260245ffd5b634e487b7160e01b5f52602160045260245ffd5b5f82611ce157634e487b7160e01b5f52601260045260245ffd5b50049056fea26469706673582212204964a7ac0cbbb544483de46d017cbfddf66d2f6ed0d7b937ede0f2c46290cb5664736f6c634300081b0033",
        "nonce": "0x5",
        "chainId": "0x7a69"
      },
      "additionalContracts": [],
      "isFixedGasLimit": false
    },
    {
      "hash": "0x9cb784fb36c758cb178ad71870dce452fa453cb8b5dfbb1d758f4211a32a0e49",
      "transactionType": "CALL",
      "contractName": "StateManager",
      "contractAddress": "0x5fc8d32690cc91d4c39d9d3abcbd16989f875707",
      "function": "setValue(address,uint256,uint256)",
      "arguments": [
        "0x0000000000000000000000000000000000001111",
        "1",
        "100000000000000000000"
      ],
      "transaction": {
        "from": "0xf39fd6e51aad88f6f4ce6ab8827279cfffb92266",
        "to": "0x5fc8d32690cc91d4c39d9d3abcbd16989f875707",
        "gas": "0x38649",
        "value": "0x0",
        "input": "0x6687f006000000000000000000000000000000000000000000000000000000000000111100000000000000000000000000000000000000000000000000000000000000010000000000000000000000000000000000000000000000056bc75e2d63100000",
        "nonce": "0x6",
        "chainId": "0x7a69"
      },
      "additionalContracts": [],
      "isFixedGasLimit": false
    },
    {
      "hash": "0x341cfbe02509a33c9433647a8fb026a26479799dc60e01b8a34819fcf6581356",
      "transactionType": "CALL",
      "contractName": "StateManager",
      "contractAddress": "0x5fc8d32690cc91d4c39d9d3abcbd16989f875707",
      "function": "setValue(address,uint256,uint256)",
      "arguments": [
        "0x0000000000000000000000000000000000001111",
        "1",
        "150000000000000000000"
      ],
      "transaction": {
        "from": "0xf39fd6e51aad88f6f4ce6ab8827279cfffb92266",
        "to": "0x5fc8d32690cc91d4c39d9d3abcbd16989f875707",
        "gas": "0x1ac3f",
        "value": "0x0",
        "input": "0x6687f0060000000000000000000000000000000000000000000000000000000000001111000000000000000000000000000000000000000000000000000000000000000100000000000000000000000000000000000000000000000821ab0d4414980000",
        "nonce": "0x7",
        "chainId": "0x7a69"
      },
      "additionalContracts": [],
      "isFixedGasLimit": false
    },
    {
      "hash": "0xf558e985660736302611fa4a2fab7f8f83c1b5b16b230ab7b8a71bc64ada2ea3",
      "transactionType": "CALL",
      "contractName": "StateManager",
      "contractAddress": "0x5fc8d32690cc91d4c39d9d3abcbd16989f875707",
      "function": "setValue(address,uint256,uint256)",
      "arguments": [
        "0x0000000000000000000000000000000000001111",
        "1",
        "200000000000000000000"
      ],
      "transaction": {
        "from": "0xf39fd6e51aad88f6f4ce6ab8827279cfffb92266",
        "to": "0x5fc8d32690cc91d4c39d9d3abcbd16989f875707",
        "gas": "0x1ac3f",
        "value": "0x0",
        "input": "0x6687f0060000000000000000000000000000000000000000000000000000000000001111000000000000000000000000000000000000000000000000000000000000000100000000000000000000000000000000000000000000000ad78ebc5ac6200000",
        "nonce": "0x8",
        "chainId": "0x7a69"
      },
      "additionalContracts": [],
      "isFixedGasLimit": false
    },
    {
      "hash": "0xbe4976588cb8b2475bf7e5f9df0fdc122828563587c785ea48e6f4f99a720acb",
      "transactionType": "CALL",
      "contractName": "StateManager",
      "contractAddress": "0x5fc8d32690cc91d4c39d9d3abcbd16989f875707",
      "function": "setValue(address,uint256,uint256)",
      "arguments": [
        "0x0000000000000000000000000000000000001111",
        "2",
        "50000000000000000000"
      ],
      "transaction": {
        "from": "0xf39fd6e51aad88f6f4ce6ab8827279cfffb92266",
        "to": "0x5fc8d32690cc91d4c39d9d3abcbd16989f875707",
        "gas": "0x2f7e5",
        "value": "0x0",
        "input": "0x6687f00600000000000000000000000000000000000000000000000000000000000011110000000000000000000000000000000000000000000000000000000000000002000000000000000000000000000000000000000000000002b5e3af16b1880000",
        "nonce": "0x9",
        "chainId": "0x7a69"
      },
      "additionalContracts": [],
      "isFixedGasLimit": false
    },
    {
      "hash": "0xf3833e496140f27ebf9a1f496296bcfaf880fe06f047a80a77d9fa4615db2290",
      "transactionType": "CALL",
      "contractName": "StateManager",
      "contractAddress": "0x5fc8d32690cc91d4c39d9d3abcbd16989f875707",
      "function": "setValue(address,uint256,uint256)",
      "arguments": [
        "0x0000000000000000000000000000000000001111",
        "2",
        "75000000000000000000"
      ],
      "transaction": {
        "from": "0xf39fd6e51aad88f6f4ce6ab8827279cfffb92266",
        "to": "0x5fc8d32690cc91d4c39d9d3abcbd16989f875707",
        "gas": "0x1ac3f",
        "value": "0x0",
        "input": "0x6687f0060000000000000000000000000000000000000000000000000000000000001111000000000000000000000000000000000000000000000000000000000000000200000000000000000000000000000000000000000000000410d586a20a4c0000",
        "nonce": "0xa",
        "chainId": "0x7a69"
      },
      "additionalContracts": [],
      "isFixedGasLimit": false
    },
    {
      "hash": "0x46f19f5a8790194a89672eab1f35390ca1b8ebbc77769a2d9b9eb70e732f7509",
      "transactionType": "CALL",
      "contractName": "StateManager",
      "contractAddress": "0x5fc8d32690cc91d4c39d9d3abcbd16989f875707",
      "function": "setValue(address,uint256,uint256)",
      "arguments": [
        "0x0000000000000000000000000000000000001111",
        "3",
        "5000000000000000000"
      ],
      "transaction": {
        "from": "0xf39fd6e51aad88f6f4ce6ab8827279cfffb92266",
        "to": "0x5fc8d32690cc91d4c39d9d3abcbd16989f875707",
        "gas": "0x32487",
        "value": "0x0",
        "input": "0x6687f006000000000000000000000000000000000000000000000000000000000000111100000000000000000000000000000000000000000000000000000000000000030000000000000000000000000000000000000000000000004563918244f40000",
        "nonce": "0xb",
        "chainId": "0x7a69"
      },
      "additionalContracts": [],
      "isFixedGasLimit": false
    },
    {
      "hash": "0xcda75fdac3b7b4c90897f08b40e1f276fe669d4bbed4401caec6d09f3d5808be",
      "transactionType": "CALL",
      "contractName": "StateManager",
      "contractAddress": "0x5fc8d32690cc91d4c39d9d3abcbd16989f875707",
      "function": "setValue(address,uint256,uint256)",
      "arguments": [
        "0x0000000000000000000000000000000000002222",
        "1",
        "500000000000000000000"
      ],
      "transaction": {
        "from": "0xf39fd6e51aad88f6f4ce6ab8827279cfffb92266",
        "to": "0x5fc8d32690cc91d4c39d9d3abcbd16989f875707",
        "gas": "0x38649",
        "value": "0x0",
        "input": "0x6687f0060000000000000000000000000000000000000000000000000000000000002222000000000000000000000000000000000000000000000000000000000000000100000000000000000000000000000000000000000000001b1ae4d6e2ef500000",
        "nonce": "0xc",
        "chainId": "0x7a69"
      },
      "additionalContracts": [],
      "isFixedGasLimit": false
    },
    {
      "hash": "0xde94aafab5867800a000999a955216f22592ff8d02eb56cb65df4e8635e78b34",
      "transactionType": "CALL",
      "contractName": "StateManager",
      "contractAddress": "0x5fc8d32690cc91d4c39d9d3abcbd16989f875707",
      "function": "setValue(address,uint256,uint256)",
      "arguments": [
        "0x0000000000000000000000000000000000002222",
        "2",
        "200000000000000000000"
      ],
      "transaction": {
        "from": "0xf39fd6e51aad88f6f4ce6ab8827279cfffb92266",
        "to": "0x5fc8d32690cc91d4c39d9d3abcbd16989f875707",
        "gas": "0x2f7e5",
        "value": "0x0",
        "input": "0x6687f0060000000000000000000000000000000000000000000000000000000000002222000000000000000000000000000000000000000000000000000000000000000200000000000000000000000000000000000000000000000ad78ebc5ac6200000",
        "nonce": "0xd",
        "chainId": "0x7a69"
      },
      "additionalContracts": [],
      "isFixedGasLimit": false
    },
    {
      "hash": "0xa0af60bd39ce302cfcaefb56159d660faba0d22844911aa907f6594a155ea9f3",
      "transactionType": "CALL",
      "contractName": "StateManager",
      "contractAddress": "0x5fc8d32690cc91d4c39d9d3abcbd16989f875707",
      "function": "setValue(address,uint256,uint256)",
      "arguments": [
        "0x0000000000000000000000000000000000003333",
        "1",
        "1000000000000000000000"
      ],
      "transaction": {
        "from": "0xf39fd6e51aad88f6f4ce6ab8827279cfffb92266",
        "to": "0x5fc8d32690cc91d4c39d9d3abcbd16989f875707",
        "gas": "0x38649",
        "value": "0x0",
        "input": "0x6687f0060000000000000000000000000000000000000000000000000000000000003333000000000000000000000000000000000000000000000000000000000000000100000000000000000000000000000000000000000000003635c9adc5dea00000",
        "nonce": "0xe",
        "chainId": "0x7a69"
      },
      "additionalContracts": [],
      "isFixedGasLimit": false
    },
    {
      "hash": "0x5588a0970264f5a5f1a39108b19bc38c23e7569fae314a7da4cf9cdcee6a7345",
      "transactionType": "CALL",
      "contractName": "StateManager",
      "contractAddress": "0x5fc8d32690cc91d4c39d9d3abcbd16989f875707",
      "function": "setValue(address,uint256,uint256)",
      "arguments": [
        "0x0000000000000000000000000000000000003333",
        "2",
        "400000000000000000000"
      ],
      "transaction": {
        "from": "0xf39fd6e51aad88f6f4ce6ab8827279cfffb92266",
        "to": "0x5fc8d32690cc91d4c39d9d3abcbd16989f875707",
        "gas": "0x2f7e5",
        "value": "0x0",
        "input": "0x6687f00600000000000000000000000000000000000000000000000000000000000033330000000000000000000000000000000000000000000000000000000000000002000000000000000000000000000000000000000000000015af1d78b58c400000",
        "nonce": "0xf",
        "chainId": "0x7a69"
      },
      "additionalContracts": [],
      "isFixedGasLimit": false
    },
    {
      "hash": "0x71b5822ba3658e5692c239047f7d12574a1312c740f1c5191fd03ac4549ce68d",
      "transactionType": "CALL",
      "contractName": "StateManager",
      "contractAddress": "0x5fc8d32690cc91d4c39d9d3abcbd16989f875707",
      "function": "setValue(address,uint256,uint256)",
      "arguments": [
        "0x0000000000000000000000000000000000003333",
        "3",
        "20000000000000000000"
      ],
      "transaction": {
        "from": "0xf39fd6e51aad88f6f4ce6ab8827279cfffb92266",
        "to": "0x5fc8d32690cc91d4c39d9d3abcbd16989f875707",
        "gas": "0x2f7e5",
        "value": "0x0",
        "input": "0x6687f00600000000000000000000000000000000000000000000000000000000000033330000000000000000000000000000000000000000000000000000000000000003000000000000000000000000000000000000000000000001158e460913d00000",
        "nonce": "0x10",
        "chainId": "0x7a69"
      },
      "additionalContracts": [],
      "isFixedGasLimit": false
    },
    {
      "hash": "0x8b4fd83e6e43d4763800c94845755287c8fb8cad2f7f595aaf213f774bcddee0",
      "transactionType": "CALL",
      "contractName": "StateManager",
      "contractAddress": "0x5fc8d32690cc91d4c39d9d3abcbd16989f875707",
      "function": "batchSetValues(address,(uint256,uint256)[])",
      "arguments": [
        "0x0000000000000000000000000000000000003333",
        "[(1, 1200000000000000000000), (2, 500000000000000000000)]"
      ],
      "transaction": {
        "from": "0xf39fd6e51aad88f6f4ce6ab8827279cfffb92266",
        "to": "0x5fc8d32690cc91d4c39d9d3abcbd16989f875707",
        "gas": "0x2e85b",
        "value": "0x0",
        "input": "0x4cb6878600000000000000000000000000000000000000000000000000000000000033330000000000000000000000000000000000000000000000000000000000000040000000000000000000000000000000000000000000000000000000000000000200000000000000000000000000000000000000000000000000000000000000010000000000000000000000000000000000000000000000410d586a20a4c00000000000000000000000000000000000000000000000000000000000000000000200000000000000000000000000000000000000000000001b1ae4d6e2ef500000",
        "nonce": "0x11",
        "chainId": "0x7a69"
      },
      "additionalContracts": [],
      "isFixedGasLimit": false
    }
  ],
  "receipts": [
    {
      "status": "0x1",
      "cumulativeGasUsed": "0x1967a5",
      "logs": [],
      "logsBloom": "0x00000000000000000000000000000000000000000000000000000000000000000000000000000000000000000000000000000000000000000000000000000000000000000000000000000000000000000000000000000000000000000000000000000000000000000000000000000000000000000000000000000000000000000000000000000000000000000000000000000000000000000000000000000000000000000000000000000000000000000000000000000000000000000000000000000000000000000000000000000000000000000000000000000000000000000000000000000000000000000000000000000000000000000000000000000000",
      "type": "0x2",
      "transactionHash": "0xafc7f6c17224fa4ca9815d7787230085c7847a040acd9a808dab8dccabaa6340",
      "transactionIndex": "0x0",
      "blockHash": "0xc31cf7abe5cf377206d3359d8c026934c6692cedcca560535ed353eba867f1c1",
      "blockNumber": "0x6",
      "gasUsed": "0x1967a5",
      "effectiveGasPrice": "0x1ed3f2e9",
      "blobGasPrice": "0x1",
      "from": "0xf39fd6e51aad88f6f4ce6ab8827279cfffb92266",
      "to": null,
      "contractAddress": "0x5fc8d32690cc91d4c39d9d3abcbd16989f875707"
    },
    {
      "status": "0x1",
      "cumulativeGasUsed": "0x268f3",
      "logs": [
        {
          "address": "0x5fc8d32690cc91d4c39d9d3abcbd16989f875707",
          "topics": [
            "0xa1a325dd3ab50a50da29b7e0c70017d7834b6d6565bd3518be12f123084109fe",
            "0x0000000000000000000000000000000000000000000000000000000000001111",
            "0x0000000000000000000000000000000000000000000000000000000000000001"
          ],
          "data": "0x0000000000000000000000000000000000000000000000056bc75e2d63100000000000000000000000000000000000000000000000000000000000006791a1ef0000000000000000000000000000000000000000000000000000000000000007",
          "blockHash": "0xac7a1324f773e5227687895210b86b5f186e6408ad71a72365a54f8cdcbd984e",
          "blockNumber": "0x7",
          "blockTimestamp": "0x6791a1ef",
          "transactionHash": "0x9cb784fb36c758cb178ad71870dce452fa453cb8b5dfbb1d758f4211a32a0e49",
          "transactionIndex": "0x0",
          "logIndex": "0x0",
          "removed": false
        }
      ],
      "logsBloom": "0x00000000000100000000000000000000000000000000000000000000000000000000000000000000000000000000000000300000000010000000000000040000000000000000000000000000000000000000000240040000000000000000002000000000000000000000000000000000000000000000000000000000000000000000000020000000000000000000000000000000000000000000000000000000000000000000000000000000000000000000000000000000000000000000000000000000000000000000000000000000000000000000000000000001000040000000000000000000000000000000000000000000000000000000000000000000",
      "type": "0x2",
      "transactionHash": "0x9cb784fb36c758cb178ad71870dce452fa453cb8b5dfbb1d758f4211a32a0e49",
      "transactionIndex": "0x0",
      "blockHash": "0xac7a1324f773e5227687895210b86b5f186e6408ad71a72365a54f8cdcbd984e",
      "blockNumber": "0x7",
      "gasUsed": "0x268f3",
      "effectiveGasPrice": "0x1b66f3a0",
      "blobGasPrice": "0x1",
      "from": "0xf39fd6e51aad88f6f4ce6ab8827279cfffb92266",
      "to": "0x5fc8d32690cc91d4c39d9d3abcbd16989f875707",
      "contractAddress": null
    },
    {
      "status": "0x1",
      "cumulativeGasUsed": "0x1360c",
      "logs": [
        {
          "address": "0x5fc8d32690cc91d4c39d9d3abcbd16989f875707",
          "topics": [
            "0xa1a325dd3ab50a50da29b7e0c70017d7834b6d6565bd3518be12f123084109fe",
            "0x0000000000000000000000000000000000000000000000000000000000001111",
            "0x0000000000000000000000000000000000000000000000000000000000000001"
          ],
          "data": "0x00000000000000000000000000000000000000000000000821ab0d4414980000000000000000000000000000000000000000000000000000000000006791a1ef0000000000000000000000000000000000000000000000000000000000000008",
          "blockHash": "0xba9562cae4f8b43119d585b11b501fcf526b7908ca0cb41b21934aa57a92e3d4",
          "blockNumber": "0x8",
          "blockTimestamp": "0x6791a1ef",
          "transactionHash": "0x341cfbe02509a33c9433647a8fb026a26479799dc60e01b8a34819fcf6581356",
          "transactionIndex": "0x0",
          "logIndex": "0x0",
          "removed": false
        }
      ],
      "logsBloom": "0x00000000000100000000000000000000000000000000000000000000000000000000000000000000000000000000000000300000000010000000000000040000000000000000000000000000000000000000000240040000000000000000002000000000000000000000000000000000000000000000000000000000000000000000000020000000000000000000000000000000000000000000000000000000000000000000000000000000000000000000000000000000000000000000000000000000000000000000000000000000000000000000000000000001000040000000000000000000000000000000000000000000000000000000000000000000",
      "type": "0x2",
      "transactionHash": "0x341cfbe02509a33c9433647a8fb026a26479799dc60e01b8a34819fcf6581356",
      "transactionIndex": "0x0",
      "blockHash": "0xba9562cae4f8b43119d585b11b501fcf526b7908ca0cb41b21934aa57a92e3d4",
      "blockNumber": "0x8",
      "gasUsed": "0x1360c",
      "effectiveGasPrice": "0x180350c5",
      "blobGasPrice": "0x1",
      "from": "0xf39fd6e51aad88f6f4ce6ab8827279cfffb92266",
      "to": "0x5fc8d32690cc91d4c39d9d3abcbd16989f875707",
      "contractAddress": null
    },
    {
      "status": "0x1",
      "cumulativeGasUsed": "0x1360c",
      "logs": [
        {
          "address": "0x5fc8d32690cc91d4c39d9d3abcbd16989f875707",
          "topics": [
            "0xa1a325dd3ab50a50da29b7e0c70017d7834b6d6565bd3518be12f123084109fe",
            "0x0000000000000000000000000000000000000000000000000000000000001111",
            "0x0000000000000000000000000000000000000000000000000000000000000001"
          ],
          "data": "0x00000000000000000000000000000000000000000000000ad78ebc5ac6200000000000000000000000000000000000000000000000000000000000006791a1ef0000000000000000000000000000000000000000000000000000000000000009",
          "blockHash": "0x54ef95b54b9271ec1565e178a18ab0ba7d0b3f9b7de3e9d35902115c7d30dc9e",
          "blockNumber": "0x9",
          "blockTimestamp": "0x6791a1ef",
          "transactionHash": "0xf558e985660736302611fa4a2fab7f8f83c1b5b16b230ab7b8a71bc64ada2ea3",
          "transactionIndex": "0x0",
          "logIndex": "0x0",
          "removed": false
        }
      ],
      "logsBloom": "0x00000000000100000000000000000000000000000000000000000000000000000000000000000000000000000000000000300000000010000000000000040000000000000000000000000000000000000000000240040000000000000000002000000000000000000000000000000000000000000000000000000000000000000000000020000000000000000000000000000000000000000000000000000000000000000000000000000000000000000000000000000000000000000000000000000000000000000000000000000000000000000000000000000001000040000000000000000000000000000000000000000000000000000000000000000000",
      "type": "0x2",
      "transactionHash": "0xf558e985660736302611fa4a2fab7f8f83c1b5b16b230ab7b8a71bc64ada2ea3",
      "transactionIndex": "0x0",
      "blockHash": "0x54ef95b54b9271ec1565e178a18ab0ba7d0b3f9b7de3e9d35902115c7d30dc9e",
      "blockNumber": "0x9",
      "gasUsed": "0x1360c",
      "effectiveGasPrice": "0x1506f795",
      "blobGasPrice": "0x1",
      "from": "0xf39fd6e51aad88f6f4ce6ab8827279cfffb92266",
      "to": "0x5fc8d32690cc91d4c39d9d3abcbd16989f875707",
      "contractAddress": null
    },
    {
      "status": "0x1",
      "cumulativeGasUsed": "0x22627",
      "logs": [
        {
          "address": "0x5fc8d32690cc91d4c39d9d3abcbd16989f875707",
          "topics": [
            "0xa1a325dd3ab50a50da29b7e0c70017d7834b6d6565bd3518be12f123084109fe",
            "0x0000000000000000000000000000000000000000000000000000000000001111",
            "0x0000000000000000000000000000000000000000000000000000000000000002"
          ],
          "data": "0x000000000000000000000000000000000000000000000002b5e3af16b1880000000000000000000000000000000000000000000000000000000000006791a1ef000000000000000000000000000000000000000000000000000000000000000a",
          "blockHash": "0x07d72c3011eeefe265b765b5cd5332d90b745d9c8c72a1b36ff69d05b8acc3c0",
          "blockNumber": "0xa",
          "blockTimestamp": "0x6791a1ef",
          "transactionHash": "0xbe4976588cb8b2475bf7e5f9df0fdc122828563587c785ea48e6f4f99a720acb",
          "transactionIndex": "0x0",
          "logIndex": "0x0",
          "removed": false
        }
      ],
      "logsBloom": "0x04000000000100000000000000000000000000000000000000000000000000000000000000000000000000000000000000300000000010000000000000000000000000000000000000000000000000000000000240000000000000000000002000000000000000000000000000000000000000000000000000000000000000000000000020000000000000000000000000000000000000000000000000000000000000000000000000000100000000000000000000000000000000000000000000000000000000000000000000000000000000000000000000000001000000000000000000000000000000000000000000000000008000000000000000000000",
      "type": "0x2",
      "transactionHash": "0xbe4976588cb8b2475bf7e5f9df0fdc122828563587c785ea48e6f4f99a720acb",
      "transactionIndex": "0x0",
      "blockHash": "0x07d72c3011eeefe265b765b5cd5332d90b745d9c8c72a1b36ff69d05b8acc3c0",
      "blockNumber": "0xa",
      "gasUsed": "0x22627",
      "effectiveGasPrice": "0x1269a81e",
      "blobGasPrice": "0x1",
      "from": "0xf39fd6e51aad88f6f4ce6ab8827279cfffb92266",
      "to": "0x5fc8d32690cc91d4c39d9d3abcbd16989f875707",
      "contractAddress": null
    },
    {
      "status": "0x1",
      "cumulativeGasUsed": "0x35c33",
      "logs": [
        {
          "address": "0x5fc8d32690cc91d4c39d9d3abcbd16989f875707",
          "topics": [
            "0xa1a325dd3ab50a50da29b7e0c70017d7834b6d6565bd3518be12f123084109fe",
            "0x0000000000000000000000000000000000000000000000000000000000001111",
            "0x0000000000000000000000000000000000000000000000000000000000000002"
          ],
          "data": "0x00000000000000000000000000000000000000000000000410d586a20a4c0000000000000000000000000000000000000000000000000000000000006791a1ef000000000000000000000000000000000000000000000000000000000000000a",
          "blockHash": "0x07d72c3011eeefe265b765b5cd5332d90b745d9c8c72a1b36ff69d05b8acc3c0",
          "blockNumber": "0xa",
          "blockTimestamp": "0x6791a1ef",
          "transactionHash": "0xf3833e496140f27ebf9a1f496296bcfaf880fe06f047a80a77d9fa4615db2290",
          "transactionIndex": "0x1",
          "logIndex": "0x1",
          "removed": false
        }
      ],
      "logsBloom": "0x04000000000100000000000000000000000000000000000000000000000000000000000000000000000000000000000000300000000010000000000000000000000000000000000000000000000000000000000240000000000000000000002000000000000000000000000000000000000000000000000000000000000000000000000020000000000000000000000000000000000000000000000000000000000000000000000000000100000000000000000000000000000000000000000000000000000000000000000000000000000000000000000000000001000000000000000000000000000000000000000000000000008000000000000000000000",
      "type": "0x2",
      "transactionHash": "0xf3833e496140f27ebf9a1f496296bcfaf880fe06f047a80a77d9fa4615db2290",
      "transactionIndex": "0x1",
      "blockHash": "0x07d72c3011eeefe265b765b5cd5332d90b745d9c8c72a1b36ff69d05b8acc3c0",
      "blockNumber": "0xa",
      "gasUsed": "0x1360c",
      "effectiveGasPrice": "0x1269a81e",
      "blobGasPrice": "0x1",
      "from": "0xf39fd6e51aad88f6f4ce6ab8827279cfffb92266",
      "to": "0x5fc8d32690cc91d4c39d9d3abcbd16989f875707",
      "contractAddress": null
    },
    {
      "status": "0x1",
      "cumulativeGasUsed": "0x2261b",
      "logs": [
        {
          "address": "0x5fc8d32690cc91d4c39d9d3abcbd16989f875707",
          "topics": [
            "0xa1a325dd3ab50a50da29b7e0c70017d7834b6d6565bd3518be12f123084109fe",
            "0x0000000000000000000000000000000000000000000000000000000000001111",
            "0x0000000000000000000000000000000000000000000000000000000000000003"
          ],
          "data": "0x0000000000000000000000000000000000000000000000004563918244f40000000000000000000000000000000000000000000000000000000000006791a1ef000000000000000000000000000000000000000000000000000000000000000b",
          "blockHash": "0x7302b8ebc5128d7bf88139c5f6bff19d99fbd589865555f57d0620154170a589",
          "blockNumber": "0xb",
          "blockTimestamp": "0x6791a1ef",
          "transactionHash": "0x46f19f5a8790194a89672eab1f35390ca1b8ebbc77769a2d9b9eb70e732f7509",
          "transactionIndex": "0x0",
          "logIndex": "0x0",
          "removed": false
        }
      ],
      "logsBloom": "0x00000000000100000000000000000000000000000000000000000000000000000000000000000000000000000000000000300000020010000000000000000000000000000000000000000000000000000000000240000000000000000000002000000000000000000000000000000000000000000000000000000000000000000000000020000000000000000000000000000000000000000000000000000000000000000000000000000000000000000000000000800000000000000000400000000000000000000000000000000000000000000000000000000001000000000000000000000000000000000000000000000000000000000000000000000000",
      "type": "0x2",
      "transactionHash": "0x46f19f5a8790194a89672eab1f35390ca1b8ebbc77769a2d9b9eb70e732f7509",
      "transactionIndex": "0x0",
      "blockHash": "0x7302b8ebc5128d7bf88139c5f6bff19d99fbd589865555f57d0620154170a589",
      "blockNumber": "0xb",
      "gasUsed": "0x2261b",
      "effectiveGasPrice": "0x10251981",
      "blobGasPrice": "0x1",
      "from": "0xf39fd6e51aad88f6f4ce6ab8827279cfffb92266",
      "to": "0x5fc8d32690cc91d4c39d9d3abcbd16989f875707",
      "contractAddress": null
    },
    {
      "status": "0x1",
      "cumulativeGasUsed": "0x48f0e",
      "logs": [
        {
          "address": "0x5fc8d32690cc91d4c39d9d3abcbd16989f875707",
          "topics": [
            "0xa1a325dd3ab50a50da29b7e0c70017d7834b6d6565bd3518be12f123084109fe",
            "0x0000000000000000000000000000000000000000000000000000000000002222",
            "0x0000000000000000000000000000000000000000000000000000000000000001"
          ],
          "data": "0x00000000000000000000000000000000000000000000001b1ae4d6e2ef500000000000000000000000000000000000000000000000000000000000006791a1ef000000000000000000000000000000000000000000000000000000000000000b",
          "blockHash": "0x7302b8ebc5128d7bf88139c5f6bff19d99fbd589865555f57d0620154170a589",
          "blockNumber": "0xb",
          "blockTimestamp": "0x6791a1ef",
          "transactionHash": "0xcda75fdac3b7b4c90897f08b40e1f276fe669d4bbed4401caec6d09f3d5808be",
          "transactionIndex": "0x1",
          "logIndex": "0x1",
          "removed": false
        }
      ],
      "logsBloom": "0x00000000000000000000000000000000000000000000000000000000000000000000000000000000000000000000000000100000000010000000000000040000000000000000000000000000000000000000000242040000000000000000000000000000000008000000000000000000000000000000000000000000000000000000000020000000000000000000000000000000000000000000000000000000000000000000000000000000000000000000000000000000000000000000000000000000000000000000000000000000000000000000000000000001000040000000000000000000000000000000000000000000000000000000000000040000",
      "type": "0x2",
      "transactionHash": "0xcda75fdac3b7b4c90897f08b40e1f276fe669d4bbed4401caec6d09f3d5808be",
      "transactionIndex": "0x1",
      "blockHash": "0x7302b8ebc5128d7bf88139c5f6bff19d99fbd589865555f57d0620154170a589",
      "blockNumber": "0xb",
      "gasUsed": "0x268f3",
      "effectiveGasPrice": "0x10251981",
      "blobGasPrice": "0x1",
      "from": "0xf39fd6e51aad88f6f4ce6ab8827279cfffb92266",
      "to": "0x5fc8d32690cc91d4c39d9d3abcbd16989f875707",
      "contractAddress": null
    },
    {
      "status": "0x1",
      "cumulativeGasUsed": "0x6b535",
      "logs": [
        {
          "address": "0x5fc8d32690cc91d4c39d9d3abcbd16989f875707",
          "topics": [
            "0xa1a325dd3ab50a50da29b7e0c70017d7834b6d6565bd3518be12f123084109fe",
            "0x0000000000000000000000000000000000000000000000000000000000002222",
            "0x0000000000000000000000000000000000000000000000000000000000000002"
          ],
          "data": "0x00000000000000000000000000000000000000000000000ad78ebc5ac6200000000000000000000000000000000000000000000000000000000000006791a1ef000000000000000000000000000000000000000000000000000000000000000b",
          "blockHash": "0x7302b8ebc5128d7bf88139c5f6bff19d99fbd589865555f57d0620154170a589",
          "blockNumber": "0xb",
          "blockTimestamp": "0x6791a1ef",
          "transactionHash": "0xde94aafab5867800a000999a955216f22592ff8d02eb56cb65df4e8635e78b34",
          "transactionIndex": "0x2",
          "logIndex": "0x2",
          "removed": false
        }
      ],
      "logsBloom": "0x04000000000000000000000000000000000000000000000000000000000000000000000000000000000000000000000000100000000010000000000000000000000000000000000000000000000000000000000242000000000000000000000000000000000008000000000000000000000000000000000000000000000000000000000020000000000000000000000000000000000000000000000000000000000000000000000000000100000000000000000000000000000000000000000000000000000000000000000000000000000000000000000000000001000000000000000000000000000000000000000000000000008000000000000000040000",
      "type": "0x2",
      "transactionHash": "0xde94aafab5867800a000999a955216f22592ff8d02eb56cb65df4e8635e78b34",
      "transactionIndex": "0x2",
      "blockHash": "0x7302b8ebc5128d7bf88139c5f6bff19d99fbd589865555f57d0620154170a589",
      "blockNumber": "0xb",
      "gasUsed": "0x22627",
      "effectiveGasPrice": "0x10251981",
      "blobGasPrice": "0x1",
      "from": "0xf39fd6e51aad88f6f4ce6ab8827279cfffb92266",
      "to": "0x5fc8d32690cc91d4c39d9d3abcbd16989f875707",
      "contractAddress": null
    },
    {
      "status": "0x1",
      "cumulativeGasUsed": "0x268f3",
      "logs": [
        {
          "address": "0x5fc8d32690cc91d4c39d9d3abcbd16989f875707",
          "topics": [
            "0xa1a325dd3ab50a50da29b7e0c70017d7834b6d6565bd3518be12f123084109fe",
            "0x0000000000000000000000000000000000000000000000000000000000003333",
            "0x0000000000000000000000000000000000000000000000000000000000000001"
          ],
          "data": "0x00000000000000000000000000000000000000000000003635c9adc5dea00000000000000000000000000000000000000000000000000000000000006791a1ef000000000000000000000000000000000000000000000000000000000000000c",
          "blockHash": "0xa990c30a642b8548a1dce94018ad363bcd19bc9151142854a22c0f824b13bc25",
          "blockNumber": "0xc",
          "blockTimestamp": "0x6791a1ef",
          "transactionHash": "0xa0af60bd39ce302cfcaefb56159d660faba0d22844911aa907f6594a155ea9f3",
          "transactionIndex": "0x0",
          "logIndex": "0x0",
          "removed": false
        }
      ],
      "logsBloom": "0x00000000000000000000000000000000000000000000000000000000000000000000000000000000000000000000000000100000000010000000000000040000000000000000000000000000000000000000000240042000000010000000000000000000000000000000000000000000000000000000000000000000000000000000000020000000000000000000000000000000000004000000000000000000000000000000000000000000000000000000000000000000000000000000000000000000000000000000000000000000000000000000000000000001000040000000000000000000000000000000000000000000000000000000000000000000",
      "type": "0x2",
      "transactionHash": "0xa0af60bd39ce302cfcaefb56159d660faba0d22844911aa907f6594a155ea9f3",
      "transactionIndex": "0x0",
      "blockHash": "0xa990c30a642b8548a1dce94018ad363bcd19bc9151142854a22c0f824b13bc25",
      "blockNumber": "0xc",
      "gasUsed": "0x268f3",
      "effectiveGasPrice": "0xe2f9a70",
      "blobGasPrice": "0x1",
      "from": "0xf39fd6e51aad88f6f4ce6ab8827279cfffb92266",
      "to": "0x5fc8d32690cc91d4c39d9d3abcbd16989f875707",
      "contractAddress": null
    },
    {
      "status": "0x1",
      "cumulativeGasUsed": "0x22627",
      "logs": [
        {
          "address": "0x5fc8d32690cc91d4c39d9d3abcbd16989f875707",
          "topics": [
            "0xa1a325dd3ab50a50da29b7e0c70017d7834b6d6565bd3518be12f123084109fe",
            "0x0000000000000000000000000000000000000000000000000000000000003333",
            "0x0000000000000000000000000000000000000000000000000000000000000002"
          ],
          "data": "0x000000000000000000000000000000000000000000000015af1d78b58c400000000000000000000000000000000000000000000000000000000000006791a1ef000000000000000000000000000000000000000000000000000000000000000d",
          "blockHash": "0xd2ae07005e061589d688baa834fedb03788c55165e8cca3dc662b56fb8e6e90f",
          "blockNumber": "0xd",
          "blockTimestamp": "0x6791a1ef",
          "transactionHash": "0x5588a0970264f5a5f1a39108b19bc38c23e7569fae314a7da4cf9cdcee6a7345",
          "transactionIndex": "0x0",
          "logIndex": "0x0",
          "removed": false
        }
      ],
      "logsBloom": "0x04000000000000000000000000000000000000000000000000000000000000000000000000000000000000000000000000100000000010000000000000000000000000000000000000000000000000000000000240002000000010000000000000000000000000000000000000000000000000000000000000000000000000000000000020000000000000000000000000000000000004000000000000000000000000000000000000000100000000000000000000000000000000000000000000000000000000000000000000000000000000000000000000000001000000000000000000000000000000000000000000000000008000000000000000000000",
      "type": "0x2",
      "transactionHash": "0x5588a0970264f5a5f1a39108b19bc38c23e7569fae314a7da4cf9cdcee6a7345",
      "transactionIndex": "0x0",
      "blockHash": "0xd2ae07005e061589d688baa834fedb03788c55165e8cca3dc662b56fb8e6e90f",
      "blockNumber": "0xd",
      "gasUsed": "0x22627",
      "effectiveGasPrice": "0xc6e6ec1",
      "blobGasPrice": "0x1",
      "from": "0xf39fd6e51aad88f6f4ce6ab8827279cfffb92266",
      "to": "0x5fc8d32690cc91d4c39d9d3abcbd16989f875707",
      "contractAddress": null
    },
    {
      "status": "0x1",
      "cumulativeGasUsed": "0x44c4e",
      "logs": [
        {
          "address": "0x5fc8d32690cc91d4c39d9d3abcbd16989f875707",
          "topics": [
            "0xa1a325dd3ab50a50da29b7e0c70017d7834b6d6565bd3518be12f123084109fe",
            "0x0000000000000000000000000000000000000000000000000000000000003333",
            "0x0000000000000000000000000000000000000000000000000000000000000003"
          ],
          "data": "0x000000000000000000000000000000000000000000000001158e460913d00000000000000000000000000000000000000000000000000000000000006791a1ef000000000000000000000000000000000000000000000000000000000000000d",
          "blockHash": "0xd2ae07005e061589d688baa834fedb03788c55165e8cca3dc662b56fb8e6e90f",
          "blockNumber": "0xd",
          "blockTimestamp": "0x6791a1ef",
          "transactionHash": "0x71b5822ba3658e5692c239047f7d12574a1312c740f1c5191fd03ac4549ce68d",
          "transactionIndex": "0x1",
          "logIndex": "0x1",
          "removed": false
        }
      ],
      "logsBloom": "0x00000000000000000000000000000000000000000000000000000000000000000000000000000000000000000000000000100000020010000000000000000000000000000000000000000000000000000000000240002000000010000000000000000000000000000000000000000000000000000000000000000000000000000000000020000000000000000000000000000000000004000000000000000000000000000000000000000000000000000000000000800000000000000000400000000000000000000000000000000000000000000000000000000001000000000000000000000000000000000000000000000000000000000000000000000000",
      "type": "0x2",
      "transactionHash": "0x71b5822ba3658e5692c239047f7d12574a1312c740f1c5191fd03ac4549ce68d",
      "transactionIndex": "0x1",
      "blockHash": "0xd2ae07005e061589d688baa834fedb03788c55165e8cca3dc662b56fb8e6e90f",
      "blockNumber": "0xd",
      "gasUsed": "0x22627",
      "effectiveGasPrice": "0xc6e6ec1",
      "blobGasPrice": "0x1",
      "from": "0xf39fd6e51aad88f6f4ce6ab8827279cfffb92266",
      "to": "0x5fc8d32690cc91d4c39d9d3abcbd16989f875707",
      "contractAddress": null
    },
    {
      "status": "0x1",
      "cumulativeGasUsed": "0x21ae7",
      "logs": [
        {
          "address": "0x5fc8d32690cc91d4c39d9d3abcbd16989f875707",
          "topics": [
            "0xa1a325dd3ab50a50da29b7e0c70017d7834b6d6565bd3518be12f123084109fe",
            "0x0000000000000000000000000000000000000000000000000000000000003333",
            "0x0000000000000000000000000000000000000000000000000000000000000001"
          ],
          "data": "0x0000000000000000000000000000000000000000000000410d586a20a4c00000000000000000000000000000000000000000000000000000000000006791a1ef000000000000000000000000000000000000000000000000000000000000000e",
          "blockHash": "0x48592a27b1eb8f81ae7ff2bbc64331f40026b31d6549c6ecc1a67835bc047f4b",
          "blockNumber": "0xe",
          "blockTimestamp": "0x6791a1ef",
          "transactionHash": "0x8b4fd83e6e43d4763800c94845755287c8fb8cad2f7f595aaf213f774bcddee0",
          "transactionIndex": "0x0",
          "logIndex": "0x0",
          "removed": false
        },
        {
          "address": "0x5fc8d32690cc91d4c39d9d3abcbd16989f875707",
          "topics": [
            "0xa1a325dd3ab50a50da29b7e0c70017d7834b6d6565bd3518be12f123084109fe",
            "0x0000000000000000000000000000000000000000000000000000000000003333",
            "0x0000000000000000000000000000000000000000000000000000000000000002"
          ],
          "data": "0x00000000000000000000000000000000000000000000001b1ae4d6e2ef500000000000000000000000000000000000000000000000000000000000006791a1ef000000000000000000000000000000000000000000000000000000000000000e",
          "blockHash": "0x48592a27b1eb8f81ae7ff2bbc64331f40026b31d6549c6ecc1a67835bc047f4b",
          "blockNumber": "0xe",
          "blockTimestamp": "0x6791a1ef",
          "transactionHash": "0x8b4fd83e6e43d4763800c94845755287c8fb8cad2f7f595aaf213f774bcddee0",
          "transactionIndex": "0x0",
          "logIndex": "0x1",
          "removed": false
        }
      ],
      "logsBloom": "0x04000000000000000000000000000000000000000000000000000000000000000000000000000000000000000000000000100000000010000000000000040000000000000000000000000000000000000000000240042000000010000000000000000000000000000000000000000000000000000000000000000000000000000000000020000000000000000000000000000000000004000000000000000000000000000000000000000100000000000000000000000000000000000000000000000000000000000000000000000000000000000000000000000001000040000000000000000000000000000000000000000000008000000000000000000000",
      "type": "0x2",
      "transactionHash": "0x8b4fd83e6e43d4763800c94845755287c8fb8cad2f7f595aaf213f774bcddee0",
      "transactionIndex": "0x0",
      "blockHash": "0x48592a27b1eb8f81ae7ff2bbc64331f40026b31d6549c6ecc1a67835bc047f4b",
      "blockNumber": "0xe",
      "gasUsed": "0x21ae7",
      "effectiveGasPrice": "0xae81947",
      "blobGasPrice": "0x1",
      "from": "0xf39fd6e51aad88f6f4ce6ab8827279cfffb92266",
      "to": "0x5fc8d32690cc91d4c39d9d3abcbd16989f875707",
      "contractAddress": null
    }
  ],
  "libraries": [],
  "pending": [],
  "returns": {},
  "timestamp": 1737597423,
  "chain": 31337,
  "commit": "1aabbcb"
}