{
  "transactions": [
    {
      "hash": "0x446bac7882b0aca2fd1565c033b7c24a7ee17706e2c4339280dfb9947e0a6589",
      "transactionType": "CALL",
      "contractName": null,
      "contractAddress": "0x5fbdb2315678afecb367f032d93f642f64180aa3",
      "function": "emitOperatorRegistered(address,address,address)",
      "arguments": [
        "0xCf593639B34CaE0ea3217dA27014ab5FbBAc8342",
        "0xCf593639B34CaE0ea3217dA27014ab5FbBAc8342",
        "0x840F3800136e6a8BCAC3A7FE22f60543A06b6c6a"
      ],
      "transaction": {
        "from": "0xf39fd6e51aad88f6f4ce6ab8827279cfffb92266",
        "to": "0x5fbdb2315678afecb367f032d93f642f64180aa3",
        "gas": "0x87f7",
        "value": "0x0",
        "input": "0x1f76bdd8000000000000000000000000cf593639b34cae0ea3217da27014ab5fbbac8342000000000000000000000000cf593639b34cae0ea3217da27014ab5fbbac8342000000000000000000000000840f3800136e6a8bcac3a7fe22f60543a06b6c6a",
        "nonce": "0x18",
        "chainId": "0x7a69"
      },
      "additionalContracts": [],
      "isFixedGasLimit": false
    },
    {
      "hash": "0x5dae04013de6f56077e2a812e5d05fad98ca6fd3076094a352f22e6ccba29b18",
      "transactionType": "CALL",
      "contractName": null,
      "contractAddress": "0x5fbdb2315678afecb367f032d93f642f64180aa3",
      "function": "emitOperatorRegistered(address,address,address)",
      "arguments": [
        "0xFE6B5379E861C79dB03eb3a01F3F1892FC4141D5",
        "0xFE6B5379E861C79dB03eb3a01F3F1892FC4141D5",
        "0x840F3800136e6a8BCAC3A7FE22f60543A06b6c6a"
      ],
      "transaction": {
        "from": "0xf39fd6e51aad88f6f4ce6ab8827279cfffb92266",
        "to": "0x5fbdb2315678afecb367f032d93f642f64180aa3",
        "gas": "0x87f7",
        "value": "0x0",
        "input": "0x1f76bdd8000000000000000000000000fe6b5379e861c79db03eb3a01f3f1892fc4141d5000000000000000000000000fe6b5379e861c79db03eb3a01f3f1892fc4141d5000000000000000000000000840f3800136e6a8bcac3a7fe22f60543a06b6c6a",
        "nonce": "0x19",
        "chainId": "0x7a69"
      },
      "additionalContracts": [],
      "isFixedGasLimit": false
    },
    {
      "hash": "0x0d1e5bac1886c685659d679f60ace4f8d6d60aa2d3e0b713469a976230534cc9",
      "transactionType": "CALL",
      "contractName": null,
      "contractAddress": "0x5fbdb2315678afecb367f032d93f642f64180aa3",
      "function": "emitOperatorRegistered(address,address,address)",
      "arguments": [
        "0xCCE3B4EC7681B4EcF5fD5b50e562A88a33E5137B",
        "0xCCE3B4EC7681B4EcF5fD5b50e562A88a33E5137B",
        "0x840F3800136e6a8BCAC3A7FE22f60543A06b6c6a"
      ],
      "transaction": {
        "from": "0xf39fd6e51aad88f6f4ce6ab8827279cfffb92266",
        "to": "0x5fbdb2315678afecb367f032d93f642f64180aa3",
        "gas": "0x87f7",
        "value": "0x0",
        "input": "0x1f76bdd8000000000000000000000000cce3b4ec7681b4ecf5fd5b50e562a88a33e5137b000000000000000000000000cce3b4ec7681b4ecf5fd5b50e562a88a33e5137b000000000000000000000000840f3800136e6a8bcac3a7fe22f60543a06b6c6a",
        "nonce": "0x1a",
        "chainId": "0x7a69"
      },
      "additionalContracts": [],
      "isFixedGasLimit": false
    }
  ],
  "receipts": [
    {
      "status": "0x1",
      "cumulativeGasUsed": "0x6270",
      "logs": [
        {
          "address": "0x5fbdb2315678afecb367f032d93f642f64180aa3",
          "topics": [
            "0x2cc12af15d607deb355aaef5caeae8ce4ee3e0e82b5730cf3af743ed51c51c89",
            "0x000000000000000000000000cf593639b34cae0ea3217da27014ab5fbbac8342",
            "0x0000000000000000000000000000000000000000000000000000000000000025",
            "0x000000000000000000000000cf593639b34cae0ea3217da27014ab5fbbac8342"
          ],
          "data": "0x000000000000000000000000000000000000000000000000000000006791b98b000000000000000000000000840f3800136e6a8bcac3a7fe22f60543a06b6c6a",
          "blockHash": "0x2963d65ddcda7074d00190bf8ff5301d9b27538bccddb13473ada1ad949981bb",
          "blockNumber": "0x25",
          "blockTimestamp": "0x6791b98b",
          "transactionHash": "0x446bac7882b0aca2fd1565c033b7c24a7ee17706e2c4339280dfb9947e0a6589",
          "transactionIndex": "0x0",
          "logIndex": "0x0",
          "removed": false
        }
      ],
      "logsBloom": "0x00000000000000000000000000000000000000000000000000000000290000000000000004000000000000000000000000000000000000000000000000000000000000000000000000000000000000000000000000000000000000000000000000000040000000000000000000000000000000000000000000000000004000000000000000000000000000000000000000000000000000000000000200000000000000000000000000000002000000000000000000000000000000000000000000000040000000000000000000000000000000000000002000000000000000008000000000000000000000000000000000000000000000000000000002000000",
      "type": "0x2",
      "transactionHash": "0x446bac7882b0aca2fd1565c033b7c24a7ee17706e2c4339280dfb9947e0a6589",
      "transactionIndex": "0x0",
      "blockHash": "0x2963d65ddcda7074d00190bf8ff5301d9b27538bccddb13473ada1ad949981bb",
      "blockNumber": "0x25",
      "gasUsed": "0x6270",
      "effectiveGasPrice": "0x81cdd4",
      "blobGasPrice": "0x1",
      "from": "0xf39fd6e51aad88f6f4ce6ab8827279cfffb92266",
      "to": "0x5fbdb2315678afecb367f032d93f642f64180aa3",
      "contractAddress": null
    },
    {
      "status": "0x1",
      "cumulativeGasUsed": "0x6270",
      "logs": [
        {
          "address": "0x5fbdb2315678afecb367f032d93f642f64180aa3",
          "topics": [
            "0x2cc12af15d607deb355aaef5caeae8ce4ee3e0e82b5730cf3af743ed51c51c89",
            "0x000000000000000000000000fe6b5379e861c79db03eb3a01f3f1892fc4141d5",
            "0x0000000000000000000000000000000000000000000000000000000000000026",
            "0x000000000000000000000000fe6b5379e861c79db03eb3a01f3f1892fc4141d5"
          ],
          "data": "0x000000000000000000000000000000000000000000000000000000006791b98b000000000000000000000000840f3800136e6a8bcac3a7fe22f60543a06b6c6a",
          "blockHash": "0x88b275da5b12d22a12f5deccc02d3929d54ed59eeec2d5c5503b037d9581f524",
          "blockNumber": "0x26",
          "blockTimestamp": "0x6791b98b",
          "transactionHash": "0x5dae04013de6f56077e2a812e5d05fad98ca6fd3076094a352f22e6ccba29b18",
          "transactionIndex": "0x0",
          "logIndex": "0x0",
          "removed": false
        }
      ],
      "logsBloom": "0x00000000000000000000000000000000000000000000000000000000080000000000000004000000000000000000000000000000000000000000000000000000000000000000000000000000000000000001000000000000000000000000000001000040000000000000000000000000000000000000040000000000000000000000000000000000000000000000000000000000000000000000000200000000000000000100000000000000000000000000000000000000000000000000000000000040000000004000000000000000000000000000002000000000000000000000000000000000000000000000000000000000000000000000080000000000",
      "type": "0x2",
      "transactionHash": "0x5dae04013de6f56077e2a812e5d05fad98ca6fd3076094a352f22e6ccba29b18",
      "transactionIndex": "0x0",
      "blockHash": "0x88b275da5b12d22a12f5deccc02d3929d54ed59eeec2d5c5503b037d9581f524",
      "blockNumber": "0x26",
      "gasUsed": "0x6270",
      "effectiveGasPrice": "0x719b15",
      "blobGasPrice": "0x1",
      "from": "0xf39fd6e51aad88f6f4ce6ab8827279cfffb92266",
      "to": "0x5fbdb2315678afecb367f032d93f642f64180aa3",
      "contractAddress": null
    },
    {
      "status": "0x1",
      "cumulativeGasUsed": "0x6270",
      "logs": [
        {
          "address": "0x5fbdb2315678afecb367f032d93f642f64180aa3",
          "topics": [
            "0x2cc12af15d607deb355aaef5caeae8ce4ee3e0e82b5730cf3af743ed51c51c89",
            "0x000000000000000000000000cce3b4ec7681b4ecf5fd5b50e562a88a33e5137b",
            "0x0000000000000000000000000000000000000000000000000000000000000027",
            "0x000000000000000000000000cce3b4ec7681b4ecf5fd5b50e562a88a33e5137b"
          ],
          "data": "0x000000000000000000000000000000000000000000000000000000006791b98b000000000000000000000000840f3800136e6a8bcac3a7fe22f60543a06b6c6a",
          "blockHash": "0xf4acd7e62db223b91eaaeb0c664382047b2a54f72cf9fd3cda1b5b9e98e1526a",
          "blockNumber": "0x27",
          "blockTimestamp": "0x6791b98b",
          "transactionHash": "0x0d1e5bac1886c685659d679f60ace4f8d6d60aa2d3e0b713469a976230534cc9",
          "transactionIndex": "0x0",
          "logIndex": "0x0",
          "removed": false
        }
      ],
      "logsBloom": "0x00000000000000000000000000000000000000000000000000000000080000000022000004000000000000000000000000000000000000000000000000000000000000000000000000000000000000000000000000000000000000000000000000000040000000000000000000000000000000000000000000000000000000000000000000000000000000000000000004000000000000000000000200000000000000000000000000000000000000000000000000000000000000000000000000000040000000000000000000000000000000000000002000000000000000000000000000000000000000100080000008000000000000000000000000000000",
      "type": "0x2",
      "transactionHash": "0x0d1e5bac1886c685659d679f60ace4f8d6d60aa2d3e0b713469a976230534cc9",
      "transactionIndex": "0x0",
      "blockHash": "0xf4acd7e62db223b91eaaeb0c664382047b2a54f72cf9fd3cda1b5b9e98e1526a",
      "blockNumber": "0x27",
      "gasUsed": "0x6270",
      "effectiveGasPrice": "0x636dcf",
      "blobGasPrice": "0x1",
      "from": "0xf39fd6e51aad88f6f4ce6ab8827279cfffb92266",
      "to": "0x5fbdb2315678afecb367f032d93f642f64180aa3",
      "contractAddress": null
    }
  ],
  "libraries": [],
  "pending": [],
  "returns": {},
  "timestamp": 1737603467,
  "chain": 31337,
  "commit": "48ffbc3"
}