{
  "transactions": [
    {
      "hash": "0xdcc6efaebb447712951c92d238c34a023cb2191bbad1dbef8cf93d3cdff50354",
      "transactionType": "CALL",
      "contractName": null,
      "contractAddress": "0x5fbdb2315678afecb367f032d93f642f64180aa3",
      "function": "emitOperatorRegistered(address,address,address)",
      "arguments": [
        "0xCf593639B34CaE0ea3217dA27014ab5FbBAc8342",
        "0x9F0D8BAC11C5693a290527f09434b86651c66Bf2",
        "0x840F3800136e6a8BCAC3A7FE22f60543A06b6c6a"
      ],
      "transaction": {
        "from": "0xf39fd6e51aad88f6f4ce6ab8827279cfffb92266",
        "to": "0x5fbdb2315678afecb367f032d93f642f64180aa3",
        "gas": "0x9058",
        "value": "0x0",
        "input": "0x1f76bdd8000000000000000000000000cf593639b34cae0ea3217da27014ab5fbbac83420000000000000000000000009f0d8bac11c5693a290527f09434b86651c66bf2000000000000000000000000840f3800136e6a8bcac3a7fe22f60543a06b6c6a",
        "nonce": "0x2",
        "chainId": "0x7a69"
      },
      "additionalContracts": [],
      "isFixedGasLimit": false
    },
    {
      "hash": "0x96effb76313f044af185325270033b0eb828174548ace462cd2463ae3febe1e4",
      "transactionType": "CALL",
      "contractName": null,
      "contractAddress": "0x5fbdb2315678afecb367f032d93f642f64180aa3",
      "function": "emitOperatorRegistered(address,address,address)",
      "arguments": [
        "0xFE6B5379E861C79dB03eb3a01F3F1892FC4141D5",
        "0xeBBAce05Db3D717A5BA82EAB8AdE712dFb151b13",
        "0x840F3800136e6a8BCAC3A7FE22f60543A06b6c6a"
      ],
      "transaction": {
        "from": "0xf39fd6e51aad88f6f4ce6ab8827279cfffb92266",
        "to": "0x5fbdb2315678afecb367f032d93f642f64180aa3",
        "gas": "0x9058",
        "value": "0x0",
        "input": "0x1f76bdd8000000000000000000000000fe6b5379e861c79db03eb3a01f3f1892fc4141d5000000000000000000000000ebbace05db3d717a5ba82eab8ade712dfb151b13000000000000000000000000840f3800136e6a8bcac3a7fe22f60543a06b6c6a",
        "nonce": "0x3",
        "chainId": "0x7a69"
      },
      "additionalContracts": [],
      "isFixedGasLimit": false
    },
    {
      "hash": "0x336fd019e07d4272b5e566b8baab9dc1de0ae6675243d34bc0bdda2c1d009ce0",
      "transactionType": "CALL",
      "contractName": null,
      "contractAddress": "0x5fbdb2315678afecb367f032d93f642f64180aa3",
      "function": "emitOperatorRegistered(address,address,address)",
      "arguments": [
        "0xCCE3B4EC7681B4EcF5fD5b50e562A88a33E5137B",
        "0x083739b681B85cc2c9e394471486321D6446b25b",
        "0x840F3800136e6a8BCAC3A7FE22f60543A06b6c6a"
      ],
      "transaction": {
        "from": "0xf39fd6e51aad88f6f4ce6ab8827279cfffb92266",
        "to": "0x5fbdb2315678afecb367f032d93f642f64180aa3",
        "gas": "0x9058",
        "value": "0x0",
        "input": "0x1f76bdd8000000000000000000000000cce3b4ec7681b4ecf5fd5b50e562a88a33e5137b000000000000000000000000083739b681b85cc2c9e394471486321d6446b25b000000000000000000000000840f3800136e6a8bcac3a7fe22f60543a06b6c6a",
        "nonce": "0x4",
        "chainId": "0x7a69"
      },
      "additionalContracts": [],
      "isFixedGasLimit": false
    }
  ],
  "receipts": [
    {
      "status": "0x1",
      "cumulativeGasUsed": "0x62b3",
      "logs": [
        {
          "address": "0x5fbdb2315678afecb367f032d93f642f64180aa3",
          "topics": [
            "0x2cc12af15d607deb355aaef5caeae8ce4ee3e0e82b5730cf3af743ed51c51c89",
            "0x000000000000000000000000cf593639b34cae0ea3217da27014ab5fbbac8342",
            "0x0000000000000000000000000000000000000000000000000000000000000003",
            "0x0000000000000000000000009f0d8bac11c5693a290527f09434b86651c66bf2"
          ],
          "data": "0x00000000000000000000000000000000000000000000000000000000679fcc63000000000000000000000000840f3800136e6a8bcac3a7fe22f60543a06b6c6a",
          "blockHash": "0x3f5868477380b92fca363992602079ba6affd5b65b7e4a95cef1d306b284467c",
          "blockNumber": "0x3",
          "blockTimestamp": "0x679fcc63",
          "transactionHash": "0xdcc6efaebb447712951c92d238c34a023cb2191bbad1dbef8cf93d3cdff50354",
          "transactionIndex": "0x0",
          "logIndex": "0x0",
          "removed": false
        }
      ],
      "logsBloom": "0x00000000000000000000000000000000000000000000000000000000290000000000000004000000000000000000000000000000020000000000000000000000000000000000000000000000000000000000000000000000000000000000000000000040000000000000000000000000000000000000000000000000004000000000000000000000000000000000000000000000000000000000000200000000000000000000000000000000000000000000000000800000000000000000400008000040000000000000400000000000000000008000002000000000000000000000000000000000000000000000000000000000000000000000000000000000",
      "type": "0x2",
      "transactionHash": "0xdcc6efaebb447712951c92d238c34a023cb2191bbad1dbef8cf93d3cdff50354",
      "transactionIndex": "0x0",
      "blockHash": "0x3f5868477380b92fca363992602079ba6affd5b65b7e4a95cef1d306b284467c",
      "blockNumber": "0x3",
      "gasUsed": "0x62b3",
      "effectiveGasPrice": "0x2e074650",
      "blobGasPrice": "0x1",
      "from": "0xf39fd6e51aad88f6f4ce6ab8827279cfffb92266",
      "to": "0x5fbdb2315678afecb367f032d93f642f64180aa3",
      "contractAddress": null
    },
    {
      "status": "0x1",
      "cumulativeGasUsed": "0x62b3",
      "logs": [
        {
          "address": "0x5fbdb2315678afecb367f032d93f642f64180aa3",
          "topics": [
            "0x2cc12af15d607deb355aaef5caeae8ce4ee3e0e82b5730cf3af743ed51c51c89",
            "0x000000000000000000000000fe6b5379e861c79db03eb3a01f3f1892fc4141d5",
            "0x0000000000000000000000000000000000000000000000000000000000000004",
            "0x000000000000000000000000ebbace05db3d717a5ba82eab8ade712dfb151b13"
          ],
          "data": "0x00000000000000000000000000000000000000000000000000000000679fcc63000000000000000000000000840f3800136e6a8bcac3a7fe22f60543a06b6c6a",
          "blockHash": "0xd0fe2f87504e505148094a3631fcaf2fc58294f9019690bf0d2f1ead883ece9d",
          "blockNumber": "0x4",
          "blockTimestamp": "0x679fcc63",
          "transactionHash": "0x96effb76313f044af185325270033b0eb828174548ace462cd2463ae3febe1e4",
          "transactionIndex": "0x0",
          "logIndex": "0x0",
          "removed": false
        }
      ],
      "logsBloom": "0x00000000000000000000000000000000000000000000000000000000080000000000000004000000000000000000000000000000000000000000000000400000000000000000000000000000000000000000000000000000000000000000000008000040000000000000000000000000000000000000000000000000000000000000000000000000000000000000008000000000000000000000000200000000000000000100000000000000000000000000000000000000002000000000000000000040000000004000000000000000000000008000002000000020000000000000000000000000000000000000000000000000000000000000080000000000",
      "type": "0x2",
      "transactionHash": "0x96effb76313f044af185325270033b0eb828174548ace462cd2463ae3febe1e4",
      "transactionIndex": "0x0",
      "blockHash": "0xd0fe2f87504e505148094a3631fcaf2fc58294f9019690bf0d2f1ead883ece9d",
      "blockNumber": "0x4",
      "gasUsed": "0x62b3",
      "effectiveGasPrice": "0x2848d8ae",
      "blobGasPrice": "0x1",
      "from": "0xf39fd6e51aad88f6f4ce6ab8827279cfffb92266",
      "to": "0x5fbdb2315678afecb367f032d93f642f64180aa3",
      "contractAddress": null
    },
    {
      "status": "0x1",
      "cumulativeGasUsed": "0x62b3",
      "logs": [
        {
          "address": "0x5fbdb2315678afecb367f032d93f642f64180aa3",
          "topics": [
            "0x2cc12af15d607deb355aaef5caeae8ce4ee3e0e82b5730cf3af743ed51c51c89",
            "0x000000000000000000000000cce3b4ec7681b4ecf5fd5b50e562a88a33e5137b",
            "0x0000000000000000000000000000000000000000000000000000000000000005",
            "0x000000000000000000000000083739b681b85cc2c9e394471486321d6446b25b"
          ],
          "data": "0x00000000000000000000000000000000000000000000000000000000679fcc63000000000000000000000000840f3800136e6a8bcac3a7fe22f60543a06b6c6a",
          "blockHash": "0x5b80ab9b9589c63c2208c07bd674f59ead000b1c9635a365a1987771fae86190",
          "blockNumber": "0x5",
          "blockTimestamp": "0x679fcc63",
          "transactionHash": "0x336fd019e07d4272b5e566b8baab9dc1de0ae6675243d34bc0bdda2c1d009ce0",
          "transactionIndex": "0x0",
          "logIndex": "0x0",
          "removed": false
        }
      ],
      "logsBloom": "0x00000000000000000000000000000000000000000000000000000000080000000020000004000000000000000000000000000000000000000000000000000000000018000000000000000000000000000000000400000000000000000000000000000040000000000000000000000000000000000000000000000000000000000000000000000000000000000000001004000800000000000000000200000000000000000000000000000000000000000000000000000000000000000000000000000040000000000000000000000000000000000000002000000000000000000000000000000000000000000088000000000000000000000000000000000000",
      "type": "0x2",
      "transactionHash": "0x336fd019e07d4272b5e566b8baab9dc1de0ae6675243d34bc0bdda2c1d009ce0",
      "transactionIndex": "0x0",
      "blockHash": "0x5b80ab9b9589c63c2208c07bd674f59ead000b1c9635a365a1987771fae86190",
      "blockNumber": "0x5",
      "gasUsed": "0x62b3",
      "effectiveGasPrice": "0x2341e97d",
      "blobGasPrice": "0x1",
      "from": "0xf39fd6e51aad88f6f4ce6ab8827279cfffb92266",
      "to": "0x5fbdb2315678afecb367f032d93f642f64180aa3",
      "contractAddress": null
    }
  ],
  "libraries": [],
  "pending": [],
  "returns": {},
  "timestamp": 1738525795,
  "chain": 31337,
  "commit": "74f003a"
}