{
  "transactions": [
    {
      "hash": "0xc3c5c9892f385ee1d33276677f4a57420db1b80f442358f9503c759f70e65e82",
      "transactionType": "CALL",
      "contractName": null,
      "contractAddress": "0x5fbdb2315678afecb367f032d93f642f64180aa3",
      "function": "emitOperatorRegistered(address,address,address)",
      "arguments": [
        "0xCf593639B34CaE0ea3217dA27014ab5FbBAc8342",
        "0x9F0D8BAC11C5693a290527f09434b86651c66Bf2",
        "0x840F3800136e6a8BCAC3A7FE22f60543A06b6c6a"
      ],
      "transaction": {
        "from": "0xf39fd6e51aad88f6f4ce6ab8827279cfffb92266",
        "to": "0x5fbdb2315678afecb367f032d93f642f64180aa3",
        "gas": "0x87f7",
        "value": "0x0",
        "input": "0x1f76bdd8000000000000000000000000cf593639b34cae0ea3217da27014ab5fbbac83420000000000000000000000009f0d8bac11c5693a290527f09434b86651c66bf2000000000000000000000000840f3800136e6a8bcac3a7fe22f60543a06b6c6a",
        "nonce": "0x2",
        "chainId": "0x7a69"
      },
      "additionalContracts": [],
      "isFixedGasLimit": false
    },
    {
      "hash": "0xf1f8f1cd0c437eb374e7460f5af5b477f7be41697c103a1fdfb6d65d94a304e1",
      "transactionType": "CALL",
      "contractName": null,
      "contractAddress": "0x5fbdb2315678afecb367f032d93f642f64180aa3",
      "function": "emitOperatorRegistered(address,address,address)",
      "arguments": [
        "0xFE6B5379E861C79dB03eb3a01F3F1892FC4141D5",
        "0xeBBAce05Db3D717A5BA82EAB8AdE712dFb151b13",
        "0x840F3800136e6a8BCAC3A7FE22f60543A06b6c6a"
      ],
      "transaction": {
        "from": "0xf39fd6e51aad88f6f4ce6ab8827279cfffb92266",
        "to": "0x5fbdb2315678afecb367f032d93f642f64180aa3",
        "gas": "0x87f7",
        "value": "0x0",
        "input": "0x1f76bdd8000000000000000000000000fe6b5379e861c79db03eb3a01f3f1892fc4141d5000000000000000000000000ebbace05db3d717a5ba82eab8ade712dfb151b13000000000000000000000000840f3800136e6a8bcac3a7fe22f60543a06b6c6a",
        "nonce": "0x3",
        "chainId": "0x7a69"
      },
      "additionalContracts": [],
      "isFixedGasLimit": false
    },
    {
      "hash": "0xcb92b757e290207214eb0af4b38ddadb56d4e615fe31aeb85528327235a4af8b",
      "transactionType": "CALL",
      "contractName": null,
      "contractAddress": "0x5fbdb2315678afecb367f032d93f642f64180aa3",
      "function": "emitOperatorRegistered(address,address,address)",
      "arguments": [
        "0xCCE3B4EC7681B4EcF5fD5b50e562A88a33E5137B",
        "0x083739b681B85cc2c9e394471486321D6446b25b",
        "0x840F3800136e6a8BCAC3A7FE22f60543A06b6c6a"
      ],
      "transaction": {
        "from": "0xf39fd6e51aad88f6f4ce6ab8827279cfffb92266",
        "to": "0x5fbdb2315678afecb367f032d93f642f64180aa3",
        "gas": "0x87f7",
        "value": "0x0",
        "input": "0x1f76bdd8000000000000000000000000cce3b4ec7681b4ecf5fd5b50e562a88a33e5137b000000000000000000000000083739b681b85cc2c9e394471486321d6446b25b000000000000000000000000840f3800136e6a8bcac3a7fe22f60543a06b6c6a",
        "nonce": "0x4",
        "chainId": "0x7a69"
      },
      "additionalContracts": [],
      "isFixedGasLimit": false
    }
  ],
  "receipts": [
    {
      "status": "0x1",
      "cumulativeGasUsed": "0x6270",
      "logs": [
        {
          "address": "0x5fbdb2315678afecb367f032d93f642f64180aa3",
          "topics": [
            "0x2cc12af15d607deb355aaef5caeae8ce4ee3e0e82b5730cf3af743ed51c51c89",
            "0x000000000000000000000000cf593639b34cae0ea3217da27014ab5fbbac8342",
            "0x0000000000000000000000000000000000000000000000000000000000000003",
            "0x0000000000000000000000009f0d8bac11c5693a290527f09434b86651c66bf2"
          ],
          "data": "0x00000000000000000000000000000000000000000000000000000000679c5f42000000000000000000000000840f3800136e6a8bcac3a7fe22f60543a06b6c6a",
          "blockHash": "0x4f42516c5701d16c5ce5e0ff8bddaa468cc7a82241d91ff3d90f6c2ea72c84ac",
          "blockNumber": "0x3",
          "blockTimestamp": "0x679c5f42",
          "transactionHash": "0xc3c5c9892f385ee1d33276677f4a57420db1b80f442358f9503c759f70e65e82",
          "transactionIndex": "0x0",
          "logIndex": "0x0",
          "removed": false
        }
      ],
      "logsBloom": "0x00000000000000000000000000000000000000000000000000000000290000000000000004000000000000000000000000000000020000000000000000000000000000000000000000000000000000000000000000000000000000000000000000000040000000000000000000000000000000000000000000000000004000000000000000000000000000000000000000000000000000000000000200000000000000000000000000000000000000000000000000800000000000000000400008000040000000000000400000000000000000008000002000000000000000000000000000000000000000000000000000000000000000000000000000000000",
      "type": "0x2",
      "transactionHash": "0xc3c5c9892f385ee1d33276677f4a57420db1b80f442358f9503c759f70e65e82",
      "transactionIndex": "0x0",
      "blockHash": "0x4f42516c5701d16c5ce5e0ff8bddaa468cc7a82241d91ff3d90f6c2ea72c84ac",
      "blockNumber": "0x3",
      "gasUsed": "0x6270",
      "effectiveGasPrice": "0x2dfbec88",
      "blobGasPrice": "0x1",
      "from": "0xf39fd6e51aad88f6f4ce6ab8827279cfffb92266",
      "to": "0x5fbdb2315678afecb367f032d93f642f64180aa3",
      "contractAddress": null
    },
    {
      "status": "0x1",
      "cumulativeGasUsed": "0x6270",
      "logs": [
        {
          "address": "0x5fbdb2315678afecb367f032d93f642f64180aa3",
          "topics": [
            "0x2cc12af15d607deb355aaef5caeae8ce4ee3e0e82b5730cf3af743ed51c51c89",
            "0x000000000000000000000000fe6b5379e861c79db03eb3a01f3f1892fc4141d5",
            "0x0000000000000000000000000000000000000000000000000000000000000004",
            "0x000000000000000000000000ebbace05db3d717a5ba82eab8ade712dfb151b13"
          ],
          "data": "0x00000000000000000000000000000000000000000000000000000000679c5f42000000000000000000000000840f3800136e6a8bcac3a7fe22f60543a06b6c6a",
          "blockHash": "0xaa7b1b6aff4b01d8569648cdfd510bbbafb2c85d7e865e2d2230f08a2ed2f54b",
          "blockNumber": "0x4",
          "blockTimestamp": "0x679c5f42",
          "transactionHash": "0xf1f8f1cd0c437eb374e7460f5af5b477f7be41697c103a1fdfb6d65d94a304e1",
          "transactionIndex": "0x0",
          "logIndex": "0x0",
          "removed": false
        }
      ],
      "logsBloom": "0x00000000000000000000000000000000000000000000000000000000080000000000000004000000000000000000000000000000000000000000000000400000000000000000000000000000000000000000000000000000000000000000000008000040000000000000000000000000000000000000000000000000000000000000000000000000000000000000008000000000000000000000000200000000000000000100000000000000000000000000000000000000002000000000000000000040000000004000000000000000000000008000002000000020000000000000000000000000000000000000000000000000000000000000080000000000",
      "type": "0x2",
      "transactionHash": "0xf1f8f1cd0c437eb374e7460f5af5b477f7be41697c103a1fdfb6d65d94a304e1",
      "transactionIndex": "0x0",
      "blockHash": "0xaa7b1b6aff4b01d8569648cdfd510bbbafb2c85d7e865e2d2230f08a2ed2f54b",
      "blockNumber": "0x4",
      "gasUsed": "0x6270",
      "effectiveGasPrice": "0x283ee7d3",
      "blobGasPrice": "0x1",
      "from": "0xf39fd6e51aad88f6f4ce6ab8827279cfffb92266",
      "to": "0x5fbdb2315678afecb367f032d93f642f64180aa3",
      "contractAddress": null
    },
    {
      "status": "0x1",
      "cumulativeGasUsed": "0x6270",
      "logs": [
        {
          "address": "0x5fbdb2315678afecb367f032d93f642f64180aa3",
          "topics": [
            "0x2cc12af15d607deb355aaef5caeae8ce4ee3e0e82b5730cf3af743ed51c51c89",
            "0x000000000000000000000000cce3b4ec7681b4ecf5fd5b50e562a88a33e5137b",
            "0x0000000000000000000000000000000000000000000000000000000000000005",
            "0x000000000000000000000000083739b681b85cc2c9e394471486321d6446b25b"
          ],
          "data": "0x00000000000000000000000000000000000000000000000000000000679c5f42000000000000000000000000840f3800136e6a8bcac3a7fe22f60543a06b6c6a",
          "blockHash": "0x29b20e6735407b82c12b288ac86a0dcc0d340d93517fad3bf3adc20830b58297",
          "blockNumber": "0x5",
          "blockTimestamp": "0x679c5f42",
          "transactionHash": "0xcb92b757e290207214eb0af4b38ddadb56d4e615fe31aeb85528327235a4af8b",
          "transactionIndex": "0x0",
          "logIndex": "0x0",
          "removed": false
        }
      ],
      "logsBloom": "0x00000000000000000000000000000000000000000000000000000000080000000020000004000000000000000000000000000000000000000000000000000000000018000000000000000000000000000000000400000000000000000000000000000040000000000000000000000000000000000000000000000000000000000000000000000000000000000000001004000800000000000000000200000000000000000000000000000000000000000000000000000000000000000000000000000040000000000000000000000000000000000000002000000000000000000000000000000000000000000088000000000000000000000000000000000000",
      "type": "0x2",
      "transactionHash": "0xcb92b757e290207214eb0af4b38ddadb56d4e615fe31aeb85528327235a4af8b",
      "transactionIndex": "0x0",
      "blockHash": "0x29b20e6735407b82c12b288ac86a0dcc0d340d93517fad3bf3adc20830b58297",
      "blockNumber": "0x5",
      "gasUsed": "0x6270",
      "effectiveGasPrice": "0x233934bc",
      "blobGasPrice": "0x1",
      "from": "0xf39fd6e51aad88f6f4ce6ab8827279cfffb92266",
      "to": "0x5fbdb2315678afecb367f032d93f642f64180aa3",
      "contractAddress": null
    }
  ],
  "libraries": [],
  "pending": [],
  "returns": {},
  "timestamp": 1738301250,
  "chain": 31337,
  "commit": "5386c2f"
}